:1000000008308A0000280000FF00030E8301A100D1
:100010000A08A0008A010408A2007708A300780853
:10002000A4007908A5007A08A6007B08A70083131E
:1000300083128C308400801E1F288C1A36288B1E59
:1000400023280B193928220884002308F7002408E4
:10005000F8002508F9002608FA002708FB00200808
:100060008A00210E8300FF0E7F0E09008A110A12FA
:10007000A9288A110A12B2280A108A100A118207C6
:1000800053344F344C344134523420345434523489
:10009000413443344B3449344E34473400340A102D
:1000A0008A100A1182074C3431343A3400340A1071
:1000B0008A100A1182074C3432343A3400340A1060
:1000C0008A100A1182074C3433343A3400340A104F
:1000D0008A100A1182074C3434343A3400340A103E
:1000E0008A100A1182074234413454345F34313467
:1000F0003A3400340A108A100A118207423441341B
:1001000054345F3432343A3400340A108A100A11FD
:10011000820744344934533400340A108A100A11D7
:10012000820743344834413400340A108A100A11DB
:1001300082072E3400348C1E9B281808A8001A0849
:10014000F800A81CA5281812181600008A110A1217
:10015000AA289B287808B7000130B8008C128A11B1
:100160000A122328B60A36082A3C0318B928B60111
:100170003A140B118A110A1223285D3084000008FA
:100180000319CF280330F800F701F70BC528F80B47
:10019000C4289530F700F70BCB28800BC228003419
:1001A000540888008613891009150130DD00BD2030
:1001B000091100345C088800861789100915013080
:1001C000DD00BD2009110034F801F901F701FA0141
:1001D0005F08031DEE285E08031908291030E000AF
:1001E0000310DC0DDD0DF70DFA0D5F087A02031D1B
:1001F000FB285E087702031C04295E08F702031C33
:10020000FA035F08FA020314F80DF90DE00BF02869
:1002100000000034D6015608033C031C3729573030
:10022000560784005508DD005408DC00DF010A3061
:10023000DE00E4207708800044305607840055082B
:10024000DD005408DC00DF010A30DE00E42077081E
:1002500080005508DD005408DC00DF010A30DE00B4
:10026000E4207908D5007808D400D60A0B295A086A
:100270003038DB00DC00DA2059083038DB00DC00E5
:10028000DA2058083038DB00DC00DA205708303834
:10029000DB00DC00DA208A150A12D629D6015608BE
:1002A000033C031C7B295730560784005508DD00AA
:1002B0005408DC00DF010A30DE00E420770880000B
:1002C0004830560784005508DD005408DC00DF0183
:1002D0000A30DE00E420770880005508DD0054086D
:1002E000DC00DF010A30DE00E4207908D500780860
:1002F000D400D60A4F295A083038DB00DC00DA2057
:1003000059083038DB00DC00DA2058083038DB00D0
:10031000DC00DA2057083038DB00DC00DA208A15F0
:100320000A12F529D6015608033C031CBF29573091
:10033000560784005508DD005408DC00DF010A3050
:10034000DE00E420770880004C3056078400550812
:10035000DD005408DC00DF010A30DE00E42077080D
:1003600080005508DD005408DC00DF010A30DE00A3
:10037000E4207908D5007808D400D60A93295A08D1
:100380003038DB00DC00DA2059083038DB00DC00D4
:10039000DA2058083038DB00DC00DA205708303823
:1003A000DB00DC00DA208A150A12142AD60156086E
:1003B000033C031C032A5730560784005508DD0010
:1003C0005408DC00DF010A30DE00E42077088000FA
:1003D0005030560784005508DD005408DC00DF016A
:1003E0000A30DE00E420770880005508DD0054085C
:1003F000DC00DF010A30DE00E4207908D50078084F
:10040000D400D60AD7295A083038DB00DC00DA20BD
:1004100059083038DB00DC00DA2058083038DB00BF
:10042000DC00DA2057083038DB00DC00DA208A15DF
:100430000A12332AD601D6015608033C031C482A67
:100440005730560784005508DD005408DC00DF01F2
:100450000A30DE00E420770880003C305607840034
:100460005508DD005408DC00DF010A30DE00E4201E
:10047000770880005508DD005408DC00DF010A30F1
:10048000DE00E4207908D5007808D400D60A1C2ABA
:100490005A083038DB00DC00DA2059083038DB003D
:1004A000DC00DA20DB015B089520003803195C2AA8
:1004B000DB0ADC00DA20532A58083038DB00DC0085
:1004C000DA2057083038DB00DC00DA208A150A12FF
:1004D0005A2AD6015608033C031C962A5730560761
:1004E00084005508DD005408DC00DF010A30DE001E
:1004F000E420770880004030560784005508DD006E
:100500005408DC00DF010A30DE00E42077088000B8
:100510005508DD005408DC00DF010A30DE00E4206D
:100520007908D5007808D400D60A6A2A5A083038E3
:10053000DB00DC00DA2059083038DB00DC00DA2090
:10054000DB015B08952000380319AA2ADB0ADC00CE
:10055000DA20A12A58083038DB00DC00DA205708FE
:0E0560003038DB00DC00DA208A150A12792A16
:1010000084011F3083051130831699002230980027
:1010100090308312980083161F149F141F159F1180
:1010200007309C008312A801A901AA01AB01AC0101
:10103000AD01AE01AF01B001B101B201B301B40124
:10104000B501B601B701B801B9013A10BA103A11A9
:10105000BA113A12BB01BC01BD01BE01BF01C00102
:10106000C101C201C301C401C501C601C701C80154
:10107000C901CA01CB01CC01CD01CE01CF01D00104
:10108000D101D201D3018801890183168801013081
:1010900089008312860183168601831287018030BE
:1010A00083168700C03083128B008B0483168C1646
:1010B00038308312D4008A11D0208A150530DD0023
:1010C0008A11BD208A150630D4008A11D0208A15D5
:1010D0000530DD008A11BD208A150C30D4008A113C
:1010E000D0208A150530DD008A11BD208A15013017
:1010F000D4008A11D0208A150530DD008A11BD2068
:101100008A158030D4008A11D0208A15D401540861
:101110008A113C208A15003803199428D40ADC006F
:101120008A11DA208A158728810183160108C039BF
:101130000738810083128B16C0308B0483161F136F
:1011400083121F179F1783169F1783121F1483166E
:101150001F149F101F119F1508308312D400FA30FE
:10116000DD008A11BD208A15D40BAF280130D400D0
:101170008A11D0208A150230DD008A11BD208A151F
:10118000380BD9283708463C031DCA280714871096
:10119000B801D9283708523C031DD22807108714FC
:1011A000B801D9283708533C031DD92807108710E8
:1011B000B8019630DD008A11BD208A150030F80094
:1011C0001F08C73978049F005B30F700F70BE6284B
:1011D000000000001F151F19EB2883161E0883123C
:1011E000A9001E08AA000330F700F70BF52800003D
:1011F0009630DD008A11BD208A150830F8001F08DE
:10120000C73978049F005B30F700F70B0529000011
:1012100000001F151F190A2983161E088312AB0030
:101220001E08AC000330F700F70B142900009630BD
:10123000DD008A11BD208A151030F8001F08C7395B
:1012400078049F005B30F700F70B242900000000B2
:101250001F151F19292983161E088312AD001E08A9
:10126000AE000330F700F70B332900009630DD00A5
:101270008A11BD208A151830F8001F08C739780474
:101280009F005B30F700F70B4329000000001F159B
:101290001F19482983161E088312AF001E08B000CC
:1012A0002430F700F70B522900009630DD008A1138
:1012B000BD208A152030F8001F08C73978049F0028
:1012C0005B30F700F70B6229000000001F151F19A3
:1012D000672983161E088312B1001E08B20003108E
:1012E000B10DB20D2430F700F70B742900009630D1
:1012F000DD008A11BD208A152830F8001F08C73983
:1013000078049F005B30F700F70B84290000000091
:101310001F151F19892983161E088312B3001E0882
:10132000B4000310B30DB40D2430F700F70B962969
:101330000000B5080319A0293508063C031DAF2994
:101340006430DD008A11BD208A150130D4008A1175
:10135000D0208A150230DD008A11BD208A153A1C82
:10136000B8293A10B50AB90A35080B3C031CB50177
:101370003508053C031C3F2ABB018030D4008A118C
:10138000D0208A15D40154088A114F208A150038BC
:101390000319D029D40ADC008A11DA208A15C3295E
:1013A0002A08D5002908D4008A110A298A15323062
:1013B000DD008A11BD208A158830D4008A11D02022
:1013C0008A15D40154088A1157208A150038031948
:1013D000EF29D40ADC008A11DA208A15E2292C08C8
:1013E000D5002B08D4008A114E298A153230DD0031
:1013F0008A11BD208A15C030D4008A11D0208A15E8
:10140000D40154088A115F208A15003803190E2A66
:10141000D40ADC008A11DA208A15012A2E08D500A8
:101420002D08D4008A1192298A153230DD008A11E4
:10143000BD208A15C830D4008A11D0208A15D40165
:1014400054088A1167208A15003803192D2AD40AF6
:10145000DC008A11DA208A15202A3008D5002F08EE
:10146000D4008A11D6298A153230DD008A11BD20B8
:101470008A156430DD008A11BD208A15F32A0130F7
:10148000BB008030D4008A11D0208A15D4015408C2
:101490008A116F208A1500380319542AD40ADC00F7
:1014A0008A11DA208A15472A3208D5003108D4007B
:1014B0008A111A2A8A153230DD008A11BD208A1558
:1014C000C030D4008A11D0208A15D40154088A1162
:1014D0007A208A1500380319732AD40ADC008A118D
:1014E000DA208A15662A3408D5003308D4008A1118
:1014F000692A8A156430DD008A11BD208A153408F6
:101500003202031C9C2A031D892A31083302031866
:101510009C2A8D30D4008A11D0208A15D401540819
:101520008A1185208A15003803199C2AD40ADC0008
:101530008A11DA208A158F2A32083402031CB92A4C
:10154000031DA62A330831020318B92A8D30D400AE
:101550008A11D0208A15D40154088A118D208A1549
:1015600000380319B92AD40ADC008A11DA208A1556
:10157000AC2A32083402031CD62A031DC32A3308BE
:1015800031020318D62ACD30D4008A11D0208A1512
:10159000D40154088A1185208A1500380319D62AE7
:1015A000D40ADC008A11DA208A15C92A34083202EA
:1015B000031CF32A031DE02A310833020318F32A1F
:1015C000CD30D4008A11D0208A15D40154088A1154
:1015D0008D208A1500380319F32AD40ADC008A11F9
:1015E000DA208A15E62A2C082A02031C432B031D45
:1015F000FD2A29082B020318432B2E082A02031C5C
:10160000432B031D072B29082D020318432B3008F9
:101610002A02031C432B031D112B29082F02031838
:10162000432BBA18432B3A1D222B86140610023086
:10163000D400FA30DD008A11BD208A15D40B192B95
:1016400086103F2BBA1D312B061486100430D400AF
:10165000FA30DD008A11BD208A15D40B282B061024
:101660003F2B3A1E3F2B061486100230D400FA306E
:10167000DD008A11BD208A15D40B372B0610BA1451
:101680003A11BA113A122A082C02031C932B031D9B
:101690004D2B2B0829020318932B2E082C02031C18
:1016A000932B031D572B2B082D020318932B300867
:1016B0002C02031C932B031D612B2B082F020318F4
:1016C000932B3A19932BBA1D722B861406100230F5
:1016D000D400FA30DD008A11BD208A15D40B692BA5
:1016E00086108F2B3A1E812B061486100430D400EE
:1016F000FA30DD008A11BD208A15D40B782B061034
:101700008F2BBA1C8F2B061486100230D400FA30AF
:10171000DD008A11BD208A15D40B872B0610BA1064
:101720003A15BA113A122A082E02031CE32B031DA4
:101730009D2B2D0829020318E32B2C082E02031CD5
:10174000E32B031DA72B2D082B020318E32B3008D6
:101750002E02031CE32B031DB12B2D082F020318AF
:10176000E32BBA19E32B3A1EC22B86140610023063
:10177000D400FA30DD008A11BD208A15D40BB92BB4
:101780008610DF2BBA1CD12B061486100430D4002F
:10179000FA30DD008A11BD208A15D40BC82B061043
:1017A000DF2B3A1DDF2B061486100230D400FA30EE
:1017B000DD008A11BD208A15D40BD72B0610BA1074
:1017C0003A11BA153A122A083002031C332C031DB1
:1017D000ED2B2F0829020318332C2C083002031C90
:1017E000332C031DF72B2F082B020318332C2E0844
:1017F0003002031C332C031D012C2F082D0203186B
:10180000332C3A1A332CBA1C122C861406100230D0
:10181000D400FA30DD008A11BD208A15D40B092CC2
:1018200086102F2C3A1D212C061486100430D4006B
:10183000FA30DD008A11BD208A15D40B182C061051
:101840002F2CBA1D2F2C061486100230D400FA302B
:10185000DD008A11BD208A15D40B272C0610BA1082
:101860003A11BA113A1632303107D4003208D50095
:101870000318D50A34085502031C462C031D442CBA
:10188000540833020318462C0616861232303307EA
:10189000D4003408D5000318D50A32085502031CB9
:1018A000592C031D572C540831020318592C0612C9
:1018B00086163908053C031DAA2EB9010230D40052
:1018C0009630DD008A11BD208A15D40B602C2A3099
:1018D0000C1E682C99000230D4009630DD008A116D
:1018E000BD208A15D40B6D2C42300C1E752C99002E
:1018F0000230D4009630DD008A11BD208A15D40B49
:101900007A2C31300C1E822C99000230D400963093
:10191000DD008A11BD208A15D40B872C430830388E
:10192000D40054080C1E922C99000230D40096303A
:10193000DD008A11BD208A15D40B972C420830385F
:10194000D40054080C1EA22C99000230D40096300A
:10195000DD008A11BD208A15D40BA72C2E300C1E59
:10196000AF2C99000230D4009630DD008A11BD20E2
:101970008A15D40BB42C41083038D40054080C1EFE
:10198000BF2C99000230D4009630DD008A11BD20B2
:101990008A15D40BC42C40083038D40054080C1ECF
:1019A000CF2C99000230D4009630DD008A11BD2082
:1019B0008A15D40BD42C42300C1EDC2C990002303A
:1019C000D4009630DD008A11BD208A15D40BE12C9D
:1019D00032300C1EE92C99000230D4009630DD0024
:1019E0008A11BD208A15D40BEE2C3F083038D40064
:1019F00054080C1EF92C99000230D4009630DD00FA
:101A00008A11BD208A15D40BFE2C3E083038D40034
:101A100054080C1E092D99000230D4009630DD00C8
:101A20008A11BD208A15D40B0E2D2E300C1E162DBA
:101A300099000230D4009630DD008A11BD208A154D
:101A4000D40B1B2D3D083038D40054080C1E262D15
:101A500099000230D4009630DD008A11BD208A152D
:101A6000D40B2B2D3C083038D40054080C1E362DD6
:101A700099000230D4009630DD008A11BD208A150D
:101A8000D40B3B2D4C300C1E432D99000230D4005A
:101A90009630DD008A11BD208A15D40B482D3130D7
:101AA0000C1E502D99000230D4009630DD008A11B2
:101AB000BD208A15D40B552D47083038D400540862
:101AC0000C1E602D99000230D4009630DD008A1182
:101AD000BD208A15D40B652D46083038D400540833
:101AE0000C1E702D99000230D4009630DD008A1152
:101AF000BD208A15D40B752D45083038D400540804
:101B00000C1E802D99000230D4009630DD008A1121
:101B1000BD208A15D40B852D44083038D4005408D4
:101B20000C1E902D99000230D4009630DD008A11F1
:101B3000BD208A15D40B952D4C300C1E9D2D99007F
:101B40000230D4009630DD008A11BD208A15D40BF6
:101B5000A22D32300C1EAA2D99000230D4009630EE
:101B6000DD008A11BD208A15D40BAF2D4B0830380B
:101B7000D40054080C1EBA2D99000230D4009630BF
:101B8000DD008A11BD208A15D40BBF2D4A083038DC
:101B9000D40054080C1ECA2D99000230D40096308F
:101BA000DD008A11BD208A15D40BCF2D49083038AD
:101BB000D40054080C1EDA2D99000230D40096305F
:101BC000DD008A11BD208A15D40BDF2D480830387E
:101BD000D40054080C1EEA2D99000230D40096302F
:101BE000DD008A11BD208A15D40BEF2D4C300C1E60
:101BF000F72D99000230D4009630DD008A11BD2007
:101C00008A15D40BFC2D33300C1E042E99000230A3
:101C1000D4009630DD008A11BD208A15D40B092E20
:101C20004F083038D40054080C1E142E990002308E
:101C3000D4009630DD008A11BD208A15D40B192EF0
:101C40004E083038D40054080C1E242E990002305F
:101C5000D4009630DD008A11BD208A15D40B292EC0
:101C60004D083038D40054080C1E342E9900023030
:101C7000D4009630DD008A11BD208A15D40B392E90
:101C80004C083038D40054080C1E442E9900023001
:101C9000D4009630DD008A11BD208A15D40B492E60
:101CA0004C300C1E512E99000230D4009630DD00CD
:101CB0008A11BD208A15D40B562E34300C1E5E2E90
:101CC00099000230D4009630DD008A11BD208A15BB
:101CD000D40B632E53083038D40054080C1E6E2EDB
:101CE00099000230D4009630DD008A11BD208A159B
:101CF000D40B732E52083038D40054080C1E7E2E9C
:101D000099000230D4009630DD008A11BD208A157A
:101D1000D40B832E51083038D40054080C1E8E2E5C
:101D200099000230D4009630DD008A11BD208A155A
:101D3000D40B932E50083038D40054080C1E9E2E1D
:101D400099000230D4009630DD008A11BD208A153A
:081D5000D40BA32EC028630090
:02400E00723FFF
:00000001FF
;PIC16F877A
