:1000000008308A005B2B00000A108A100A110B3E90
:1000100003188A0A820000340034003400340034AB
:10002000003400345F3400340034003403340034CE
:100030000334003414343E3414343E341434243441
:100040002A347F342A341234433433340834663447
:100050006134363449345534223450340034053454
:1000600003340034003400341C342234413400346E
:100070000034413422341C340034143408343E3407
:1000800008341434083408343E3408340834003456
:100090005034303400340034083408340834083420
:1000A00008340034603460340034003420341034B8
:1000B0000834043402343E345134493445343E3437
:1000C000043402347F340034003442346134513417
:1000D00049344634223441344934493436341834AE
:1000E000143412347F3410342734453445344534C5
:1000F00039343E34493449344934323401340134DA
:100100007134093407343634493449344934363487
:1001100026344934493449343E3400343634363494
:10012000003400340034563436340034003408349B
:100130001434223441340034143414341434143458
:100140001434003441342234143408340234013479
:100150005134093406343E344134593455345E3414
:100160007E340934093409347E347F3449344934C7
:10017000493436343E3441344134413422347F34BE
:100180004134413441343E347F3449344934493474
:1001900041347F3409340934093401343E34413464
:1001A000413449343A347F340834083408347F34D5
:1001B000003441347F3441340034303440344034EE
:1001C00040343F347F3408341434223441347F3493
:1001D00040344034403440347F3402340C340234F0
:1001E0007F347F340234043408347F343E34413465
:1001F000413441343E347F340934093409340634FF
:100200001E342134213421345E347F3409340934DE
:10021000093476340A148A100A11820726344934C4
:10022000493449343234013401347F3401340134E7
:100230003F344034403440343F341F342034403461
:1002400020341F347F342034103420347F34413440
:1002500022341C34223441340734083470340834D6
:1002600007346134513449344534433400347F34E5
:10027000413400340034023404340834103420345F
:100280000034003441347F34003404340234013407
:100290000234043440344034403440344034003478
:1002A000013402340434003420345434543454348B
:1002B00078347F3444344434443438343834443427
:1002C00044344434443438344434443444347F343F
:1002D00038345434543454341834043404347E34AC
:1002E0000534053408345434543454343C347F34A5
:1002F0000834043404347834003444347D344034D5
:1003000000342034403444343D3400347F341034DD
:10031000283444340034003441347F3440340034D1
:100320007C3404347834043478347C340834043431
:1003300004347834383444344434443438347C34E9
:100340001434143414340834083414341434143485
:100350007C3400347C340834043404344834543459
:10036000543454342034043404343F344434443456
:100370003C344034403420347C341C342034403409
:1003800020341C343C344034303440343C34443425
:1003900028341034283444340C345034503450341D
:1003A0003C344434643454344C34443400340834DD
:1003B000363441344134003400347F340034003466
:1003C00041344134363408340034023401340234C8
:1003D000043402340A148A100A11F13E03188A0AFE
:1003E00082000034003400341C341C341C341C34AF
:1003F0001C341C341C341C341C341C341C341C347D
:100400001C341C34FC34FC34FC341C341C341C34CC
:100410001C341C341C341C34FC34FC34FC341C34BC
:100420001C341C341C341C341C341C341C341C344C
:100430001C341C341C341C341C341C341C341C343C
:100440001C341C341C341C347C347C347C347034B8
:10045000703470347034703470347034703470347C
:10046000703470347034703470347034703470346C
:1004700070347034703470347034F034F034F034DC
:10048000703470347034703470347034703470344C
:10049000703470347034703470347034703470343C
:1004A000703470347034703470347034703470342C
:1004B000703470347034703470347034703470341C
:1004C000703470347034703470347034703470340C
:1004D0007034F034F034F03400340034003400343C
:1004E00000340A108A140A11820700340034F034F0
:1004F000F034F0340034003400340034003400347C
:10050000003400340034003400340034FF34FF344D
:10051000FF3400340034003400340034003400343C
:10052000FF34FF34FF34003400340034003400342E
:10053000003400340034003400340034003400341B
:10054000003400340034003400340034003400340B
:10055000003480348034803480348034803480347B
:1005600080348034803480348034803480348034EB
:10057000803480348034003400340034003400345B
:100580000034FF34FF34FF340034003400340034CE
:1005900000340034003400340034003400340034BB
:1005A00000340034003400340034003400340034AB
:1005B000003400340034003400348034803480341B
:1005C000003400340034003400340034003400348B
:1005D00000340034003400340034FF34FF34FF347E
:1005E000003400340034003400340A108A140A1134
:1005F000FC3E03188A0A820000340034FF34FF34C2
:10060000FF348034803480348034803480348034CB
:1006100080348034803480348034FF34FF34FF34BD
:100620000034003400340034003400340034FF342B
:10063000FF34FF348034803480348034803480341C
:10064000803480348034803480348034803480340A
:1006500080348034803480348034803480348034FA
:10066000FF34FF34FF3403340334033403340334DE
:100670000334033403340334033403340334FF34C6
:10068000FF34FF34003400340034003400340034CC
:10069000FF34FF34FF3400340034003400340034BD
:1006A00000340034003400340034003400340034AA
:1006B000003400340034003400340034003400349A
:1006C0000034003400340034FF34FF34FF3400348D
:1006D000003400340034003400340034003400347A
:1006E0000034003400340034FF34FF34FF3400346D
:1006F00000340034003400340A148A140A118207CA
:100700000034003403340334033403340334033437
:100710000334033403340334033403340334033421
:10072000033403340334033400340034003400341D
:10073000003400340034033403340334033403340A
:1007400003340334033403340334033403340334F1
:1007500003340334033403340334033403340334E1
:1007600003340334033403340334033403340034D4
:1007700000340034003400340034003400340034D9
:1007800000340034003407340734073400340034B4
:1007900000340034003400341F341F341F341C3440
:1007A0001C341C341C341C341C341C341C341C34C9
:1007B0001C341C341C341C341C341C341C341C34B9
:1007C0001C341C341C341C341C341C341C341C34A9
:1007D000FF34FF34FF34003400340034003400347C
:1007E0000034003400340034003400340034003469
:1007F000FF34FF34FF34003400340034003400345C
:100800000A108A100A1582070034003400340034BC
:10081000F034F034F0347034703470347034703438
:1008200070347034703470347034703470347034A8
:100830007034703470347034703470347034703498
:1008400070347034F034F034F03400340034003458
:1008500000340034003400340034F034F034F03428
:100860007034703470347034703470347034703468
:100870007034703470347034703470347034703458
:100880007034703470347034703470347034703448
:100890007034703470347034703470347034703438
:1008A000F034F034F03400340034003400340034D8
:1008B0000034003400340034003400340034003498
:1008C0000034003400340034003400340034003488
:1008D0000034003400340034FF34FF34FF3400347B
:1008E0000034003400340034003400340034003468
:1008F0000034003400340034FF34FF34FF3400345B
:1009000000340034003400340A108A100A158B3E7B
:1009100003188A0A8200003400340034003407349B
:100920000734073400340034003400340034003419
:100930000034003400340034003400340034003417
:100940000034003400340034003400340034003407
:100950000034FF34FF34FF340034003400340034FA
:100960000034003400340034FF34FF34FF340034EA
:1009700000340034003400340034003400340034D7
:1009800000340034003400340034003400340034C7
:1009900000340034003400340034003400340034B7
:1009A0000034003400340034003400340034FF34A8
:1009B000FF34FF34C034C034C034C034C034C03419
:1009C000C034C034C034C034C034C034C034C03487
:1009D000C034C034003400340034003400340034F7
:1009E000003400340034FF34FF34FF34003400346A
:1009F0000034003400340034003400340034003457
:100A0000003400340034FF34FF34FF340034003449
:100A10000034003400340A148A100A1582070034A6
:100A2000003400340034F834F834F834803480343E
:100A30008034803480348034803480348034803416
:100A40008034803480348034803480348034803406
:100A500080348034803480348034FF34FF34FF3479
:100A600000340034003400340034003400340034E6
:100A7000FF34FF34FF3400340034003400340034D9
:100A800000340034003400340034003400340034C6
:100A900000340034003400340034003400340034B6
:100AA00000340034003400340034003400340034A6
:100AB0000034003400340134013401340134013491
:100AC000013401340134013401340134013401347E
:100AD0000134013401340134013401340034003470
:100AE0000034003400340034003400340034FF3467
:100AF000FF34FF3480348034803480348034803458
:100B00000034003400340034003400340034FF3446
:100B1000FF34FF34003400340034003400340A144D
:100B20008A100A15963E03188A0A8200003400349F
:100B30000034003403340334033403340334033403
:100B400003340334033403340334033403340334ED
:100B500003340334033403340334033403340334DD
:100B600003340334033403341F341F341F341C3460
:100B70001C341C341C341C341C341C341C341F34F2
:100B80000F340F340E340E340E340E340E340E3453
:100B90000E340E340E340E340E340E340E340E3445
:100BA0000E340E340E340E340E340E340E340E3435
:100BB0000E340E340E340E340E340E340E340E3425
:100BC0000E340E340E340E340E340E340034003431
:100BD0000034003400340034003400340034003475
:100BE0000034003400340034003400340034003465
:100BF000003400340034003400340034033403344F
:100C0000033403340334033403340334033400342F
:100C10000034003400340034003400340F340F3416
:100C20000F340034003400340034003483163008AC
:100C3000303C031D202E061083120614232E83162B
:100C400086108312861483160612831206128316E8
:100C50008801310883128800831686128312861653
:100C600000000000000000000000831686128312BE
:100C700086128316061083120610831686108312BE
:100C800086100034F701F80183162808031029188C
:100C9000F707F70CF80CA918F707F70CF80C291947
:100CA000F707F70CF80CA919F707F70CF80C291A35
:100CB000F707F70CF80CA91AF707F70CF80C291B23
:100CC000F707F70CF80CA91BF707F70CF80C8312C1
:100CD0000034EB016B08073C031CCD2E8316061174
:100CE0008312061130308316B0004030B1008312F9
:100CF000162631308316B0004030B100831216261C
:100D00006B08B838ED0030308316B00083126D08E0
:100D10008316B100831216266B08B838ED00313007
:100D20008316B00083126D088316B1008312162655
:100D30008316061183120615EC016C083F3C031C58
:100D4000CB2EFF308316A80083126A088316A900F1
:100D5000831242267808ED0030308316B0008312EB
:100D600078088316B10083121626FF308316A80078
:100D700083126A088316A900831242267808ED00C0
:100D800031308316B000831278088316B1008312C5
:100D90001626EC0A9D2EEB0A6A2E0034201020083D
:100DA0008316870083120714831686128312861215
:100DB000831606108312061083168610831286107F
:100DC000831606118312061130308316B000C0302E
:100DD000B1008312162631308316B000C030B10046
:100DE0008312162630308316B0004030B1008312D3
:100DF000162631308316B0004030B100831216261B
:100E000030308316B000B830B1008312162631306E
:100E10008316B000B830B10083121626690B1F2F5D
:100E200030308316B0003F30B100831216263130C7
:100E30008316B0003F30B100831216262D2F3030BC
:100E40008316B0003E30B10083121626313083166F
:100E5000B0003E30B10083121626EA0169268A15D9
:100E60000A12E82B6A30840000080319442F03306B
:100E7000F800F701F70B3A2FF80B392F9530F700F0
:100E8000F70B402F800B372F00340A30E900EA00BF
:100E90002130EB000230EC000130ED008A158A2190
:100EA0008A116430EA0032270A30E9002C30EA0067
:100EB000EB000230EC000130ED008A158A218A1126
:100EC0006430EA0032278A150A12FF2B0A30E90043
:100ED000EA003530EB000230EC000130ED008A15FD
:100EE0008A218A116430EA0032275030E9000A3042
:100EF000EA003930EB000230EC000130ED008A15D9
:100F00008A218A116430EA0032270A30E900283049
:100F1000EA003D30EB000230EC000130ED008A15B4
:100F20008A218A116430EA0032275030E9002830E3
:100F3000EA004130EB000230EC000130ED008A1590
:100F40008A218A116430EA0032278A150A120F2C8E
:100F50000A30E900EA004530EB000230EC000130D5
:100F6000ED008A158A218A116430EA003227503058
:100F7000E9000A30EA004930EB000230EC000130B1
:100F8000ED008A158A218A116430EA0032270A307E
:100F9000E9002830EA004D30EB000230EC0001306F
:100FA000ED008A158A218A116430EA003227503018
:100FB000E9002830EA005130EB000230EC0001304B
:100FC000ED008A158A218A116430EA0032278A15D9
:040FD0000A121F2CB6
:10100000EA016A08073C031C6F2983160611831244
:101010000611B8306A07EB0030308316B000831237
:101020006B088316B1008A11831216268A15B83010
:101030006A07EB0031308316B00083126B08831609
:10104000B1008A11831216268A1530308316B0003B
:10105000C030B1008A11831216268A1531308316EA
:10106000B000C030B1008A11831216268A1583168B
:10107000061183120615E90169083F3C031CD028BC
:101080006A08F83E0318CE28083E722969088A11BA
:10109000EA218A15EB0030308316B00083126B080A
:1010A0008316B1008A11831216268A15CE28690884
:1010B0008A1171228A15EB0030308316B00083123A
:1010C0006B088316B1008A11831216268A15CE2862
:1010D00069088A11F5228A15EB0030308316B000BA
:1010E00083126B088316B1008A11831216268A15A3
:1010F000CE2869088A117C238A15EB0030308316CC
:10110000B00083126B088316B1008A118312162671
:101110008A15CE2869088A1100248A15EB00303020
:101120008316B00083126B088316B1008A118312F4
:1011300016268A15CE2869088A1184248A15EB00A0
:1011400030308316B00083126B088316B1008A1109
:10115000831216268A15CE2869088A110B258A154E
:10116000EB0030308316B00083126B088316B10099
:101170008A11831216268A15CE2869088A118F25AE
:101180008A15EB0030308316B00083126B0883168B
:10119000B1008A11831216268A15CE28E90A3C2846
:1011A000E90169083F3C031C6D296A08F83E0318F1
:1011B0006B29083E7E29403069078A11EA218A1589
:1011C000EB0031308316B00083126B088316B10038
:1011D0008A11831216268A156B29403069078A11F5
:1011E00071228A15EB0031308316B00083126B0830
:1011F0008316B1008A11831216268A156B29403096
:1012000069078A11F5228A15EB0031308316B00088
:1012100083126B088316B1008A11831216268A1571
:101220006B29403069078A117C238A15EB00313025
:101230008316B00083126B088316B1008A118312E3
:1012400016268A156B29403069078A1100248A15F1
:10125000EB0031308316B00083126B088316B100A7
:101260008A11831216268A156B29403069078A1164
:1012700084248A15EB0031308316B00083126B088A
:101280008316B1008A11831216268A156B29403005
:1012900069078A110B258A15EB0031308316B000DF
:1012A00083126B088316B1008A11831216268A15E1
:1012B0006B29403069078A118F258A15EB00313080
:1012C0008316B00083126B088316B1008A11831253
:1012D00016268A156B29E90AD128EA0A01288A15F7
:1012E0000A12F32B0A148A100A118207462857287B
:1012F000682879288A289B28AC28BD280A148A10D7
:101300000A118207DB28ED28FF2811292329352916
:1013100047295929EE016B086E07840080080319DC
:10132000182B6B086E0784000008523C031CBC2974
:101330006B086E078400203000028316A700A80007
:101340000530A9008A11831242268A15780883166F
:10135000A800F9000530F800A030840079088A114F
:10136000831204208A158000F90A840AF80BB9292F
:10137000BB298316AE29EE296B086E07840000088E
:101380007E3C031CE7296B086E0784005330000283
:101390008316A700A8000530A9008A1183124226EF
:1013A0008A1578088316A800F9000530F800A030E7
:1013B000840079088A1183120A218A158000F90AAB
:1013C000840AF80BE429E6298316D929EE29831625
:1013D000A001A101A201A301A4018312053083167B
:1013E000A80083126C088316A9008A118312422672
:1013F0008A15780869077F3C03180D2AE901073030
:101400008316A80083126C088316A9008A11831220
:1014100042268A1501307807EA07EF016F08043C7D
:10142000031C152BF00107308316A80083126C08EB
:101430008316A9008A11831242268A157808700241
:101440000318112BA0306F07840000088316A50035
:10145000F7007008F8000319312A0310F70CF80B95
:101460002D2A771C0E2BF10183126C0871020318D0
:101470000F2BF2016C08720203180B2B720869071C
:101480008316A5007008A80083126C088316A900B3
:101490008A11831242268A1578086A077107831613
:1014A000A7002508A8002708A90083126D08831645
:1014B000AA003030AC0028083F3C0318632A4030B3
:1014C000A8023130AC000611831206118316A8134E
:1014D00028172C08B0002808B1008A11831216269C
:1014E0008A158316290CF700F70CF70C1F30F70547
:1014F0007708BF39B838AF002C08B0002F08B1000A
:101500008A11831216268A15831606118312061570
:1015100083162C08AD002D08303C031D942A0610BC
:1015200083120614972A8316861083128614FF30BE
:1015300083168800061283120616831686128312FB
:1015400086160000000000000000000083168612CE
:1015500083128612000000000000000000008316C5
:1015600086128312861600000000000000000000B2
:1015700083168800831208088316AE008612831231
:1015800086128316061083120610831686108312A5
:10159000861083162E08F8007808AB002A0BE02A84
:1015A00029080739AD000130F7002D08F8000319AC
:1015B000DD2A0310F70DF80BD92A7708AB04F02ABF
:1015C00029080739AD000130F7002D08F80003198C
:1015D000ED2A0310F70DF80BE92A7708FF3AAB055F
:1015E00006118312061183162C08B0002808B100DA
:1015F0008A11831216268A15831606118312061580
:1016000083162C08B0002B08B1008A11831216260D
:101610008A15F20A3A2AF10A8316342A8312F00A4A
:10162000132AEF0A6C08E9070E2AEE0AE90A8B2949
:1016300000340A30E900EA005530EB000230EC00DB
:101640000130ED008A216430EA008A1132278A15C0
:101650005030E9000A30EA005A30EB000230EC006A
:101660000130ED008A216430EA008A1132278A15A0
:101670000A30E9002830EA005F30EB000230EC006D
:101680000130ED008A216430EA008A1132278A1580
:101690005030E9002830EA006430EB000230EC0002
:1016A0000130ED008A216430EA008A1132278A1560
:1016B0008A150A122E2C84011F30830583161F14ED
:1016C0009F141F159F1107309C00FF308312A0004C
:1016D0005330A1005430A2004130A3004630A40092
:1016E000A5002030A6004930A7004E30A8004630A3
:1016F000A9004F30AA00AB014130AC005030AD0022
:10170000AE002030AF004330B0005430B100523052
:10171000B2004C30B300B4014530B5004330B600E0
:101720004530B700B801B900BA00BB00BC01433076
:10173000BD005330BE004330BF00C0014D30C1007A
:101740004530C2004B30C300C4015230C5004130A7
:10175000C6004D30C700C8015330C9004130CA002F
:101760004D30CB00CC01CD004130CE004D30CF000C
:10177000D0014830D1004130D2004D30D300D401E7
:101780005230D5004130D6004D30D7003130D8002E
:10179000D9015330DA004130DB004D30DC0031300C
:1017A000DD00DE014D30DF004130E0004D30E10072
:1017B0003130E200E3014830E4004130E5004D30D3
:1017C000E6003130E700E8010130E9008A11CE2E51
:1017D0008A150430E900FA30EA008A1132278A15A6
:1017E000E90BEB2B00280C30E900FA30EA008A11F3
:1017F00032278A15E90BF52BFC2B8A11452F8A1508
:101800000830E900FA30EA008A1132278A15E90B1C
:10181000022CEA018A1169268A158A11662F8A1517
:101820000830E900FA30EA008A1132278A15E90BFC
:10183000122CEA018A1169268A158A11A82F8A15A5
:101840000830E900FA30EA008A1132278A15E90BDC
:10185000222CEA018A1169268A15192B0830E90021
:10186000FA30EA008A1132278A15E90B302CEA0196
:081870008A1169268A15630044
:02400E00FA3F77
:00000001FF
;PIC16F877A
