:1000000008308A0000280000FF00030E8301A100D1
:100010000A08A0008A010408A2007708A300780853
:10002000A4007908A5007A08A6007B08A70083131E
:1000300083128B1D1D280B1836288C308400801EDF
:1000400023288C1A3928220884002308F700240862
:10005000F8002508F9002608FA002708FB00200808
:100060008A00210E8300FF0E7F0E09008A110A12FA
:10007000B12A8A110A12132B0A108A100A11820758
:1000800020342034203450344C34453441345334FB
:100090004534203445344E345434453452342034BD
:1000A000203400340A108A100A11820720342034C8
:1000B000203459344F345534523420344334483486
:1000C0004F344934433445345334203420342034BD
:1000D000203400340A108A100A1182074B342E345F
:1000E00041343A3400340A108A100A11820743342A
:1000F0004C34413453345334203452344F344F341D
:100100004D3400340A108A100A1182074B342E3401
:1001100042343A3400340A108A100A1182074C34EF
:1001200049344234523441345234593400340A1080
:100130008A100A1182074B342E3443343A34003487
:100140000A108A100A118207433441344E34543461
:10015000453445344E3400340A108A100A1182079F
:100160004B342E3444343A3400340A108A100A11C5
:10017000820748344F345334543445344C340034BB
:100180000A108A100A1182074B342E3445343A344F
:1001900000340A108A100A118207423441344E3466
:1001A0004B34533400340A108A100A118207433446
:1001B0004C34413453345334203452344F344F345C
:1001C0004D343A3400340A108A100A11820744343C
:1001D000493456345934413420344934533420346A
:1001E000503452344534533445344E34543400344E
:1001F0000000000000000A148A100A11023E0318D1
:100200008A0A8200523441344D3459344134203406
:100210004934533420345034523445345334453403
:100220004E34543400340A148A100A1182074C34B4
:100230004934423452344134523459343A3400341B
:100240000A148A100A118207443455344534533451
:100250003A34523453342E34313430343034003460
:100260000A148A100A118207573441344E34543428
:10027000203454344F342034503441345934003411
:100280000A148A100A118207203420344E344F3465
:10029000203444345534453453342034203400342D
:1002A0000A148A100A11820741344D344F345534F0
:1002B0004E345434203450344134493444340034BE
:1002C0000A148A100A118207433441344E345434DC
:1002D000453445344E343A3400340A148A100A1135
:1002E0008207423459342034443449345634593422
:1002F000413400340A148A100A11820742345934F6
:100300002034523441344D345934413400340A14C9
:100310008A100A11820748344F3453345434453418
:100320004C343A3400340A148A100A1182074234D9
:1003300041344E344B3453343A3400340A148A1066
:100340000A11820748344434463443342D344B3444
:100350002E34373400340A148A100A1182075334B9
:10036000423449342D344B342E34383400340A149A
:100370008A100A118207493442342D344B342E340A
:10038000393400340A148A100A118207483444347C
:10039000463443342034423441344E344B342034D8
:1003A00048344134533420344234453445344E3497
:1003B00020342034203400340A148A100A118207B1
:1003C00020342034203420342034533445344C3409
:1003D00045344334543445344434203420342034B8
:1003E000203400340A148A100A11F93E03188A0ACC
:1003F00082005334423449342034423441344E3440
:100400004B3420344834413453342034423445345E
:1004100045344E3420342034203400340A108A14F9
:100420000A118207493442342034423441344E3474
:100430004B3420344834413453342034423445342E
:1004400045344E3420342034203400340A108A14C9
:100450000A1182074334413453344834203457342A
:100460004934543448344434523441342D344B34B8
:100470002E34463400340A108A140A118207433499
:1004800041345334483420344434453450344F34A8
:1004900053342D344B342E34473400340A108A142C
:1004A0000A118207433441345334483420345734DA
:1004B0004934543448344434523441345734413448
:1004C0004C342034203400340A108A140A11820774
:1004D000423441344C3441344E3443344534203476
:1004E00041344D344F3455344E3454343A3400345E
:1004F0000A108A140A1182074334413453344834B1
:1005000020344434453450344F3453344934543413
:1005100045344434203400340A108A140A11820706
:1005200054344F34543441344C34203441344D34F9
:100530004F3455344E3454343A34003462308400ED
:1005400000080319B02A0330F800F701F70BA62AB8
:10055000F80BA52A9530F700F70BAC2A800BA32ADD
:100560000034F03086008611861BB72AD001061BA6
:10057000BB2A0130D000861ABF2A0230D000061AEA
:10058000C32A0330D00086150611861BC92A043001
:10059000D000061BCD2A0530D000861AD12A06309D
:1005A000D000061AD52A0730D00006158610861B03
:1005B000DB2A0830D000061BDF2A4130D000861A23
:1005C000E32A4230D000061AE72A4330D0008614CE
:1005D0000610861BED2A4430D000061BF12A453058
:1005E000D000861AF52A4630D000061AF92A47307C
:1005F000D000061486010608F03C031DFB2AD51521
:100600000230E2009E220B108A110A1223288C1E4F
:10061000072B1808A9001A08F800A91C112B18129A
:10062000181600000034D51A252B443052078400D8
:10063000E30007236308840078088000D20A520888
:10064000043C0318252BD2015516D51E372B4430F8
:1006500052078400E30007236308840078088000C1
:10066000D20A52080B3C0318372BD20153148C12B8
:100670008A110A12232859088800091089100915BF
:100680002D30F700F70B422B000000000911003459
:100690005E0888000914891009152D30F700F70B42
:1006A0004F2B00000000091100341030DF00F7016B
:1006B000FA01DC0CDB0C031C632B5D08F707031845
:1006C000FA0A5E08FA07FA0CF70CF90CF80CDF0BC3
:1006D000592B0034F701F8015B0803105C18F70789
:1006E000F70CF80CDC18F707F70CF80C5C19F70797
:1006F000F70CF80CDC19F707F70CF80C5C1AF70785
:10070000F70CF80CDC1AF707F70CF80C5C1BF70772
:10071000F70CF80CDC1BF707F70CF80C0034F801A9
:10072000F901F701FA016008031D992B5F0803190D
:10073000B32B1030E1000310DD0DDE0DF70DFA0DC7
:1007400060087A02031DA62B5F087702031CAF2BFB
:100750005F08F702031CFA036008FA020314F80D9D
:10076000F90DE10B9B2B00000034DB015B08043C1E
:10077000031CD92B03105B0D3A3E84005A08DE009F
:100780005908DD00E0010A30DF008F237708800080
:10079000840A7A0880005A08DE005908DD00E0016A
:1007A0000A30DF008F237908DA007808D900DB0AE5
:1007B000B62B42083038DC004308DD005C08DE0060
:1007C000482340083038DC004108DD005C08DE00CA
:1007D00048233E083038DC003F08DD005C08DE00BE
:1007E00048233C083038DC003D08DD005C08DE00B2
:1007F00048233A083038DC003B08DD005C08DE00A6
:040800004823003455
:1010000084011F3083051130831699002230980027
:1010100090308312980083161F149F141F159F1180
:1010200007309C008312A901AA01AB01AC01AD01FC
:10103000AE01AF01B001B101B201B301B401B5011C
:10104000B601B701B801B901BA01BB01BC01BD01CC
:10105000BE01BF01C001C101C201C301C401C5017C
:10106000C601C701C801C901CA01CB01CC01CD012C
:10107000CE01CF01D001D101D2015310D3145311AD
:10108000D3115312D3125313D3135410D414541531
:10109000D4155416D4125417D4135510D510551115
:1010A000D5115512D512F0308316860083128601B1
:1010B000831688018312880180308316870083128B
:1010C0008701831689018312890183168101C83043
:1010D00083128B00C0308B0483168C163830831239
:1010E000D9008A113B238A150C30D9008A113B2381
:1010F0008A150630D9008A113B238A150130D900A0
:101100008A113B238A15A8018B1BA8178B13023069
:10111000E2008A119E228A15A81B8B178030D90005
:101120008A113B238A15D90159088A113C208A1556
:1011300000380319A128D90ADE008A1148238A152C
:101140009428C030D9008A113B238A15D901590847
:101150008A1152208A1500380319B428D90ADE00F2
:101160008A1148238A15A7280230D900A8018B1BB1
:10117000A8178B13FA30E2008A119E228A15A81B49
:101180008B17D90BB6280130D9008A113B238A1559
:10119000A8018B1BA8178B130230E2008A119E2234
:1011A0008A15A81B8B1731300C1ED4289900551EA8
:1011B00034290710551455120130D9008A113B23E8
:1011C0008A15A8018B1BA8178B130230E2008A1125
:1011D0009E228A15A81B8B17AD01AC01303044024A
:1011E000DA00DC015A08DB002730DE001030DD00B9
:1011F0008A1155238A157808AC0779080318790FE6
:10120000AD0730304502DA00DC015A08DB0003305C
:10121000DE00E830DD008A1155238A157808AC0716
:1012200079080318790FAD0730304602DA00DB0089
:101230006430DC008A116A238A157808AC07031829
:10124000AD0A30304702DA00DB000A30DC008A11D8
:101250006A238A157808AC070318AD0A30304802B3
:10126000AC070318AD0AD516D008031D262A541E54
:10127000262A5510D3178030D9008A113B238A15AE
:10128000D90159088A116A208A15003803194E2994
:10129000D90ADE008A1148238A1541298430D900F1
:1012A0008A113B238A15D90159088A1173208A159E
:1012B000003803196129D90ADE008A1148238A15EA
:1012C0005429A8018B1BA8178B130130E2008A1147
:1012D0009E228A15A81B8B17C030D9008A113B2388
:1012E0008A15D90159088A1182208A1500380319F4
:1012F0007F29D90ADE008A1148238A157229C43051
:10130000D9008A113B238A15D90159088A118B20EB
:101310008A15003803199229D90ADE008A11482358
:101320008A158529A8018B1BA8178B130130E200B1
:101330008A119E228A15A81B8B179430D9008A1116
:101340003B238A15D90159088A1197208A1500383C
:101350000319B029D90ADE008A1148238A15A32966
:101360009830D9008A113B238A15D90159088A116E
:10137000A0208A1500380319C329D90ADE008A1172
:1013800048238A15B629A8018B1BA8178B13013097
:10139000E2008A119E228A15A81B8B17D430D9002F
:1013A0008A113B238A15D90159088A11AC208A1564
:1013B00000380319E129D90ADE008A1148238A1569
:1013C000D429D830D9008A113B238A15D90159086C
:1013D0008A11B5208A1500380319F429D90ADE00CC
:1013E0008A1148238A15E729A8018B1BA8178B139C
:1013F0000130E2008A119E228A15A81B8B17DF306C
:10140000D9008A113B238A15D90159088A11C020B5
:101410008A1500380319122AD90ADE008A114823D6
:101420008A15052AE330D9008A113B238A15D90190
:1014300059088A11C9208A1500380319252AD90AA2
:10144000DE008A1148238A15182A07145008413CE7
:10145000031D652AD31F652AD00154125315531258
:10146000D311D312531341300C1E342A990001308A
:10147000D9008A113B238A15A8018B1BA8178B134F
:101480000230E2008A119E228A15A81B8B17803039
:10149000D9008A113B238A15D90159088A11D32012
:1014A0008A15003803195A2AD90ADE008A114823FE
:1014B0008A154D2AA8018B1BA8178B136430E200F4
:1014C0008A119E228A15A81B8B17531CAC2A531D08
:1014D000AC2A4E08353C031D8A2A4F08313C031DB7
:1014E0008A2AD51454124D300C1E742A990080306B
:1014F000D9008A113B238A15D90159088A11E320A2
:101500008A15003803198A2AD90ADE008A1148236D
:101510008A157D2A4D08353C031DAB2A4E08333C05
:10152000031DAB2AD51054124C300C1E952A99007D
:10153000C030D9008A113B238A15D90159088A1174
:10154000F8208A1500380319AB2AD90ADE008A115F
:1015500048238A159E2A53105008423C031DE92A4D
:10156000D001541253115312D315D31253134230D6
:101570000C1EB82A99000130D9008A113B238A1524
:101580008030D9008A113B238A15A8018B1BA8172C
:101590008B130230E2008A119E228A15A81B8B173A
:1015A000D90159088A1113218A1500380319DE2A36
:1015B000D90ADE008A1148238A15D12AA8018B1B7B
:1015C000A8178B136430E2008A119E228A15A81B8B
:1015D0008B17531C5B2BD31D5B2B4E08353C031D17
:1015E000262B4F08313C031D262B541254144D302A
:1015F0000C1EF82A99008030D9008A113B238A15E5
:10160000D90159088A1120218A15003803190E2B97
:10161000D90ADE008A1148238A15012BC030D9006F
:101620008A113B238A15D90159088A1130218A155C
:1016300000380319212BD90ADE008A1148238A15A4
:10164000142B9430D9008A113B238A154D08353C60
:10165000031D5A2B4E08333C031D5A2B54105412B1
:101660004C300C1E312B99008030D9008A113B235D
:101670008A15D90159088A1140218A1500380319A1
:10168000472BD90ADE008A1148238A153A2BC0302D
:10169000D9008A113B238A15D90159088A11502192
:1016A0008A15003803195A2BD90ADE008A114823FB
:1016B0008A154D2B53105008433C031D982BD00125
:1016C0005412D31153115316D312531343300C1E1B
:1016D000672B99000130D9008A113B238A15A80194
:1016E0008B1BA8178B130230E2008A119E228A15E9
:1016F000A81B8B178030D9008A113B238A15D9018A
:1017000059088A1160218A15003803198D2BD90ACE
:10171000DE008A1148238A15802BA8018B1BA8178D
:101720008B136430E2008A119E228A15A81B8B1746
:10173000531C152C531E152C4E08353C031DD82B5D
:101740004F08313C031DD82BD41454124D300C1EBD
:10175000A72B990040300C1EAB2B99004D300C1E6E
:10176000AF2B99008030D9008A113B238A15D9010B
:1017700059088A1150218A1500380319C52BD90A36
:10178000DE008A1148238A15B82BC030D9008A118F
:101790003B238A15D90159088A116D218A15003811
:1017A0000319D82BD90ADE008A1148238A15CB2BBE
:1017B0004D08353C031D142C4E08333C031D142CDE
:1017C000D41054124C300C1EE32B990040300C1EE8
:1017D000E72B99004C300C1EEB2B99008030D90080
:1017E0008A113B238A15D90159088A1150218A157B
:1017F00000380319012CD90ADE008A1148238A1502
:10180000F42BC030D9008A113B238A15D90159081D
:101810008A117A218A1500380319142CD90ADE009E
:101820008A1148238A15072C53105008443C031D85
:10183000522CD00154125311D31153125313D316F7
:1018400044300C1E212C99000130D9008A113B2311
:101850008A15A8018B1BA8178B130230E2008A118E
:101860009E228A15A81B8B178030D9008A113B2332
:101870008A15D90159088A1187218A150038031958
:10188000472CD90ADE008A1148238A153A2CA80170
:101890008B1BA8178B136430E2008A119E228A15D5
:1018A000A81B8B17531CBF2CD31EBF2C4E08353CD6
:1018B000031D8A2C4F08313C031D8A2C54155412E9
:1018C0004D300C1E612C99008030D9008A113B23C9
:1018D0008A15D90159088A1150218A15003803192F
:1018E000772CD90ADE008A1148238A156A2CC03069
:1018F000D9008A113B238A15D90159088A116D2113
:101900008A15003803198A2CD90ADE008A11482367
:101910008A157D2C4D08353C031DBE2C4E08333CEA
:10192000031DBE2C541154124C300C1E952C9900E2
:101930008030D9008A113B238A15D90159088A11B0
:1019400050218A1500380319AB2CD90ADE008A1100
:1019500048238A159E2CC030D9008A113B238A1552
:10196000D90159088A117A218A1500380319BE2C29
:10197000D90ADE008A1148238A15B12C5310500869
:10198000453C031D2F2DD00154125317D31253126F
:10199000D311531145300C1ECB2C99000130D900C6
:1019A0008A113B238A15A8018B1BA8178B130230C1
:1019B000E2008A119E228A15A81B8B178030D9005D
:1019C0008A113B238A15D90159088A1193218A1556
:1019D00000380319F12CD90ADE008A1148238A1530
:1019E000E42C8630D9008A113B238A15D901590885
:1019F0008A119E218A1500380319042DD90ADE00A8
:101A00008A1148238A15F72CC030D9008A113B234C
:101A10008A15D90159088A11AB218A150038031992
:101A2000172DD90ADE008A1148238A150A2D943011
:101A3000D9008A113B238A15D90159088A11B72187
:101A40008A15003803192A2DD90ADE008A11482385
:101A50008A151D2DD430D9008A113B238A155008D0
:101A6000073C031D732D531F732D0130D6005313F4
:101A7000D9008A113B238A158030D9008A113B2373
:101A80008A154A300C1E422D9900D90159088A1135
:101A9000C2218A1500380319532DD90ADE008A1194
:101AA00048238A15462DC030D9008A113B238A1558
:101AB000D90159088A11DC218A1500380319662DCD
:101AC000D90ADE008A1148238A15592DA8018B1BDB
:101AD000A8178B130230E2008A119E228A15A81BD8
:101AE0008B170714FA2D5008083C031DB72D531F00
:101AF000B72D0130D6005313D9008A113B238A1524
:101B00004B300C1E812D99008030D9008A113B2367
:101B10008A15D90159088A11F2218A15003803194A
:101B2000972DD90ADE008A1148238A158A2DC030E4
:101B3000D9008A113B238A15D90159088A11DC2161
:101B40008A1500380319AA2DD90ADE008A11482304
:101B50008A159D2DA8018B1BA8178B130230E2005C
:101B60008A119E228A15A81B8B170714FA2D50087C
:101B7000093C031DFA2D531FFA2D0130D6005313D3
:101B8000D9008A113B238A154F300C1EC52D9900B0
:101B90008030D9008A113B238A15D90159088A114E
:101BA0000E228A1500380319DB2DD90ADE008A11AE
:101BB00048238A15CE2DC030D9008A113B238A15BF
:101BC000D90159088A11DC218A1500380319EE2D34
:101BD000D90ADE008A1148238A15E12DA8018B1B42
:101BE000A8178B130230E2008A119E228A15A81BC7
:101BF0008B170714531C7D2E560B7D2E4E08353C3B
:101C0000031D3E2E4F08313C031D3E2ED601D00150
:101C1000D411531053130130D700D5124D300C1E80
:101C20000F2E99000130D9008A113B238A1580308C
:101C3000D9008A113B238A15D90159088A11262215
:101C40008A15003803192A2ED90ADE008A11482382
:101C50008A151D2EC030D9008A113B238A15D9015F
:101C600059088A113B228A15003803193D2ED90ADA
:101C7000DE008A1148238A15302E7D2E4D08353C12
:101C8000031D7D2E4E08333C031D7D2ED601D00151
:101C9000D411531053130130D800D5124C300C1E00
:101CA0004F2E99000130D9008A113B238A158030CC
:101CB000D9008A113B238A15D90159088A11262295
:101CC0008A15003803196A2ED90ADE008A114823C2
:101CD0008A155D2EC030D9008A113B238A15D9019F
:101CE00059088A113B228A15003803197D2ED90A1A
:101CF000DE008A1148238A15702E5008463C031DC9
:101D0000CB2E570BCB2ED001D70140300C1E862E88
:101D100099004D300C1E8A2E9900A8018B1BA81724
:101D20008B130230E2008A119E228A15A81B8B17A2
:101D30000130D9008A113B238A158030D9008A11DD
:101D40003B238A15D90159088A114E228A15003879
:101D50000319B02ED90ADE008A1148238A15A32E52
:101D6000C030D9008A113B238A15D90159088A113C
:101D700064228A1500380319C32ED90ADE008A119D
:101D800048238A15B62E2D08DA002C08D9008A11AE
:101D9000B5238A15182F5008473C031D182F570BE1
:101DA000182FD001D7012A300C1ED42E99004D30A7
:101DB0000C1ED82E9900A8018B1BA8178B1302307C
:101DC000E2008A119E228A15A81B8B170130D900C8
:101DD0008A113B238A158030D9008A113B238A154A
:101DE000D90159088A1178228A1500380319FE2E64
:101DF000D90ADE008A1148238A15F12EC030D90095
:101E00008A113B238A15D90159088A118C228A1517
:101E100000380319112FD90ADE008A1148238A15C8
:101E2000042F2D08DA002C08D9008A11B5238A1551
:101E30005008463C031D662F580B662FD001D80171
:101E400040300C1E212F99004C300C1E252F99007C
:101E5000A8018B1BA8178B130230E2008A119E2267
:101E60008A15A81B8B170130D9008A113B238A15CC
:101E70008030D9008A113B238A15D90159088A116B
:101E80004E228A15003803194B2FD90ADE008A1119
:101E900048238A153E2FC030D9008A113B238A156A
:101EA000D90159088A1164228A15003803195E2F56
:101EB000D90ADE008A1148238A15512F2D08DA002D
:101EC0002C08D9008A11B5238A15B32F5008473C36
:101ED000031DB32F580BB32FD001D8012A300C1E8D
:101EE0006F2F99004C300C1E732F9900A8018B1B8B
:101EF000A8178B130230E2008A119E228A15A81BB4
:101F00008B170130D9008A113B238A158030D90004
:101F10008A113B238A15D90159088A1178228A151A
:101F200000380319992FD90ADE008A1148238A152F
:101F30008C2FC030D9008A113B238A15D90159084A
:101F40008A118C228A1500380319AC2FD90ADE00B9
:101F50008A1148238A159F2F2D08DA002C08D900F2
:0A1F60008A11B5238A15D728630003
:02400E00323F3F
:00000001FF
;PIC16F877A
