:1000000000308A009B280000FF00030E8301A1003E
:100010000A08A0008A010408A2007708A300780853
:10002000A4007908A5007A08A6007B08A70083131E
:1000300083128C308400801E1F288C1A32282208DC
:1000400084002308F7002408F8002508F900260892
:10005000FA002708FB0020088A00210E8300FF0E0B
:100060007F0E09008A110A1262280A108A100A11EA
:100070008207473452345434203445344D344234AA
:100080004534443444344534443400340A108A102E
:100090000A11820753344F344C34553454344934A4
:1000A0004F344E34533400340A108A100A11820738
:1000B0004C34453444342034413452345234413485
:1000C0005934003428303C0784008C1E65281A08F7
:1000D0008000BC0A3C08063C031D7028BC013D148E
:1000E0008C128A110A121F2840308400000803195C
:1000F00086280330F800F701F70B7C28F80B7B28E3
:100100009530F700F70B8228800B792800343E08E1
:1001100088000910891009150A30C00074200911DF
:1001200000343F0888000914891009150A30C000FE
:1001300074200911003484011F30830511308316A7
:1001400099002230980090308312980083161F1473
:100150009F141F159F1107309C008312BC013D1096
:10016000BD108801890187018316880189018030CB
:10017000870038308312BE0087200630BE008720FB
:100180000C30BE0087200130BE008720C0308B04B9
:1001900083168C1602308312BE009630C000742085
:1001A000BE0BCD288030BE008720BE013E08352022
:1001B00000380319DF28BE0ABF009120D628C030BE
:1001C000BE008720BE013E08462000380319EC28F7
:1001D000BE0ABF009120E3280630BE00FA30C000FE
:1001E0007420BE0BEE280130BE0087203D1C1E2966
:1001F0002808413C031D1D292908423C031D1D29D7
:100200002A08433C031D1D292B08443C031D1D29BE
:100210002C08453C031D1D292D08463C031D1D29A6
:100220008030BE008720BE013E08542000380319EC
:100230001D29BE0ABF00912014293D10F628630035
:00000001FF
;PIC16F877A
