:020000040000FA
:040000005CEF04F0BD
:08000800056ED8CF06F0E0CF31
:1000100007F00001E9CF0DF0EACF08F0E1CF09F0D9
:10002000E2CF0AF0D9CF0BF0DACF0CF0F3CF14F017
:10003000F4CF15F0FACF16F000C00FF001C010F0A9
:1000400002C011F003C012F004C013F0F2AA2CEFAA
:1000500000F0F2B4F5EF01F0A3A032EF00F0A4B08D
:100060006FEF01F00FC000F010C001F011C002F0FE
:1000700012C003F013C004F00DC0E9FF08C0EAFF8E
:1000800009C0E1FF0AC0E2FF0BC0D9FF0CC0DAFFD4
:1000900014C0F3FF15C0F4FF16C0FAFF055007C0E7
:1000A000E0FF06C0D8FF1000F2CF0EF0F29EF76A14
:1000B000C20FF66E000EF7220900F5500EBEF28E4A
:1000C0001200414456414E43454420564548494359
:1000D0004C450000F2CF0EF0F29EF76AEE0FF66E7E
:1000E000000EF7220900F5500EBEF28E1200434FAB
:1000F0004E54524F4C205553494E472052544D00B8
:10010000756B746B736B726B70C077F06FC076F049
:100110007153D8B48BD077C003F076C0E9FF77C0B5
:10012000EAFFEFCF00F0016A026A036A03C075F0CC
:1001300002C074F001C073F000C072F07651D8B400
:100140007707760776C0E9FF77C0EAFFEF507A6B52
:10015000796B786F006A005072137851731379517C
:1001600074137A5175137651D8B47707760776C031
:10017000E9FF77C0EAFFEF50030B7C6F7D6B7E6B6E
:100180007F6B006A016A00507213015073137C5137
:1001900074137D51751376C0E9FF77C0EAFFEF5005
:1001A000E00B7C6F7D6B7E6B7F6B006A7C35016E34
:1001B0007D35026E7E35036E01360236033601361A
:1001C000023603360136023603360136023603366E
:1001D000E00E011600507213015073130250741395
:1001E000035075137651D8B47707760776C0E9FFC8
:1001F00077C0EAFFEF50796B786F006A016A783553
:10020000026E7935036E0236033602360336023645
:10021000033602360336E00E021600507213015008
:10022000731302507413035075134FD0020E765F90
:10023000000E775B76C0E9FF77C0EAFFEF50E00B76
:100240007C6F7D6B7E6B7F6B7F31756F7E31746FE2
:100250007D31736F7C31726F7533743373337233E6
:10026000753374337333723375337433733372335A
:100270007533743373337233070E75177651D8B4F0
:100280007707760776C0E9FF77C0EAFFEF507B6B10
:100290007A6B796B786F7835006E7935016E7A35C7
:1002A000026E7B35036E00360136023603360036A9
:1002B000013602360336F80E001600507213015054
:1002C0007313025074130350751372C000F073C09F
:1002D00001F074C002F075C003F0BAEF01F0A49011
:1002E000646B1C0E636F60AE17D0F10E6F146F6EEF
:1002F0002598A490259074BE2580749E60A40BD090
:10030000000E60B0010E070B006ED8900036F10EA3
:1003100025140010256E1CD00F0150AF15D0F10E22
:100320006F140A096F6E2588A492259074BC2580ED
:10033000749C5051070B070B006ED8900036F10EDD
:1003400025140010256E03D0000E016E48D0000168
:1003500065500F0B246E259A65BC258A259C62B6D4
:10036000258C000E25BC010E716F0F0E706F640E90
:100370006F6FC6D603C01BF002C01AF001C019F09F
:1003800000C018F00F0E676F660E666F656B245025
:10039000655D14E266C0E9FF67C0EAFFEFCF6AF06F
:1003A00064C0EAFF63C0E9FF6AC0EFFF632BD8B403
:1003B000642B662BD8B4672B652BE9D7F10E6F142D
:1003C0006F6E259EA4BE258EA49E25A804D00F0185
:1003D000509F03D00001609E0F01010E016E010EBF
:1003E000266EA490000132EF00F03F82F29432EFCB
:1003F00000F0EA6A530EE96EEF500DE0030E016E55
:10040000006A002EFED7012EFBD7950E006E002E3F
:10041000FED7EF2EF3D7000C50C083FF8490849258
:100420008484010E536EE5DF8494000C52C083FF78
:10043000848084928484010E536EDBDF8494000CEC
:100440004538700B006ED89000361F0E6F140010E8
:100450006F6E6ECF00F0003A0030070B455CF9E19B
:10046000000CC00E70140409706E3F0E7014706E94
:10047000F80E71140209716EC70E71142809716E9D
:10048000719C718EF80E72140509726E729CE5EF04
:1004900002F056C05DF055C05CF05B5252E05CC0AB
:1004A000E9FF5DC0EAFF57C0EFFF5C50D8B45D06BE
:1004B0005C065CC0E9FF5DC0EAFF58C0EFFF5C501E
:1004C000D8B45D065C065CC0E9FF5DC0EAFF595028
:1004D000030BEF6E5CC0E9FF5DC0EAFF59C000F09E
:1004E000003600360036F80E00160050E00BEF1014
:1004F000EF6E5CC0E9FF5DC0EAFFEF500809EF6EE8
:100500005C50D8B45D065C065CC0E9FF5DC0EAFFE4
:1005100059C000F0003A0032070E00160050070BD9
:10052000EF6E5CC0E9FF5DC0EAFF5AC000F0003624
:1005300000360036F80E00160050F80BEF10EF6E84
:100540003FD05CC0E9FF5DC0EAFFEF6A5C50D8B401
:100550005D065C065CC0E9FF5DC0EAFFEF6A5C50C7
:10056000D8B45D065C065CC0E9FF5DC0EAFF57C019
:1005700000F0003A0036E00E00160050E00BEF6E7F
:100580005C50D8B45D065C065CC0E9FF5DC0EAFF64
:1005900057C000F00032003200321F0E001600502B
:1005A0001F0BEF6E5CC0E9FF5DC0EAFF58C000F0B2
:1005B000003A0036E00E00160050E00BEF10EF6E30
:1005C000000C040E456E3CDF4CD7606A9F0E601431
:1005D000606E608460CF50FF739A73980F0E566EF2
:1005E0001B0E556E5A6A596A586A576A010E5B6E3D
:1005F00050DF0F0E566E030E556E5A6A596A586ACE
:10060000576A010E5B6E45DF0F0E566E070E556E74
:100610005A6A596A586A576A010E5B6E3ADF0F0EC2
:10062000566E1F0E556E5A6A596A586A576A010EFD
:100630005B6E2FDF0F0E566E0B0E556E5A6A596A9F
:10064000586A576A010E5B6E24DF0F0E566E556EA8
:100650005A6A596A586A576A010E5B6E1ADF0F0EA2
:10066000566E130E556E5A6A596A586A576A010EC9
:100670005B6E0FDF0F0E566E170E556E5A6A596A73
:10068000586A576A010E5B6E04DF9350FB0B080932
:10069000936E456AD5DE16EF05F0016A026A006ABC
:1006A000036A555002E1545018E0100E566ED8906F
:1006B00052365336003603365550035C02E154502F
:1006C000005C07E35450005ED8A003065550035E5B
:1006D000D88001360236562EEAD70000000C4B6A4D
:1006E0004B6A4B5003081FE3036A4B50470FE96EF8
:1006F000000E0320EA6E46C053F045C052F0556A22
:100700000A0E546ECADF00C0EFFF46C053F045C06A
:1007100052F0556A0A0E546EC0DF02C046F001C0A6
:1007200045F04B2ADED7C00E506E76DE4A503009B7
:100730004C6E526E7BDE495030094C6E526E76DE46
:10074000485030094C6E526E71DE475030094C6E85
:10075000526E6CDE63EF05F00F0E536E660E526E36
:100760000F0140B706D0F10E6F1408096F6E546A7E
:1007700015D030B707D0F10E6F1406096F6E010E59
:10078000546E0CD020B707D0F10E6F1404096F6EB1
:10079000020E546E03D0000E016E3BD04E50030B80
:1007A000006EFC0E60140010606E0F0E566E640E2C
:1007B000556E4AC05AF049C059F048C058F047C079
:1007C00057F04FC05BF0000164DE4DC065FF659CD3
:1007D00050B0658C516A4D50515C14E24BC0E9FF3A
:1007E0004CC0EAFFEFCF57F053C0EAFF52C0E9FF19
:1007F00057C0EFFF522AD8B4532A4B2AD8B44C2AF8
:10080000512AE9D76086F10E6F146F6E010E016EEA
:100810000F0100017CEF05F0486A496A4A6A4B6A99
:100820004C6A4D6A4E6A4F6A4F6A4E6A4F522AE1CD
:100830004E50020827E3D8904E34026E4F34036EB8
:100840000250480FE96E000E0320EA6E47C053F0D5
:1008500046C052F0556A0A0E546E1FDF00C0EFFF0B
:1008600003C0ECFF47C053F046C052F0556A0A0E71
:10087000546E13DF02C047F001C046F04E2AD8B4D0
:100880004F2AD4D7CA0E506EC7DD4C503009506E77
:100890004DC051F0526ECADD4A503009506E4BC007
:1008A00051F0526EC3DD48503009506E49C051F0CE
:1008B000526EBCDDB3EF05F0F86AD09E0D8EFE0ED1
:1008C000006E060E016E020EE96E000EEA6EEF6A11
:1008D000E92AD8B4EA2A002EFAD7012EF8D7EA6A14
:1008E000E96A110EAF6E220EAC6E900EAB6EC18037
:1008F000C182C184C196070EB46E0A0E326E140E08
:10090000336E1E0E346E280E356E320E366E3C0E71
:10091000376E460E386E550E396E640E3A6E780E8E
:100920003B6E080E3C6E3D6A3E6A3F903F92406AC5
:10093000416A3F943F86010E426EC190C182C184DC
:10094000C186C19CC28CC28EC18EC2809698C69A46
:10095000949A94889496000EC66EC76ED190C70E76
:10096000D56ECD6A000ECA6E7C0ECB6EB150480BB0
:10097000B16E070EB46E9650080E006E002EFED7B4
:1009800000000000B450A19CB56AD26AD36AB70EC9
:10099000B11694948B940C0EBD6E0A0E536E29DD25
:1009A000956A966A800E946E170E936E836A846AB7
:1009B000826A816A806A010E926EF16A380E506E08
:1009C0002BDD060E506E28DD0C0E506E25DD010E5F
:1009D000506E22DD800E506E1FDD456A455054EC8E
:1009E00000F0000904E0452A526E20DDF7D7C00E62
:1009F000506E12DD456A45506AEC00F0000904E0D3
:100A0000452A526E13DDF7D7040E456EFA0E536E6B
:100A1000F0DC452EFBD7010E506EFEDC040E456E59
:100A2000FA0E536EE6DC452EFBD7CBD5F28AA380B7
:100A3000C00EF212262C32D0266A1C50360805E170
:100A40001D50300802E1010E3C6E1C50350805E1D6
:100A50001D50300802E1030E3C6E1C50340805E1C5
:100A60001D50300802E1050E3C6E1C50330805E1B4
:100A70001D50300802E1070E3C6E1C50320805E1A3
:100A80001D50300802E1090E3C6E800E506EC4DC31
:100A90001CC052F0CBDC1DC052F0C8DC0A0E536EF5
:100AA000A8DC000E016EC250C70B0110C26EC284DA
:100AB000C2B4FED7C3CF40F0C4CF41F041C046F02E
:100AC00040C045F00CD640C043F041C044F0000E99
:100AD0003FB6010E4F6E000E3FB4010E506E4A6AD3
:100AE000496A486A020E476E4C6A430E4B6E020E0C
:100AF0004D6E42C04EF030D681B806D03F80000E19
:100B00000609CA6E7C0ECB6E81A809D03FA007D023
:100B10003F903D2A3C503D5C02E33CC03DF03FA28B
:100B200022D03F923E2A3E501D081DE23E6A3D50B3
:100B30003C5C01E23D06036A3D50320FE96E000E57
:100B40000320EA6EEFCF45F045C0BEFF036A3D507B
:100B5000320FE96E000E0320EA6EEFCF45F0476AD0
:0A0B600045C046F059D666D70300E1
:020000040030CA
:0E00000000220F0E000081000FC00FE00F4025
:00000001FF
;PIC18F458
