:020000040000FA
:0400000056EF06F0C1
:08000800056ED8CF06F0E0CF31
:1000100007F00001E9CF0DF0EACF08F0E1CF09F0D9
:10002000E2CF0AF0D9CF0BF0DACF0CF0F3CF14F017
:10003000F4CF15F0FACF16F000C00FF001C010F0A9
:1000400002C011F003C012F004C013F0F2AA2CEFAA
:1000500000F0F2B417EF02F0F2A832EF00F0F2B2C3
:1000600032EF04F09DAA38EF00F09EBA0AEF02F0DA
:10007000A3A03EEF00F0A4B077EF01F00FC000F0B6
:1000800010C001F011C002F012C003F013C004F060
:100090000DC0E9FF08C0EAFF09C0E1FF0AC0E2FFA6
:1000A0000BC0D9FF0CC0DAFF14C0F3FF15C0F4FF7A
:1000B00016C0FAFF055007C0E0FF06C0D8FF1000C9
:1000C000F2CF0EF0F29EF76ADA0FF66E000EF7220C
:1000D0000900F5500EBEF28E120041542B434D47DD
:1000E000463D3100F2CF0EF0F29EF76AFE0FF66E3B
:1000F000000EF7220900F5500EBEF28E1200415498
:100100002B434E4D493D312C322C302C302C3000BD
:100110007D6B7C6B7B6B7A6B78C07FF077C07EF0F9
:100120007953D8B48BD07FC003F07EC0E9FF7FC085
:10013000EAFFEFCF00F0016A026A036A03C07DF0B4
:1001400002C07CF001C07BF000C07AF07E51D8B4D0
:100150007F077E077EC0E9FF7FC0EAFFEF50826B1A
:10016000816B806F006A00507A1380517B1381513C
:100170007C1382517D137E51D8B47F077E077EC0E9
:10018000E9FF7FC0EAFFEF50030B846F856B866B3E
:10019000876B006A016A00507A1301507B13845107
:1001A0007C1385517D137EC0E9FF7FC0EAFFEF50CD
:1001B000E00B846F856B866B876B006A8435016EFC
:1001C0008535026E8635036E0136023603360136FA
:1001D000023603360136023603360136023603365E
:1001E000E00E011600507A1301507B1302507C136D
:1001F00003507D137E51D8B47F077E077EC0E9FF90
:100200007FC0EAFFEF50816B806F006A016A803522
:10021000026E8135036E023603360236033602362D
:10022000033602360336E00E021600507A130150F0
:100230007B1302507C1303507D134FD0020E7E5F60
:10024000000E7F5B7EC0E9FF7FC0EAFFEF50E00B4E
:10025000846F856B866B876B87317D6F86317C6F92
:1002600085317B6F84317A6F7D337C337B337A3396
:100270007D337C337B337A337D337C337B337A330A
:100280007D337C337B337A33070E7D177E51D8B4B0
:100290007F077E077EC0E9FF7FC0EAFFEF50836BD8
:1002A000826B816B806F8035006E8135016E823587
:1002B000026E8335036E0036013602360336003691
:1002C000013602360336F80E001600507A1301503C
:1002D0007B1302507C1303507D137AC000F07BC067
:1002E00001F07CC002F07DC003F0C2EF01F0A490E9
:1002F0006C6B1D0E6B6F60AE17D0F10E6F146F6ECE
:100300002698A490269074BE2680749E60A40BD07C
:10031000000E60B0010E070B006ED8900036F10E93
:1003200026140010266E1CD00F0150AF15D0F10E10
:100330006F140A096F6E2688A492269074BC2680DA
:10034000749C5051070B070B006ED8900036F10ECD
:1003500026140010266E03D0000E016E48D0000156
:1003600065500F0B256E269A65BC268A269C62B6C0
:10037000268C000E26BC010E796F0F0E786F640E6E
:10038000776FC6D603C01CF002C01BF001C01AF084
:1003900000C019F00F0E6F6F660E6E6F6D6B2550FB
:1003A0006D5D14E26EC0E9FF6FC0EAFFEFCF72F03F
:1003B0006CC0EAFF6BC0E9FF72C0EFFF6B2BD8B4D3
:1003C0006C2B6E2BD8B46F2B6D2BE9D7F10E6F14FD
:1003D0006F6E269EA4BE268EA49E26A804D00F0172
:1003E000509F03D00001609E0F01010E016E010EAF
:1003F000276EA49000013EEF00F09EAAFED7ABCF7F
:1004000018F0AECF01F018A202D0AB98AB88000074
:1004100011EF02F035C036F034C035F033C034F09F
:10042000ECD701C033F049829E9A3EEF00F0462A95
:10043000452AF2943EEF00F0776B786B010E796FEE
:10044000DA6AD96A7C6B6F0E7B6FEA6A730EE96EAB
:100450007CC0E2FF7BC0E1FF79C07AF0D890E55024
:10046000EE02F3507723F45078237A2FF7D777C032
:10047000DEFF78C077F0786BD8B0782B7B2BD8B4C0
:100480007C2B792B79510508E0E146EF04F0B60E9C
:10049000006E036A026A016A785179117A117B1140
:1004A00002E1006A0DD0D89001BE09D078377937C3
:1004B0007A377B37033602360136002EF4D7019E99
:1004C000000C7851D8B471D0006E7C51D8B46DD086
:1004D000002604E3810E002668E204D07F0E005E51
:1004E00064E363E079C080F07D51801B798F7D8F5C
:1004F0007B517F03F4CF82F07A517E03F4CF03F077
:10050000F3CF81F07F03F3508227F4508123000E54
:1005100003227B517E03F3508227F4508123000E87
:10052000026A0322022279517F03F3508127F4509B
:100530000322000E022279517E03F3500326F45069
:100540000222000E016A01227B517D03F3508127B4
:10055000F4500322000E022201227A517D03F3504F
:100560000326F4500222000E012279517D03F3503C
:100570000226F4500122002A01BE05D0813703363D
:10058000023601360006000E81AF0AD0032A02228D
:100590000122015005E1025003E1035001E1002A6C
:1005A00080BF018E80AF019E04D0006A016A026A9A
:1005B000036A0000000C800ED8B27D1B826B836B37
:1005C00079C081F07D51811B7851D8B4DCD0806F27
:1005D000006E7C51D8B4E0D0805FD8B481D03DE3C8
:1005E0007DC086F0868F7EC085F07FC084F0836BEF
:1005F000D8908633853384338333802FF8D781AF07
:1006000003D08281DDD0829180918289EA6A7B0E5B
:10061000E96EE9D0829981BF0AD080A113D08633D8
:10062000853384338333002AD8B4C5D00BD086BF3A
:100630000CD0D89083378437853786370006D8B4F6
:10064000BAD0F5D7828D6BD0829D79C081F079AF19
:1006500002D0868FA9D0869FA7D07CC080F07CC0B6
:1006600000F07851805F79C086F0868F7AC085F07F
:100670007BC084F0836BD890863385338433833397
:10068000802FF8D781AF03D082839AD08293809154
:10069000828BEA6A7F0EE96EA6D0829B81BF0AD068
:1006A00080A113D08633853384338333002AD8B4B2
:1006B00082D00BD086BF0CD0D89083378437853753
:1006C00086370006D8B477D0F5D7828F28D0829F9E
:1006D0007DC081F07DAF02D0868F66D0869F64D0CA
:1006E0007DC086F0868F7EC085F07FC084F081AFAC
:1006F00004D0869F828564D08295836B8091EA6A5C
:100700007B0EE96E70D081BF1CD079C081F080A1D2
:1007100006D08633853384338333002A4CE083AF9D
:100720000BD0842B09E1852B07E1862B05E186336D
:1007300085338433002A3FE082BD86D782BFC7D786
:100740001CD0800E861B86AF04D03AD07DC081F0CD
:100750000AD079C081F0865306E1855304E18453C1
:1007600002E1006A21D086BF08D0D8908337843751
:1007700085378637002EF7D71ED081AF02D0868FFF
:1007800013D0869F11D07CC000F07DC086F07EC063
:1007900085F07FC084F008D078C000F079C086F082
:1007A0007AC085F07BC084F086C001F085C002F07D
:1007B00084C003F034D0006A016A026A036A2FD051
:1007C000836B841F851F861F831F832B05E1842B6A
:1007D00003E1852B01E1862B82B115D782B356D771
:1007E00082B58AD7B3D7EF50842705E3852B03E181
:1007F000862BD8B48081ED52EF50852703E3862BFA
:10080000D8B48081ED52EF50EFBE01D0800A862728
:10081000D8B0808182B9FED682BB3FD774D70000A2
:1008200090EF04F07851B608786F036A79C07CF0D5
:10083000798FD89079337A337B33033202320132A5
:100840000032782FF6D77CAF0BD0001E011E021E9F
:10085000031E002AD8B4012AD8B4022AD8B4032A25
:10086000A8EF04F0F29A6E6B6D6B6C6B46C06BF088
:100870006EC072F06DC071F06CC070F046C06FF069
:10088000766B756B746B2B0E736FD6D503C06FF0E0
:1008900002C06EF001C06DF000C06CF0736B726B43
:1008A000716BD6CF70F073C07BF072C07AF071C0FC
:1008B00079F0D6CF78F0EBDD03C07BF002C07AF0A0
:1008C00001C079F000C078F0EC0E7F6F510E7E6FA2
:1008D000380E7D6F7D0E7C6FF4DD00C074F001C0BA
:1008E00075F002C076F003C077F06FC07BF06EC089
:1008F0007AF06DC079F06CC078F0C9DDD89203C091
:100900007BF002C07AF001C079F000C078F077C0C7
:100910007FF076C07EF075C07DF074C07CF04BD661
:100920007B6B7A6B2C0E796F860E786F03C07FF02D
:1009300002C07EF001C07DF000C07CF0C2DD03C0CB
:100940007BF002C07AF001C079F000C078F06AD77D
:1009500003C043F002C042F001C041F000C040F0CB
:100960004980F298466AF2923EEF00F04D38700BE3
:10097000006ED89000361F0E6F1400106F6E6ECF91
:1009800000F0003A0030070B4D5CF9E1000CC00E9E
:1009900070140409706E3F0E7014706EF80E7114AE
:1009A0000209716EC70E71142809716E719C718EE7
:1009B000F80E72140509726E729C7BEF05F05EC032
:1009C00065F05DC064F0635352E064C0E9FF65C048
:1009D000EAFF5FC0EFFF6451D8B46507640764C0E5
:1009E000E9FF65C0EAFF60C0EFFF6451D8B4650756
:1009F000640764C0E9FF65C0EAFF6151030BEF6E55
:100A000064C0E9FF65C0EAFF61C000F0003600364F
:100A10000036F80E00160050E00BEF10EF6E64C0C9
:100A2000E9FF65C0EAFFEF500809EF6E6451D8B4E2
:100A30006507640764C0E9FF65C0EAFF61C000F0B4
:100A4000003A0032070E00160050070BEF6E64C02C
:100A5000E9FF65C0EAFF62C000F0003600360036EC
:100A6000F80E00160050F80BEF10EF6E3FD064C088
:100A7000E9FF65C0EAFFEF6A6451D8B4650764070F
:100A800064C0E9FF65C0EAFFEF6A6451D8B4650746
:100A9000640764C0E9FF65C0EAFF5FC000F0003A88
:100AA0000036E00E00160050E00BEF6E6451D8B433
:100AB0006507640764C0E9FF65C0EAFF5FC000F036
:100AC0000032003200321F0E001600501F0BEF6E76
:100AD00064C0E9FF65C0EAFF60C000F0003A00367C
:100AE000E00E00160050E00BEF10EF6E000C040E4D
:100AF0004D6E3CDF4CD7606A9F0E6014606E608460
:100B000060CF50FF739A73980F0E5E6E1B0E5D6E72
:100B1000626B616B606B5F6A010E636F50DF0F0E7B
:100B20005E6E030E5D6E626B616B606B5F6A010EE1
:100B3000636F45DF0F0E5E6E070E5D6E626B616B5D
:100B4000606B5F6A010E636F3ADF0F0E5E6E1F0E01
:100B50005D6E626B616B606B5F6A010E636F2FDFAE
:100B60000F0E5E6E0B0E5D6E626B616B606B5F6A8B
:100B7000010E636F24DF0F0E5E6E5D6E626B616B44
:100B8000606B5F6A010E636F1ADF0F0E5E6E130EED
:100B90005D6E626B616B606B5F6A010E636F0FDF8E
:100BA0000F0E5E6E170E5D6E626B616B606B5F6A3F
:100BB000010E636F04DF9350FB0B0809936E4D6ABF
:100BC000D5DEBDEF06F0EA6A4E0EE96EEF500DE09D
:100BD000030E016E006A002EFED7012EFBD7950E84
:100BE000006E002EFED7EF2EF3D7000C0F0E5B6EBB
:100BF000660E5A6E0F0140B706D0F10E6F14080949
:100C00006F6E5C6A15D030B707D0F10E6F1406090D
:100C10006F6E010E5C6E0CD020B707D0F10E6F1412
:100C200004096F6E020E5C6E03D0000E016E3BD0A5
:100C30005650030B006EFC0E60140010606E0F0E19
:100C40005E6E640E5D6E52C062F051C061F050C0C5
:100C500060F04FC05FF057C063F00001B0DE55C0D8
:100C600065FF659C58B0658C596A5550595C14E213
:100C700053C0E9FF54C0EAFFEFCF5FF05BC0EAFF6B
:100C80005AC0E9FF5FC0EFFF5A2AD8B45B2A532A43
:100C9000D8B4542A592AE9D76086F10E6F146F6EC2
:100CA000010E016E0F0100016AEF07F0F86AD09E95
:100CB0000D8EFE0E006E060E016E020EE96E000E27
:100CC000EA6EEF6AE92AD8B4EA2A002EFAD7012E92
:100CD000F8D7EA6AE96A110EAF6E220EAC6E900E7A
:100CE000AB6EC180C182C184C196070EB46E186A12
:100CF000336A346A356A366A376A386A396A3A6AF0
:100D00003B6A3C6A3D6A3E6A3F6A406A416A426A9F
:100D1000436A446A456A466A476A486A4990499202
:100D200049944986010E4A6ED190C70ED56ECD6AA0
:100D3000B150480BB16E070EB46E9650080E006E9F
:100D4000002EFED700000000B450A19CB56AD26A04
:100D5000D36AB70EB11694948B940C0EBD6E000E30
:100D60000609CA6E7C0ECB6E000E956E969096921A
:100D70009694050E936EF16ABAD6140E4D6EFA0E65
:100D80004E6E21DF4D2EFBD74D6A4D5060EC00F0CA
:100D9000000905E04D2A9EA8FED7AD6EF6D70D0ED0
:100DA0009EA8FED7AD6E0A0E9EA8FED7AD6E040EAD
:100DB0004D6EFA0E4E6E07DF4D2EFBD74D6A4D502D
:100DC00072EC00F0000905E04D2A9EA8FED7AD6E3A
:100DD000F6D70D0E9EA8FED7AD6E0A0E9EA8FED7C2
:100DE000AD6E040E4D6EFA0E4E6EEDDE4D2EFBD73F
:100DF0008192080E006E002EFED700000000818256
:100E0000080E006E002EFED7000000008192080E32
:100E1000006E002EFED700000000F28AA380F28848
:100E20009D8AC00EF212272C18D0276A1DC038F0F8
:100E30001EC039F03B6A39C03AF03AC03BF03A6A1A
:100E40003B50010808E2FF0A03E13A50580803E268
:100E50003C0EBE6E02D0780EBE6E49A24BD04992B7
:100E60003550400847E13450360803E1335030082C
:100E700018E03450350803E13350300812E03450A4
:100E8000340803E1335030080CE03450330803E1F8
:100E90003350300806E0345032082CE1335030082B
:100EA00029E134C04BF033C04CF0000E49B6010EBE
:100EB000576E000E49B4010E586E526A516A506A5C
:100EC000010E4F6E546A4B0E536E020E556E4AC0A1
:100ED00056F08CD634509EA8FED7AD6E33509EA8E7
:100EE000FED7AD6E200E9EA8FED7AD6E200E9EA83A
:100EF000FED7AD6E455002081AE2456A436A426A5F
:100F0000416A406A8192080E006E002EFED70000F2
:100F100000008182080E006E002EFED70000000047
:100F20008192080E006E002EFED70000000049A03E
:100F30001CD0F298F29A499043C03FF042C03EF074
:100F400041C03DF040C03CF0F288F28A3F520AE1D5
:100F50003E5208E13D50580807E2FF0A03E13C50C9
:0E0F6000D70802E2819E01D0818E5DD703008A
:020000040030CA
:0E00000000220F0E000081000FC00FE00F4025
:00000001FF
;PIC18F458
