:1000000000308A0055280000FF00030E8301A10084
:100010000A08A0008A010408A2007708A300780853
:10002000A4007908A5007A08A6007B08A70083131E
:1000300083128B1E1D280B193028220884002308E8
:10004000F7002408F8002508F9002608FA00270818
:10005000FB0020088A00210E8300FF0E7F0E09009E
:100060008A110A123328AA0A2A082B3C031C3B28AF
:10007000AA01A80AA90A0B118A110A121D282B30FD
:1000800084000008031952282330F800F701F70B09
:100090004728F80B4628DB30F700F70B4D28000007
:1000A000800B44288A110A12792884011F308305A5
:1000B00083161F149F141F159F1107309C00831275
:1000C000A801A901AA01880183168801E0308312E2
:1000D0008B008101073083168100831228080A3CB7
:1000E000031D7B2829080A3C031D7B28FA30AB003E
:0C00F0003F280130880083166D28630053
:00000001FF
;PIC16F877A
