:1000000000308A00BF2800000A108A100A118207F7
:10001000483469342034523446344934443400344A
:10002000323084000008031922280330F800F70159
:10003000F70B1828F80B17289530F700F70B1E2838
:10004000800B152800343008880009108910091524
:100050000A30B20010200911003431088800091458
:10006000891009150A30B200102009110034F80176
:10007000F901F701FA013408031D41283308031977
:100080005B281030B5000310B10DB20DF70DFA0D5D
:1000900034087A02031D4E2833087702031C5728C0
:1000A0003308F702031CFA033408FA020314F80DAC
:1000B000F90DB50B432800000034A30123080B3CC5
:1000C000031C7D282430230784002208B200210865
:1000D000B100B4010A30B30037207708800022084D
:1000E000B2002108B100B4010A30B300372079080A
:1000F000A2007808A100A30A5E28C030B000232027
:100100002F083038B000B1002D202E083038B00054
:10011000B1002D202D083038B000B1002D202C0862
:100120003038B000B1002D202B083038B000B100BD
:100130002D202A083038B000B1002D202908303891
:10014000B000B1002D2028083038B000B1002D20BB
:1001500027083038B000B1002D2026083038B00014
:10016000B1002D2025083038B000B1002D20240822
:100170003038B000B1002D208A110A1208298401FC
:100180001F30830583161F149F141F159F110730FE
:100190009C00831288018901831688018901C0307F
:1001A00083128B008C01203083168C0090308312D8
:1001B00098009A01433083169800990138308312D1
:1001C000B00023200630B00023200C30B0002320E4
:1001D0000130B00023200230A1009630B200102080
:1001E000A10BED288030B0002320A10121080420BC
:1001F00000380319FF28A10AB1002D20F6281A089B
:10020000A000FA30B2001020A2012008A1005D2851
:04021000FF28630060
:00000001FF
;PIC16F877A
