:020000040000FA
:040000002EEF05F0EA
:08000800056ED8CF06F0E0CF31
:1000100007F00001E9CF0DF0EACF08F0E1CF09F0D9
:10002000E2CF0AF0D9CF0BF0DACF0CF0F3CF14F017
:10003000F4CF15F0FACF16F000C00FF001C010F0A9
:1000400002C011F003C012F004C013F0A3A02CEF03
:1000500000F0A4B028EF02F00FC000F010C001F0D3
:1000600011C002F012C003F013C004F00DC0E9FF8C
:1000700008C0EAFF09C0E1FF0AC0E2FF0BC0D9FFD8
:100080000CC0DAFF14C0F3FF15C0F4FF16C0FAFF6E
:10009000055007C0E0FF06C0D8FF1000F2CF0EF0F9
:1000A000F29EF76AB60FF66E000EF7220900F550C1
:1000B0000EBEF28E120041542B434D47463D310097
:1000C000F2CF0EF0F29EF76ADA0FF66E000EF7220C
:1000D0000900F5500EBEF28E120041542B434E4DD6
:1000E000493D312C322C302C302C3000F2CF0EF028
:1000F000F29EF76A060FF66E010EF7220900F55020
:100100000EBEF28E120043414E2042415345442020
:100110004D4F4E490000F2CF0EF0F29EF76A300FBD
:10012000F66E010EF7220900F5500EBEF28E120097
:100130004641554C5420444941474E4F535449433E
:100140005300F2CF0EF0F29EF76A5C0FF66E010ECE
:10015000F7220900F5500EBEF28E1200543A00004C
:10016000F2CF0EF0F29EF76A7A0FF66E010EF722CA
:100170000900F5500EBEF28E1200563A0000F2CF82
:100180000EF0F29EF76A980FF66E010EF722090044
:10019000F5500EBEF28E1200533A0000F2CF0EF070
:1001A000F29EF76AB60FF66E010EF7220900F550BF
:1001B0000EBEF28E12004F3A0000F2CF0EF0F29E09
:1001C000F76AD40FF66E010EF7220900F5500EBE45
:1001D000F28E120041542B434D47533D22383035A7
:1001E00036333038383331220000F2CF0EF0F29E31
:1001F000F76A040FF66E020EF7220900F5500EBEE4
:10020000F28E1200535045454400F2CF0EF0F29E9C
:10021000F76A240FF66E020EF7220900F5500EBEA3
:10022000F28E120054454D500000F2CF0EF0F29EB7
:10023000F76A440FF66E020EF7220900F5500EBE63
:10024000F28E12004F494C204C4556454C00F2CFDF
:100250000EF0F29EF76A680FF66E020EF7220900A2
:10026000F5500EBEF28E1200564942524154494F8B
:100270004E00686B676B666B656B63C06AF062C04B
:1002800069F06453D8B48BD06AC003F069C0E9FF49
:100290006AC0EAFFEFCF00F0016A026A036A03C096
:1002A00068F002C067F001C066F000C065F06951F7
:1002B000D8B46A07690769C0E9FF6AC0EAFFEF506E
:1002C0006D6B6C6B6B6F006A005065136B5166133E
:1002D0006C5167136D5168136951D8B46A07690787
:1002E00069C0E9FF6AC0EAFFEF50030B6F6F706BE4
:1002F000716B726B006A016A0050651301506613DE
:100300006F5167137051681369C0E9FF6AC0EAFF53
:10031000EF50E00B6F6F706B716B726B006A6F3533
:10032000016E7035026E7135036E0136023603368A
:1003300001360236033601360236033601360236FE
:100340000336E00E0116005065130150661302508B
:100350006713035068136951D8B46A07690769C005
:10036000E9FF6AC0EAFFEF506C6B6B6F006A016ACD
:100370006B35026E6C35036E023603360236033679
:100380000236033602360336E00E021600506513BD
:100390000150661302506713035068134FD0020ECA
:1003A000695F000E6A5B69C0E9FF6AC0EAFFEF504F
:1003B000E00B6F6F706B716B726B7231686F7131C4
:1003C000676F7031666F6F31656F6833673366339F
:1003D0006533683367336633653368336733663351
:1003E00065336833673366336533070E68176951C1
:1003F000D8B46A07690769C0E9FF6AC0EAFFEF502D
:100400006E6B6D6B6C6B6B6F6B35006E6C35016E6C
:100410006D35026E6E35036E0036013602360336D8
:100420000036013602360336F80E0016005065130A
:1004300001506613025067130350681365C000F043
:1004400066C001F067C002F068C003F073EF02F00D
:10045000A490576A1C0E566E60AE17D0F10E6F1442
:100460006F6E2598A490259074BE2580749E60A41C
:100470000BD0000E60B0010E070B006ED890003656
:10048000F10E25140010256E1CD00F0150AF15D0B1
:10049000F10E6F140A096F6E2588A492259074BC22
:1004A0002580749C5051070B070B006ED8900036C6
:1004B000F10E25140010256E03D0000E016E48D0F9
:1004C000000165500F0B246E259A65BC258A259C7A
:1004D00062B6258C000E25BC010E646F0F0E636F93
:1004E000640E626FC6D603C01BF002C01AF001C0D2
:1004F00019F000C018F00F0E5A6E660E596E586A49
:100500002450585C14E259C0E9FF5AC0EAFFEFCF0B
:100510005DF057C0EAFF56C0E9FF5DC0EFFF562A05
:10052000D8B4572A592AD8B45A2A582AE9D7F10EEA
:100530006F146F6E259EA4BE258EA49E25A804D0A0
:100540000F01509F03D00001609E0F01010E016E4C
:10055000010E266EA49000012CEF00F0EA6A4A0E0C
:10056000E96EEF500DE0030E016E006A002EFED71B
:10057000012EFBD7950E006E002EFED7EF2EF3D77F
:10058000000C48C083FF849084928484010E4A6EDC
:10059000E5DF8494000C49C083FF848084928484C6
:1005A000010E4A6EDBDF8494000C4838700B006E3D
:1005B000D89000361F0E6F1400106F6E640E4A6ED6
:1005C000CDDF000CC00E70140409706E3F0E701465
:1005D000706EF80E71140209716EC70E711428093D
:1005E000716E719C718EF80E72140509726E729C98
:1005F00096EF03F049C050F048C04FF04E5252E021
:100600004FC0E9FF50C0EAFF4AC0EFFF4F50D8B4D7
:1006100050064F064FC0E9FF50C0EAFF4BC0EFFF46
:100620004F50D8B450064F064FC0E9FF50C0EAFF04
:100630004C50030BEF6E4FC0E9FF50C0EAFF4CC0B7
:1006400000F0003600360036F80E00160050E00BC1
:10065000EF10EF6E4FC0E9FF50C0EAFFEF500809FE
:10066000EF6E4F50D8B450064F064FC0E9FF50C050
:10067000EAFF4CC000F0003A0032070E00160050AE
:10068000070BEF6E4FC0E9FF50C0EAFF4DC000F00E
:10069000003600360036F80E00160050F80BEF104A
:1006A000EF6E3FD04FC0E9FF50C0EAFFEF6A4F50F6
:1006B000D8B450064F064FC0E9FF50C0EAFFEF6ABA
:1006C0004F50D8B450064F064FC0E9FF50C0EAFF64
:1006D0004AC000F0003A0036E00E00160050E00B71
:1006E000EF6E4F50D8B450064F064FC0E9FF50C0D0
:1006F000EAFF4AC000F00032003200321F0E00163E
:1007000000501F0BEF6E4FC0E9FF50C0EAFF4BC017
:1007100000F0003A0036E00E00160050E00BEF103B
:10072000EF6E000C040E486E40DF4CD7606A9F0EDF
:100730006014606E608460CF50FF739A73980F0EE0
:10074000496E1B0E486E4D6A4C6A4B6A4A6A010E2E
:100750004E6E50DF0F0E496E030E486E4D6A4C6AA6
:100760004B6A4A6A010E4E6E45DF0F0E496E070E48
:10077000486E4D6A4C6A4B6A4A6A010E4E6E3ADF09
:100780000F0E496E1F0E486E4D6A4C6A4B6A4A6ADC
:10079000010E4E6E2FDF0F0E496E0B0E486E4D6A26
:1007A0004C6A4B6A4A6A010E4E6E24DF0F0E496E88
:1007B000486E4D6A4C6A4B6A4A6A010E4E6E1ADFE9
:1007C0000F0E496E130E486E4D6A4C6A4B6A4A6AA8
:1007D000010E4E6E0FDF0F0E496E170E486E4D6AFA
:1007E0004C6A4B6A4A6A010E4E6E04DF9350FB0B53
:1007F0000809936E486AD9DEFFEF05F048504A02B7
:10080000F3CF01F0F4CF00F04B02F3500026495033
:100810004A02F3500020026E000C485212E1496A6D
:100820004950CBDC000905E0492A9EA8FED7AD6EF1
:10083000F7D70D0E9EA8FED7AD6E0A0E9EA8FED766
:10084000AD6E496A4950E1DC000905E0492A9EA8DD
:10085000FED7AD6EF7D70D0E9EA8FED7AD6E0A0E71
:100860009EA8FED7AD6E35503009496E49509EA8FE
:10087000FED7AD6E34503009496E49509EA8FED760
:10088000AD6E33503009496E49509EA8FED7AD6E0B
:1008900032503009496E49509EA8FED7AD6E1A0EEF
:1008A0009EA8FED7AD6E64EF06F0485212E1496A89
:1008B000495083DC000905E0492A9EA8FED7AD6EA9
:1008C000F7D70D0E9EA8FED7AD6E0A0E9EA8FED7D6
:1008D000AD6E496A4950BBDC000905E0492A9EA873
:1008E000FED7AD6EF7D70D0E9EA8FED7AD6E0A0EE1
:1008F0009EA8FED7AD6E41503009496E49509EA862
:10090000FED7AD6E40503009496E49509EA8FED7C3
:10091000AD6E3F503009496E49509EA8FED7AD6E6E
:100920003E503009496E49509EA8FED7AD6E1A0E52
:100930009EA8FED7AD6EC2EF06F0485212E1496A9A
:1009400049503BDC000905E0492A9EA8FED7AD6E60
:10095000F7D70D0E9EA8FED7AD6E0A0E9EA8FED745
:10096000AD6E496A495041DC000905E0492A9EA85C
:10097000FED7AD6EF7D70D0E9EA8FED7AD6E0A0E50
:100980009EA8FED7AD6E39503009496E49509EA8D9
:10099000FED7AD6E38503009496E49509EA8FED73B
:1009A000AD6E37503009496E49509EA8FED7AD6EE6
:1009B00036503009496E49509EA8FED7AD6E1A0ECA
:1009C0009EA8FED7AD6E23EF07F0485213E1496AA7
:1009D0004950DDEC00F0000905E0492A9EA8FED749
:1009E000AD6EF6D70D0E9EA8FED7AD6E0A0E9EA870
:1009F000FED7AD6E496A495018DC000905E0492A66
:100A00009EA8FED7AD6EF7D70D0E9EA8FED7AD6E91
:100A10000A0E9EA8FED7AD6E3D503009496E495072
:100A20009EA8FED7AD6E3C503009496E49509EA835
:100A3000FED7AD6E3B503009496E49509EA8FED797
:100A4000AD6E3A503009496E49509EA8FED7AD6E42
:100A50001A0E9EA8FED7AD6E84EF07F0F86AD09EFE
:100A60000D8EFE0E006E060E016E020EE96E000E79
:100A7000EA6EEF6AE92AD8B4EA2A002EFAD7012EE4
:100A8000F8D7EA6AE96A110EAF6E220EAC6E900ECC
:100A9000AB6EC180C182C184C196070EB46E326A4A
:100AA000336A346A356A366A376A386A396A3A6A42
:100AB0003B6A3C6A3D6A3E6A3F6A406A416A4290CC
:100AC0004292428442864288428A436A446A429CF5
:100AD000428E010E456E466A476A9698C69A949A67
:100AE00094889496000EC66EC76ED190070EB46EB1
:100AF0009650080E006E002EFED700000000B45085
:100B0000A19CB56AD26AD36A0A0E4A6E27DD956A3D
:100B1000966A800E946E170E936E836A846A826A58
:100B2000816A806A926AF16A380E486E2ADD060E82
:100B3000486E27DD0C0E486E24DD010E486E21DD67
:100B4000020E4A6E0BDD486A48504EEC00F0000978
:100B500005E0482A9EA8FED7AD6EF6D70D0E9EA8DA
:100B6000FED7AD6E0A0E9EA8FED7AD6E040E486E7F
:100B7000FA0E4A6EF3DC482EFBD7486A485060EC08
:100B800000F0000905E0482A9EA8FED7AD6EF6D712
:100B90000D0E9EA8FED7AD6E0A0E9EA8FED7AD6EB6
:100BA000040E486EFA0E4A6ED9DC482EFBD7800E32
:100BB000486EE7DC486A485076EC00F0000904E033
:100BC000482A496EE8DCF7D7C00E486EDADC486A7E
:100BD00048508BEC00F0000904E0482A496EDBDC49
:100BE000F7D7080E486EFA0E4A6EB8DC482EFBD7CF
:100BF000010E486EC6DC020E4A6EB0DC93D50A0EBA
:100C00004A6EACDC800E486EBCDCA380C00EF212D3
:100C1000262C7AD1266A182C58D0195256E11A522D
:100C200054E11B5252E11CC032F01DC033F01EC013
:100C300034F01FC035F0C00E486EA3DC486A48503F
:100C4000A1EC00F0000904E0482A496EA4DCF7D7C3
:100C500035503009486E496E9EDC34503009486E7C
:100C6000496E99DC33503009486E496E94DC32503D
:100C70003009486E496E8FDC496A35C048F0030E72
:100C80004B6EE80E4A6EBADD3450640DF350012409
:100C90004A6E000E02204B6E33500A0DF3504A2468
:100CA0004C6E000E4B204D6E32504C24466E000EA2
:100CB0004D20476E475203E14650270805E242A403
:100CC00003D04294486AA9D51FD1185002085BE1AD
:100CD000195259E11A5257E11B5255E11CC03EF01E
:100CE0001DC03FF01EC040F01FC041F0C80E486E4E
:100CF00048DC486A4850B0EC00F0000904E0482A9B
:100D0000496E49DCF7D741503009486E496E43DCE3
:100D100040503009486E496E3EDC3F503009486E05
:100D2000496E39DC3E503009486E496E34DC496A00
:100D300041C048F0030E4B6EE80E4A6E5FDD405036
:100D4000640DF35001244A6E000E02204B6E3F509A
:100D50000A0DF3504A244C6E000E4B204D6E3E504F
:100D60004C24466E000E4D20476E475000080AE2A4
:100D7000FF0A03E146503F0805E242A603D042863F
:100D8000486A93D5C1D0185003085EE119525CE15E
:100D90001A525AE11B5258E11CC036F01DC037F000
:100DA0001EC038F01FC039F0800E486EC1EC02F052
:100DB000486A4850BFEC00F0000905E0482A496E37
:100DC000CBEC02F0F6D739503009486E496ECBECC7
:100DD00002F038503009486E496ECBEC02F03750C3
:100DE0003009486E496ECBEC02F036503009486E3F
:100DF000496ECBEC02F0496A39C048F0030E4B6EE5
:100E0000E80E4A6EFBDC3850640DF35001244A6E44
:100E1000000E02204B6E37500A0DF3504A244C6EE0
:100E2000000E4B204D6E36504C24466E000E4D2069
:100E3000476E475203E14650270805E242AA03D015
:100E4000429A486A7AD560D0185004085DE1195278
:100E50005BE11A5259E11B5257E11CC03AF01DC028
:100E60003BF01EC03CF01FC03DF0880E486EC1EC48
:100E700002F0486A4850CEEC00F0000905E0482A2C
:100E8000496ECBEC02F0F6D73D503009486E496E02
:100E9000CBEC02F03C503009486E496ECBEC02F0CE
:100EA0003B503009486E496ECBEC02F03A503009A5
:100EB000486E496ECBEC02F0496A3DC048F0030E23
:100EC0004B6EE80E4A6E9ADC3C50640DF3500124E0
:100ED0004A6E000E02204B6E3B500A0DF3504A241E
:100EE0004C6E000E4B204D6E3A504C24466E000E58
:100EF0004D20476E475203E14650270805E242A8BD
:100F000003D04298486A61D5640E4A6EAEEC02F096
:100F1000240E9EA8FED7AD6E32503009486E485060
:100F20009EA8FED7AD6E33503009486E48509EA83B
:100F3000FED7AD6E34503009486E48509EA8FED79B
:100F4000AD6E35503009486E48509EA8FED7AD6E44
:100F500036503009486E48509EA8FED7AD6E3750C7
:100F60003009486E48509EA8FED7AD6E3850300903
:100F7000486E48509EA8FED7AD6E39503009486E75
:100F800048509EA8FED7AD6E3A503009486E485082
:100F90009EA8FED7AD6E3B503009486E48509EA8C3
:100FA000FED7AD6E3C503009486E48509EA8FED723
:100FB000AD6E3D503009486E48509EA8FED7AD6ECC
:100FC0003E503009486E48509EA8FED7AD6E3F5047
:100FD0003009486E48509EA8FED7AD6E405030098B
:100FE000486E48509EA8FED7AD6E41503009486EFD
:100FF00048509EA8FED7AD6E230E9EA8FED7AD6EBC
:10100000040E486EFA0E4A6EAEEC02F0482EFAD785
:0C1010000D0E9EA8FED7AD6EFBD50300B0
:020000040030CA
:0E00000000220F0E000081000FC00FE00F4025
:00000001FF
;PIC18F458
