:1000000000308A00F8280000FF00030E8301A100E1
:100010000A08A0008A010408A2007708A300780853
:10002000A4007908A5007A08A6007B08A70083131E
:1000300083128C308400801C1F288C1832282208E0
:1000400084002308F7002408F8002508F900260892
:10005000FA002708FB0020088A00210E8300FF0E0B
:100060007F0E09008A110A1259280A108A100A11F3
:10007000820753344534523456344F3420344D348F
:100080004F3454344F34523400340A108A100A1159
:1000900082072A342A342A342A34543445345334D7
:1000A00054342A342A342A342A342A342A342A3436
:1000B0000034AA0AAB0A2A080A3C031D7528AA01C3
:1000C000AB01311C861331188617321C0613321807
:1000D0000617331C861233188616341C0610341883
:1000E0000614351C0710351807142B082C020319A9
:1000F00086132B082D02031906132B082E02031951
:1001000086122B082F02031906102B083002031940
:1001100007108C108A110A121F283830840000083A
:1001200003199F280330F800F701F70B9528F80B07
:1001300094289530F700F70B9B28800B9228003409
:10014000360888000910891009150130B8008D2083
:10015000091100343830B600A0200A30B8008D20D4
:100160000630B600A0200A30B8008D200C30B60052
:10017000A0200A30B8008D200130B600A0200A303F
:10018000B8008D208A110A122A293708880009141C
:10019000891009150130B8008D2009110034360B83
:1001A000D5283808B1003708AC003608023C031DDA
:1001B000DD283808B2003708AD003608033C031DBF
:1001C000E5283808B3003708AE003608043C031DA4
:1001D000ED283808B4003708AF003608053C031D89
:1001E000F5283808B5003708B0008A110A128429AA
:1001F00084011F30830583161F149F141F159F1140
:1002000007309C008312A8012910A9102911A911F7
:10021000AA01AB011E308316860083128601831665
:10022000880183128601890183168901870183125F
:10023000870183168113C03083128B0483168C14BC
:100240000030F8000538831292008A30831692003D
:100250008312AA280A30B8008D208030B600A02072
:10026000B60136083520003803193A29B60AB70016
:10027000C5203129C030B600A020B601360845207F
:10028000003803194729B60AB700C5203E29861849
:1002900054290230B6009630B8008D20B60B4B2999
:1002A0002914A9102911A911061961290230B600D3
:1002B0009630B8008D20B60B58292910A9142911A1
:1002C000A91186196E290230B6009630B8008D202B
:1002D000B60B65292910A9102915A911061A7B2921
:1002E0000230B6009630B8008D20B60B7229291066
:1002F000A9102911A915291C84290130B60009303B
:0C030000B7000130B800CF284729630087
:00000001FF
;PIC16F877A
