:1000000000308A004A2900000A108A100A1182076B
:1000100028340C34013406340A108A100A1182077D
:100020004734523454342034573445344C344334F8
:100030004F344D3445345334203455340034233058
:1000400084000008031931280330F800F701F70B8A
:100050002728F80B26289530F700F70B2D28800B62
:10006000242800342A1836280710372807142010AF
:100070002008831687008312AA1840288710412879
:100080008714A01020088316870083122A194A2893
:1000900007114B28071520112008831687008312AB
:1000A000AA195428871155288715A01120088316EE
:1000B000870000008312A012200883168700831295
:1000C000871600000000000000000000A0122008B9
:1000D00083168700831287120034AB01A012200818
:1000E00083168700831287160000201420088316C9
:1000F0008700831207187E282B107F282B14A0144A
:10010000200883168700831287188828AB10892857
:10011000AB14201520088316870083120719922834
:100120002B1193282B15A015200883168700831206
:1001300087199C28AB119D28AB15A01220088316A7
:100140008700831287122B08F80000342012200841
:10015000831687008312071200006D207808AA001A
:100160006D207808A9002A0EF700F030F70577080F
:100170002904F8007808A900A91BAC28A7080319CE
:10018000C828201220088316870083120716CE285D
:100190002012200883168700831207120000000037
:1001A000A01220088316870083128712280EA90048
:1001B0000F30A9052908AA00322028080F39A90004
:1001C000AA003220003420122008831687008312F0
:1001D0000712A012200883168700831287120F309F
:1001E000A3001F20A1012108023C031CFF280330AB
:1001F000AA0032200530A3001F20A10AF3280230F4
:10020000AA003220A1012108033C031C1029210867
:100210000420A200A7012208A800A620A10A032901
:100220008A110A125C2922080C3A03191E29063A7F
:1002300003192629023A03193C294129A701013053
:10024000A800A6200230A3001F2047290130A300E8
:100250000230A400240B2D2930298030A50031293B
:10026000A50101302302A50725088038A600A701B3
:100270002608A800A6204729A7011030A800A6201C
:1002800047290130A7002208A800A62047298A1183
:100290000A12682984011F30830583161F149F14D6
:1002A0001F159F1107309C00FF308312A00083169A
:1002B000870183128701E3286430A3001F20A10176
:1002C00021080C20003803196929A10AA20013296A
:0602D000602969296300AA
:00000001FF
;PIC16F876A
