:1000000000308A0034290000FF00030E8301A100A4
:100010000A08A0008A010408A2007708A300780853
:10002000A4007908A5007A08A6007B08A70083131E
:1000300083128B1E1D280B193028220884002308E8
:10004000F7002408F8002508F9002608FA00270818
:10005000FB0020088A00210E8300FF0E7F0E09009E
:100060008A110A128C280A108A100A1182074D344C
:1000700069346E34743400340A108A100A1182070D
:1000800053346534633400340A108A100A1182072D
:10009000703461347334733477346F34723464344D
:1000A00000340A108A100A1182072A3400340A1018
:1000B0008A100A11820750346134733473347734F0
:1000C0006F347234643420344D34613474346334A6
:1000D000683400340A108A100A1182072A342A343C
:1000E0002A342A342A342A342A342A3400340A108E
:1000F0008A100A11820750346134733473347734B0
:100100006F347234643420344534723472346F3452
:100110007234203420340034B60A36082A3C0318DE
:100120009328B601B70A37083A3C03189928B70153
:10013000B80A3808003C0318A028B8010130B500FF
:100140000B118A110A121D2843308400000803197C
:10015000B6280330F800F701F70BAC28F80BAB28F2
:100160009530F700F70BB228800BA928003441081E
:1001700088000910891009150130C300A420091155
:100180000034420888000914891009150130C300A1
:10019000A420091100344308F80142020318D328AF
:1001A0004208F700DF28F7010830C400C20DF70D40
:1001B000430877020318F700F80DC40BD628003463
:1001C000BE01BE013E08013C031CF9283F303E073A
:1001D00084003D08C2000A30C300CB2077088000AD
:1001E0003D08C2000A30C300CB207808BD00BE0A1B
:1001F000E228BA01C630C100B72040083038C1003B
:10020000C200C1203F083038C100C200C1208A119D
:100210000A129829BE01BE013E08013C031C232995
:100220003F303E0784003D08C2000A30C300CB20A7
:10023000770880003D08C2000A30C300CB20780850
:10024000BD00BE0A0C29BA01C030C100B720400869
:100250003038C100C200C1203F083038C100C200A0
:10026000C1208A110A129B2984011F30830583163D
:100270001F149F141F159F1107309C008312A801A3
:10028000A901AA01AB01AC01AD01AE01AF01B00102
:10029000B101B201B301B401B501B601B701B801B2
:1002A000B901BA01BB013C14BC143C1186018801A0
:1002B000870189011E308316860088018701890124
:1002C00007308100A03083128B0081013830C100DB
:1002D000B7200630C100B7200C30C100B720013074
:1002E000C100B7200A30C300A420CA30BB003C1CA8
:1002F000A8293C19A8298030C100B720BD013D08BC
:100300003320003803198829BD0AC200C1207F2983
:100310008530C100B720BD013D083C2000380319DD
:100320009529BD0AC200C1208C293708BD00E028EC
:100330003808BD000A298A30C100B720BD013D0838
:10034000442000380319A829BD0AC200C1209F29F2
:100350008618D7290230BD009630C300A420BD0BFB
:10036000AC29293028078400013080003B08C100F7
:10037000B72029302807840000083038BE00C200AA
:10038000C1200230BD00FA30C300A420BD0BC32938
:100390003B08C100B720BD013D08512000380319BA
:1003A000D529BD0AC200C120CC29A80ABB0A06195A
:1003B000062A0230BD009630C300A420BD0BDB2905
:1003C000293028078400023080003B08C100B72094
:1003D00029302807840000083038BE00C200C12040
:1003E0000230BD00FA30C300A420BD0BF2293B0847
:1003F000C100B720BD013D08512000380319042A6F
:10040000BD0AC200C120FB29A80ABB0A8619352AE9
:100410000230BD009630C300A420BD0B0A2A29304B
:1004200028078400033080003B08C100B720293032
:100430002807840000083038BE00C200C120023006
:10044000BD00FA30C300A420BD0B212A3B08C10027
:10045000B720BD013D08512000380319332ABD0AD9
:10046000C200C1202A2AA80ABB0A061A642A02303E
:10047000BD009630C300A420BD0B392A29302807BF
:100480008400043080003B08C100B72029302807D1
:10049000840000083038BE00C200C1200230BD0018
:1004A000FA30C300A420BD0B502A3B08C100B7207E
:1004B000BD013D08512000380319622ABD0AC2005F
:1004C000C120592AA80ABB0A2808033C03186B2A32
:1004D000A8010130B400290B9C2A2A08023C031D04
:1004E0009C2A2B08033C031D9C2A2C08043C031D5A
:1004F0009C2A340B9C2A0130C100B7208030C100F7
:10050000B720BD013D085720003803198B2ABD0ACA
:10051000C200C120822A3C100130BA00B401BC14D0
:1005200087140715FA30C300A420A901AA01AB0162
:10053000AC01B701B801B501350BA02A3C18A22ABD
:10054000340BC32ABA013C15B4018715B501C0307C
:10055000C100B720BD013D086A2000380319B42A44
:10056000BD0AC200C120AB2A871007118030C1002C
:10057000B720BD013D08772000380319C32ABD0A02
:0A058000C200C120BA2A77296300E7
:02400E00FA3F77
:00000001FF
;PIC16F877A
