:1000000000308A006D290000FF00030E8301A1006B
:100010000A08A0008A010408A2007708A300780853
:10002000A4007908A5007A08A6007B08A70083131E
:1000300083128B1E1D280B193028220884002308E8
:10004000F7002408F8002508F9002608FA00270818
:10005000FB0020088A00210E8300FF0E7F0E09009E
:100060008A110A1280280A108A100A118207413464
:10007000553454344F344D3441345434493443347A
:1000800020344234553452344E34453452340034E2
:100090000A108A100A118207203420342034533485
:1000A00059345334543445344D34203420342034BE
:1000B00000340A108A100A11820754345F3448341D
:1000C0003A344D343A3453343A3400340A108A10F6
:1000D0000A1182074234553452344E3449344E3476
:1000E00047342034503452344F344334453453343D
:1000F000533400340A108A100A1182073A3400344B
:10010000A80A28082A3C03189828A801A90A29083F
:100110003B3C03188D28A901AA0A2A083B3C031876
:100120009328AA01AB0A2B080B3C03189828AB01B3
:100130000B118A110A121D2832308400000803199D
:10014000AE280330F800F701F70BA428F80BA3281A
:100150009530F700F70BAA28800BA128003430084F
:1001600088000910891009150130B2009C2009117E
:100170000034310888000914891009150130B200D3
:100180009C20091100343208F80131020318CB28F1
:100190003108F700D728F7010830B300B10DF70D8B
:1001A000320877020318F700F80DB30BCE2800349D
:1001B000AD012D08013C031CF0282E302D078400D2
:1001C0002C08B1000A30B200C320770880002C0848
:1001D000B1000A30B200C3207808AC00AD0AD928BB
:1001E0008E30B000AF202F083038B000B100B920F9
:1001F0002E083038B000B100B920C830B2009C20C1
:100200008A110A12D529AD012D08013C031C1B29B6
:100210002E302D0784002C08B1000A30B200C32014
:10022000770880002C08B1000A30B200C32078089B
:10023000AC00AD0A04298B30B000AF202F08303855
:10024000B000B100B9202E083038B000B100B9209C
:10025000B00130087A20003803193229B00AB10001
:10026000B9202929C830B2009C208A110A12D82945
:10027000AD012D08013C031C50292E302D078400B0
:100280002C08B1000A30B200C320770880002C0887
:10029000B1000A30B200C3207808AC00AD0A392999
:1002A0008830B000AF202F083038B000B100B9203E
:1002B0002E083038B000B100B920B00130087A20E3
:1002C000003803196729B00AB100B9205E29C83087
:1002D000B2009C208A110A12DB2984011F30830599
:1002E00083161F149F141F159F1107309C00831243
:1002F000A801A901AA01AB010F3083168600831261
:100300008601831688018312880183168701831270
:1003100087018316890183128901C0308B00073061
:1003200083168100831281018B123830B000AF2018
:100330000C30B000AF200630B000AF206430B20007
:100340009C208030B000AF20AC012C083320003856
:100350000319AE29AC0AB100B920A529C030B000FC
:10036000AF20AC012C08482000380319BB29AC0A87
:10037000B100B920B2290830AC00FA30B2009C209C
:10038000AC0BBD290130B000AF208030B000AF20F1
:10039000AC012C08592000380319D229AC0AB1004D
:1003A000B920C9292908AC00D8282A08AC0003299B
:1003B0002B08AC0038290618DF298B16071486197C
:1003C000F62929082C3C0318F6290619F6290710E6
:1003D0008714C030B000AF20AC012C086620003874
:1003E0000319F629AC0AB100B920ED29C52963002B
:02400E00323F3F
:00000001FF
;PIC16F877A
