:1000000008308A0000280000FF00030E8301A100D1
:100010000A08A0008A010408A2007708A300780853
:10002000A4007908A5007A08A6007B08A70083131E
:1000300083128B1D1D280B1836288C308400801EDF
:1000400023288C1A3928220884002308F700240862
:10005000F8002508F9002608FA002708FB00200808
:100060008A00210E8300FF0E7F0E09008A110A12FA
:10007000E62A8A110A12482B0A108A100A118207EE
:1000800020342034203450344C34453441345334FB
:100090004534203445344E345434453452342034BD
:1000A000203400340A108A100A11820720342034C8
:1000B000203459344F345534523420344334483486
:1000C0004F344934433445345334203420342034BD
:1000D000203400340A108A100A1182074D344F343C
:1000E000503400340A108A100A1182074B342E341F
:1000F00041343A3400340A108A100A11820743341A
:100100004C34413453345334203452344F344F340C
:100110004D3400340A108A100A1182074B342E34F1
:1001200042343A3400340A108A100A1182074C34DF
:1001300049344234523441345234593400340A1070
:100140008A100A1182074B342E3443343A34003477
:100150000A108A100A118207433441344E34543451
:10016000453445344E3400340A108A100A1182078F
:100170004B342E3444343A3400340A108A100A11B5
:10018000820748344F345334543445344C340034AB
:100190000A108A100A1182074B342E3445343A343F
:1001A00000340A108A100A118207423441344E3456
:1001B0004B34533400340A108A100A118207433436
:1001C0004C34413453345334203452344F344F344C
:1001D0004D343A3400340A108A100A11820744342C
:1001E000493456345934413420344934533420345A
:1001F000503452344534533445344E34543400343E
:100200000A148A100A118207523441344D34593489
:10021000413420344934533420345034523445343A
:10022000533445344E34543400340A148A100A11BD
:1002300082074C34493442345234413452345934B4
:100240003A3400340A148A100A11820744345534AF
:10025000453453343A34523453342E3431343034F8
:10026000303400340A148A100A118207573441349A
:100270004E345434203454344F34203450344134C8
:10028000593400340A148A100A11820720342034A9
:100290004E344F34203444345534453453342034B0
:1002A000203400340A148A100A11820741344D3474
:1002B0004F3455344E34543420345034413449345E
:1002C000443400340A148A100A118207433441343A
:1002D0004E345434453445344E343A3400340A14E0
:1002E0008A100A1182074234593420344434493484
:1002F00056345934413400340A148A100A118207E2
:10030000423459342034523441344D345934413418
:1003100000340A148A100A11820748344F345334C7
:10032000543445344C343A3400340A148A100A11D7
:100330008207423441344E344B3453343A3400341F
:100340000A148A100A1182075334423449342D3476
:100350004B342E34363400340A148A100A118207C2
:1003600048344434463443342D344B342E343734FB
:1003700000340A148A100A118207493442342D3499
:100380004B342E34383400340A148A100A11820790
:100390004234323400340A148A100A11820720349D
:1003A00048344434463443342034423441344E34A7
:1003B0004B342034483441345334203442344534AF
:1003C00045344E34203400340A148A100A1182074E
:1003D00020342034203420342034533445344C34F9
:1003E00045344334543445344434203420342034A8
:1003F0002034003400000A108A140A11023E031847
:100400008A0A82004234313400340A108A140A11F4
:100410008207203453344234493420344234413446
:100420004E344B3420344834413453342034423435
:10043000453445344E34203400340A108A140A11ED
:1004400082074234333400340A108A140A118207B6
:100450002034493442342034423441344E344B3415
:100460002034483441345334203442344534453404
:100470004E342034203400340A108A140A118207C2
:1004800020344334413453344834203457344934CD
:100490005434483444345234413457342D344B347A
:1004A0002E34463400340A108A140A11820720348C
:1004B0004334413453344834203444344534503484
:1004C0004F3453344934543445342D344B342E3462
:1004D000473400340A108A140A1182072034433446
:1004E0004134533448342034573449345434483434
:1004F000443452344134573441342D344B342E3447
:10050000463400340A108A140A1182072034433416
:100510004134533448342034573449345434483403
:10052000443452344134573441344C342034003450
:100530000A108A140A118207423441344C3441347F
:100540004E3443344534203441344D344F345534E3
:100550004E3454343A3400340A108A140A11820793
:100560002034433441345334483420344434453403
:1005700050344F34533449345434453444342034A3
:1005800000340A108A140A11820754344F34543448
:1005900041344C34203441344D344F3455344E348E
:1005A00054343A3400345B30840000080319E52ADF
:1005B0000330F800F701F70BDB2AF80BDA2A953045
:1005C000F700F70BE12A800BD82A0034F0308600C0
:1005D0008611861BEC2AC401061BF02A0130C400D8
:1005E000861AF42A0230C400061AF82A0330C4001E
:1005F00086150611861BFE2A0430C400061B022B3A
:100600000530C400861A062B0630C400061A0A2BD1
:100610000730C40006158610861B102B0830C40056
:10062000061B142B4130C400861A182B4230C4001C
:10063000061A1C2B4330C40086140610861B222B7E
:100640004430C400061B262B4530C400861A2A2BD2
:100650004630C400061A2E2B4730C400061486010B
:100660000608F03C031D302BC9150230DB00D322F5
:100670000B108A110A1223288C1E3C2B1808A90083
:100680001A08F800A91C462B18121816000000348E
:10069000C91A5A2B383046078400DC003C235C081A
:1006A000840078088000C60A4608043C03185A2BC8
:1006B000C6014916C91E6C2B383046078400DC0081
:1006C0003C235C08840078088000C60A46080B3C7E
:1006D00003186C2BC60147148C128A110A122328A6
:1006E0004D0888000910891009152D30F700F70B07
:1006F000772B000000000911003456088800091407
:10070000891009152D30F700F70B842B000000002D
:10071000091100341030D300F701FA01D00CCF0CCE
:10072000031C982B5108F7070318FA0A5208FA0716
:10073000FA0CF70CF90CF80CD30B8E2B0034F701E4
:10074000F8014F0803105018F707F70CF80CD018F1
:10075000F707F70CF80C5019F707F70CF80CD0193D
:10076000F707F70CF80C501AF707F70CF80CD01A2B
:10077000F707F70CF80C501BF707F70CF80CD01B19
:10078000F707F70CF80C0034F801F901F701FA014A
:100790005908031DCE2B58080319E82B1030DA0036
:1007A0000310D60DD70DF70DFA0D59087A02031D67
:1007B000DB2B58087702031CE42B5808F702031CB4
:1007C000FA035908FA020314F80DF90DDA0BD02BCD
:1007D00000000034CF014F08043C031C0A2C5030A9
:1007E0004F0784004E08D7004D08D600D9010A30C3
:1007F000D800C423770880004E08D7004D08D600E3
:10080000D9010A30D800C4237908CE007808CD0079
:10081000CF0AEB2B54083038D500D6007D2353087F
:100820003038D500D6007D2352083038D500D600A8
:100830007D2351083038D500D6007D23500830384C
:08084000D500D6007D23003431
:1010000084011F3083051130831699002230980027
:1010100090308312980083161F149F141F159F1180
:1010200007309C008312A901AA01AB01AC01AD01FC
:10103000AE01AF01B001B101B201B301B401B5011C
:10104000B601B701B801B901BA01BB01BC01BD01CC
:10105000BE01BF01C001C101C201C301C401C5017C
:10106000C6014710C7144711C7114712C7124713CB
:10107000C7134810C8144815C8154816C812481791
:10108000C8134910C9104911C9114912C912F030C9
:1010900083168600831286018316880183128801D5
:1010A000803083168700831287018316890183129B
:1010B000890183168101C83083128B00C0308B04F4
:1010C00083168C1638308312CD008A1170238A154E
:1010D0000C30CD008A1170238A150630CD008A119C
:1010E00070238A150130CD008A1170238A15A8015A
:1010F0008B1BA8178B130230DB008A11D3228A15B1
:10110000A81B8B178030CD008A1170238A15CD0162
:101110004D088A113C208A15003803199528CD0AFC
:10112000D6008A117D238A158828C030CD008A1107
:1011300070238A15CD014D088A1152208A15003876
:101140000319A828CD0AD6008A117D238A159B2869
:101150000230CD00A8018B1BA8178B13FA30DB00DF
:101160008A11D3228A15A81B8B17CD0BAA28013010
:10117000CD008A1170238A15A8018B1BA8178B1329
:101180000230DB008A11D3228A15A81B8B17CD01F0
:101190004D088A116A208A1500380319D428CD0A0F
:1011A0000C1ED0289900C8280D300C1ED528990097
:1011B0000A300C1ED9289900491E29290710491404
:1011C0004912AB01AA0130303802CE00D0014E08DE
:1011D000CF002730D2001030D1008A118A238A151F
:1011E0007808AA0779080318790FAB07303039025D
:1011F000CE00D0014E08CF000330D200E830D1003D
:101200008A118A238A157808AA0779080318790FA2
:10121000AB0730303A02CE00CF006430D0008A11E4
:101220009F238A157808AA070318AB0A30303B02BF
:10123000CE00CF000A30D0008A119F238A1578088B
:10124000AA070318AB0A30303C02AA070318AB0AFE
:10125000C916C408031D1A2A481E1A2A4910C7179E
:101260008030CD008A1170238A15CD014D088A1176
:1012700072208A15003803194329CD0AD6008A1135
:101280007D238A1536298430CD008A1170238A1572
:10129000CD014D088A117B208A1500380319562983
:1012A000CD0AD6008A117D238A154929A8018B1BF6
:1012B000A8178B130130DB008A11D3228A15A81BD3
:1012C0008B17C030CD008A1170238A15CD014D08CF
:1012D0008A118A208A15003803197429CD0AD6008C
:1012E0008A117D238A156729C430CD008A117023A5
:1012F0008A15CD014D088A1193208A1500380319EB
:101300008729CD0AD6008A117D238A157A29A8015A
:101310008B1BA8178B130130DB008A11D3228A158F
:10132000A81B8B179430CD008A1170238A15CD012C
:101330004D088A119F208A1500380319A529CD0A66
:10134000D6008A117D238A1598299830CD008A11FC
:1013500070238A15CD014D088A11A8208A150038FE
:101360000319B829CD0AD6008A117D238A15AB2925
:10137000A8018B1BA8178B130130DB008A11D32225
:101380008A15A81B8B17D430CD008A1170238A15BB
:10139000CD014D088A11B4208A1500380319D629C9
:1013A000CD0AD6008A117D238A15C929D830CD00EF
:1013B0008A1170238A15CD014D088A11BD208A1526
:1013C00000380319E929CD0AD6008A117D238A1530
:1013D000DC29A8018B1BA8178B130130DB008A11B5
:1013E000D3228A15A81B8B17DF30CD008A117023FA
:1013F0008A15CD014D088A11C8208A1500380319B5
:10140000072ACD0AD6008A117D238A15FA29E330EE
:10141000CD008A1170238A15CD014D088A11D12083
:101420008A15003803191A2ACD0AD6008A117D239D
:101430008A150D2A4408413C031D5A2AC71F5A2AFF
:101440000714C401481247154712C711C7124713A2
:1014500041300C1E292A99000130CD008A117023D9
:101460008A15A8018B1BA8178B130230DB008A1189
:10147000D3228A15A81B8B178030CD008A117023C8
:101480008A15CD014D088A11DB208A150038031911
:101490004F2ACD0AD6008A117D238A15422AA80137
:1014A0008B1BA8178B136430DB008A11D3228A159B
:1014B000A81B8B17471CA92A471DA92A4208353C9F
:1014C000031D832A4308313C031D832AC914481293
:1014D00041300C1E692A99004D300C1E6D2A99006E
:1014E0008030CD008A1170238A15CD014D088A11F4
:1014F000EB208A1500380319832ACD0AD6008A11F9
:101500007D238A15762A4108353C031DA82A420806
:10151000333C031DA82AC910481241300C1E8E2AE4
:1015200099004C300C1E922A9900C030CD008A11CF
:1015300070238A15CD014D088A1100218A150038C3
:101540000319A82ACD0AD6008A117D238A159B2A61
:1015500047104408423C031DE72A0714C4014812FF
:1015600047114712C715C712471342300C1EB62A3F
:1015700099000130CD008A1170238A158030CD008A
:101580008A1170238A15A8018B1BA8178B130230B0
:10159000DB008A11D3228A15A81B8B17CD014D08B9
:1015A0008A1115218A1500380319DC2ACD0AD600C4
:1015B0008A117D238A15CF2AA8018B1BA8178B13AC
:1015C0006430DB008A11D3228A15A81B8B17471CB5
:1015D000612BC71D612B4208353C031D282B430896
:1015E000313C031D282B481248144D300C1EF62A9E
:1015F000990042300C1EFA2A99008030CD008A11E1
:1016000070238A15CD014D088A1122218A150038D0
:101610000319102BCD0AD6008A117D238A15032BBE
:10162000C030CD008A1170238A15CD014D088A1172
:1016300032218A1500380319232BCD0AD6008A11CE
:101640007D238A15162B9430CD008A1170238A15BC
:101650004108353C031D602B4208333C031D602BC1
:10166000481048124C300C1E332B990042300C1E8F
:10167000372B99008030CD008A1170238A15CD0157
:101680004D088A1142218A15003803194D2BCD0AC5
:10169000D6008A117D238A15402BC030CD008A11D7
:1016A00070238A15CD014D088A1152218A15003800
:1016B0000319602BCD0AD6008A117D238A15532B7E
:1016C00047104408433C031D9F2B0714C4014812D4
:1016D000C71147114716C712471343300C1E6E2B14
:1016E00099000130CD008A1170238A15A8018B1B47
:1016F000A8178B130230DB008A11D3228A15A81B8E
:101700008B178030CD008A1170238A15CD014D08CA
:101710008A1162218A1500380319942BCD0AD6004C
:101720008A117D238A15872BA8018B1BA8178B1381
:101730006430DB008A11D3228A15A81B8B17471C43
:10174000192C471E192C4208353C031DDB2B43087E
:10175000313C031DDB2BC81448124D300C1EAE2B40
:10176000990043300C1EB22B99008030CD008A11B5
:1017700070238A15CD014D088A1152218A1500382F
:101780000319C82BCD0AD6008A117D238A15BB2BDD
:10179000C030CD008A1170238A15CD014D088A1101
:1017A0006F218A1500380319DB2BCD0AD6008A1168
:1017B0007D238A15CE2B4108353C031D182C420889
:1017C000333C031D182CC81048124C300C1EE62B5D
:1017D000990043300C1EEA2B99009430CD008A11F9
:1017E00070238A158030CD008A1170238A15CD01AF
:1017F0004D088A1152218A1500380319052CCD0A8B
:10180000D6008A117D238A15F82BC030CD008A11AD
:1018100070238A15CD014D088A117C218A15003864
:101820000319182CCD0AD6008A117D238A150B2C9A
:1018300047104408443C031D572C0714C4014812A8
:101840004711C71147124713C71644300C1E262CE8
:1018500099000130CD008A1170238A15A8018B1BD5
:10186000A8178B130230DB008A11D3228A15A81B1C
:101870008B178030CD008A1170238A15CD014D0859
:101880008A1189218A15003803194C2CCD0AD600FB
:101890008A117D238A153F2CA8018B1BA8178B1357
:1018A0006430DB008A11D3228A15A81B8B17471CD2
:1018B000CC2CC71ECC2C4208353C031D932C43086E
:1018C000313C031D932C481548124D300C1E662CDC
:1018D000990044300C1E6A2C99008030CD008A118A
:1018E00070238A15CD014D088A1152218A150038BE
:1018F0000319802CCD0AD6008A117D238A15732CFA
:10190000C030CD008A1170238A15CD014D088A118F
:101910006F218A1500380319932CCD0AD6008A113D
:101920007D238A15862C4108353C031DCB2C4208AB
:10193000333C031DCB2C481148124C300C1E9E2CFE
:10194000990044300C1EA22C99008030CD008A11E1
:1019500070238A15CD014D088A1152218A1500384D
:101960000319B82CCD0AD6008A117D238A15AB2C19
:10197000C030CD008A1170238A15CD014D088A111F
:101980007C218A1500380319CB2CCD0AD6008A1188
:101990007D238A15BE2C47104408453C031D3D2D70
:1019A0000714C40148124717C7124712C71147113D
:1019B00045300C1ED92C99000130CD008A117023BE
:1019C0008A15A8018B1BA8178B130230DB008A1124
:1019D000D3228A15A81B8B178030CD008A11702363
:1019E0008A15CD014D088A1195218A1500380319F1
:1019F000FF2CCD0AD6008A117D238A15F22C863061
:101A0000CD008A1170238A15CD014D088A11A021BD
:101A10008A1500380319122DCD0AD6008A117D23AC
:101A20008A15052DC030CD008A1170238A15CD018D
:101A30004D088A11AC218A1500380319252DCD0ACD
:101A4000D6008A117D238A15182D9430CD008A1175
:101A500070238A15CD014D088A11B9218A150038E5
:101A60000319382DCD0AD6008A117D238A152B2D16
:101A7000D430CD008A1170238A154408073C031D19
:101A8000922D471F922DCD014D088A11C4218A1530
:101A900000380319502DCD0A0C1E4C2D9900442DF1
:101AA0000D300C1E512D99000A300C1E552D990039
:101AB0000130CA004713CD008A1170238A15A8018E
:101AC0008B1BA8178B130230DB008A11D3228A15D7
:101AD000A81B8B178030CD008A1170238A15CD0189
:101AE0004D088A11CB218A15003803197D2DCD0AA6
:101AF000D6008A117D238A15702DC030CD008A1141
:101B000070238A15CD014D088A11E4218A15003809
:101B10000319902DCD0AD6008A117D238A15832DB5
:101B200007143B2E4408063C031DE72D471FE72DF5
:101B3000CD014D088A11FA218A1500380319A52D07
:101B4000CD0A0C1EA12D9900992D0D300C1EA62D2D
:101B500099000A300C1EAA2D99000130CA004713C3
:101B6000CD008A1170238A15A8018B1BA8178B132F
:101B70000230DB008A11D3228A15A81B8B17803014
:101B8000CD008A1170238A15CD014D088A110522D6
:101B90008A1500380319D22DCD0AD6008A117D236B
:101BA0008A15C52DC030CD008A1170238A15CD014C
:101BB0004D088A11E4218A1500380319E52DCD0A54
:101BC000D6008A117D238A15D82D07143B2E440890
:101BD000083C031D3B2E471F3B2ECD014D088A11AB
:101BE0001D228A1500380319FA2DCD0A0C1EF62D78
:101BF0009900EE2D0D300C1EFB2D99000A300C1EA5
:101C0000FF2D99000130CA004713CD008A117023BF
:101C10008A15A8018B1BA8178B130230DB008A11D1
:101C2000D3228A15A81B8B178030CD008A11702310
:101C30008A15CD014D088A1124228A15003803190E
:101C4000272ECD0AD6008A117D238A151A2EC03080
:101C5000CD008A1170238A15CD014D088A11E42127
:101C60008A15003803193A2ECD0AD6008A117D2331
:101C70008A152D2E0714471CDC2E4A0BDC2E420839
:101C8000353C031D8E2E4308313C031D8E2ECA01A8
:101C9000C401C811471047130130CB00C9124D30A1
:101CA0000C1E502E990047300C1E542E9900013006
:101CB000CD008A1170238A15A8018B1BA8178B13DE
:101CC0000230DB008A11D3228A15A81B8B178030C3
:101CD000CD008A1170238A15CD014D088A113C224E
:101CE0008A15003803197A2ECD0AD6008A117D2371
:101CF0008A156D2EC030CD008A1170238A15CD0152
:101D00004D088A1153228A15003803198D2ECD0AE9
:101D1000D6008A117D238A15802EDC2E4108353CA1
:101D2000031DDC2E4208333C031DDC2ECA01C40116
:101D3000C811471047130130CC00C9124C300C1E9B
:101D40009F2E990047300C1EA32E99000130CD0024
:101D50008A1170238A15A8018B1BA8178B130230D8
:101D6000DB008A11D3228A15A81B8B178030CD0087
:101D70008A1170238A15CD014D088A116A228A15AD
:101D800000380319C92ECD0AD6008A117D238A1581
:101D9000BC2EC030CD008A1170238A15CD014D08AC
:101DA0008A1153228A1500380319DC2ECD0AD60079
:101DB0008A117D238A15CF2E4408463C031D212F0E
:101DC0004B0B212FC401CB014D300C1EE52E990089
:101DD0000130CD008A1170238A15A8018B1BA8172A
:101DE0008B130230DB008A11D3228A15A81B8B17B4
:101DF000CD014D088A1182228A1500380319062F59
:101E0000CD0AD6008A117D238A15F92EC030CD0067
:101E10008A1170238A15CD014D088A1198228A15DE
:101E200000380319192FCD0AD6008A117D238A158F
:101E30000C2F2B08CE002A08CD008A11EA238A1520
:101E40006A2F4408473C031D6A2F4B0B6A2FC401BD
:101E5000CB014D300C1E2A2F99000130CD008A1184
:101E600070238A15A8018B1BA8178B130230DB0087
:101E70008A11D3228A15A81B8B178030CD008A11B6
:101E800070238A15CD014D088A11AC228A150038BD
:101E90000319502FCD0AD6008A117D238A15432FAE
:101EA000C030CD008A1170238A15CD014D088A11EA
:101EB000C1228A1500380319632FCD0AD6008A1172
:101EC0007D238A15562F2B08CE002A08CD008A11B3
:101ED000EA238A154408463C031DB42F4C0BB42F4B
:101EE000C401CC014C300C1E732F99000130CD0081
:101EF0008A1170238A15A8018B1BA8178B13023037
:101F0000DB008A11D3228A15A81B8B178030CD00E5
:101F10008A1170238A15CD014D088A1182228A15F3
:101F200000380319992FCD0AD6008A117D238A150E
:101F30008C2FC030CD008A1170238A15CD014D0839
:101F40008A1198228A1500380319AC2FCD0AD600C1
:101F50008A117D238A159F2F2B08CE002A08CD00D9
:101F60008A11EA238A15FD2F4408473C031DFD2FE3
:101F70004C0BFD2FC401CC014C300C1EBD2F990021
:101F80000130CD008A1170238A15A8018B1BA81778
:101F90008B130230DB008A11D3228A15A81B8B1702
:101FA0008030CD008A1170238A15CD014D088A1129
:101FB000AC228A1500380319E32FCD0AD6008A1106
:101FC0007D238A15D62FC030CD008A1170238A1543
:101FD000CD014D088A11C1228A1500380319F62F48
:101FE000CD0AD6008A117D238A15E92F2B08CE0051
:0E1FF0002A08CD008A11EA238A15DC28630036
:02400E003A3F37
:00000001FF
;PIC16F877A
