:1000000000308A00BE290000FF00030E8301A1001A
:100010000A08A0008A010408A2007708A300780853
:10002000A4007908A5007A08A6007B08A70083131E
:1000300083128C308400801E1F288C1A32282208DC
:1000400084002308F7002408F8002508F900260892
:10005000FA002708FB0020088A00210E8300FF0E0B
:100060007F0E09008A110A1273290A108A100A11D8
:100070008207413454342B3443344D3447344634AE
:100080003D34313400340A108A100A118207413499
:1000900054342B3443344E344D3449343D343134AC
:1000A0002C3432342C3430342C3430342C3430343E
:1000B00000340A108A100A118207413454342B3458
:1000C00043344D34473452343D34313400340A1013
:1000D0008A100A1182075234463449344434203499
:1000E00054344134473400340A108A100A1182070C
:1000F0005334313400340A108A100A118207203434
:100100002034203454344134473420344634493484
:1001100052345334543420342034203400340A1000
:100120008A100A118207203450344134543449343F
:1001300045344E34543431342034523441344A340A
:100140004134203400340A108A100A118207203406
:100150002034503441345434493445344E345434CA
:1001600031342034523441344A3441342034003460
:100170000A108A100A11820744344F34433454342D
:100180004F34523420345434483441344E3447349C
:1001900041344D3400340A108A100A118207203489
:1001A0004434493453344534413453344534203491
:1001B000203443344F344C3444342034203400341D
:1001C0000A108A100A118207203450345234453400
:1001D00053344334523449345034543449344F3412
:1001E0004E342034203400340A108A100A11FB3EA9
:1001F00003188A0A82002034453458344334453485
:100200004434523449344E3420345434413442342A
:10021000203400340A148A100A118207533432340D
:1002200000340A148A100A1182072034203454340E
:100230004134473420345334453443344F344E34FE
:1002400044342034203400340A148A100A118207FE
:10025000503441345434493445344E3454343234B7
:1002600020345934553456344134523441344A34AC
:1002700000340A148A100A118207203444344934A5
:1002800053344534413453344534203446344534B2
:10029000563445345234203400340A148A100A117A
:1002A0008207203444344934533445344134533480
:1002B00045342034463445345634453452340034C1
:1002C0000A148A100A1182075034523445345634C5
:1002D0004134433449344434203453344F344C345F
:1002E0005534543400343B198329283034078400B2
:1002F0008C1E78291A088000B40A3408043C031DB7
:100300008329B4013B143B1D932928303407840012
:100310008C1E88291A088000B40A34080C3C031D7E
:100320009329B401BB148C128A110A121F283F3082
:10033000840000080319A9290330F800F701F70B1E
:100340009F29F80B9E299530F700F70BA529800B04
:100350009C2900343C0888000910891009150A30CE
:10036000BF009721091100343E0888000914891044
:1003700009150A30BF0097210911003484011F308C
:100380008305113083169900223098009030831233
:10039000980083161F149F141F159F1107309C008F
:1003A0008312B401B501B601B701B801B901BA01B0
:1003B0003B10BB103B118801831688018901831211
:1003C00087018030831687008312BC013C083520EA
:1003D00000380319F029BC0A0C1EEC299900E62903
:1003E0000D300C1EF12999000A300C1EF5299900D8
:1003F0000430BC00FA30BF009721BC0BFA29BC01C5
:100400003C084320003803190A2ABC0A0C1E062A9D
:100410009900002A0D300C1E0B2A99000A300C1E80
:100420000F2A99000430BC00FA30BF009721BC0BA2
:10043000142ABC013C08592000380319242ABC0A9C
:100440000C1E202A99001A2A0D300C1E252A99000C
:100450000A300C1E292A99000430BC00FA30BF0073
:100460009721BC0B2E2AC0308B0483168C162830A3
:100470008312340784000008BC003C080C1E3E2A8E
:1004800099000130BC00AA218030BC00AA210130B3
:10049000BF009721B401BC013C0867200038031954
:1004A000552ABC0ABE00B4214C2A3B1C0B2CC03080
:1004B000BC00AA21B40134080B3C031C692A283073
:1004C0003407840000083038BD00BE00B421B40AEF
:1004D0005B2AC830BF0097213208353C031D3B2BF7
:1004E0003308443C031D3B2BBC013C0874200038FE
:1004F00003197F2ABC0A0C1E7B2A9900752A0D302D
:100500000C1E802A99000A300C1E842A9900803023
:10051000BC00AA21BC013C087B2000380319942AA6
:10052000BC0ABE00B4218B2AC030BC00AA21BC0189
:100530003C088F2000380319A12ABC0ABE00B42150
:10054000982A0130B900FA30BF009721390B3A2BB5
:10055000C030BC00AA21BC013C08A320003803190C
:10056000B52ABC0ABE00B421AC2A0830BC00FA305F
:10057000BF009721BC0BB72A8030BC00AA21BC0168
:100580003C08A32000380319C92ABC0ABE00B421C4
:10059000C02AC030BC00AA21BC013C08B8200038E9
:1005A0000319D62ABC0ABE00B421CD2A0830BC00EB
:1005B000FA30BF009721BC0BD82A8030BC00AA219A
:1005C000BC013C08B82000380319EA2ABC0ABE0066
:1005D000B421E12AC030BC00AA21BC013C08CB20D8
:1005E00000380319F72ABC0ABE00B421EE2A0830ED
:1005F000BC00FA30BF009721BC0BF92A8030BC0048
:10060000AA21BC013C08CB20003803190B2BBC0AE3
:10061000BE00B421022BC030BC00AA21BC013C08A2
:10062000E02000380319182BBC0ABE00B4210F2BA0
:100630000830BC00FA30BF009721BC0B1A2B803069
:10064000BC00AA21BC013C08E020003803192C2B77
:10065000BC0ABE00B421232BC030BC00AA21BC01BF
:100660003C08F42000380319392BBC0ABE00B42121
:10067000302BB901092C3208333C031D092C3308F7
:10068000453C031D092CBC013C080A210038031914
:100690004E2BBC0A0C1E4A2B9900442B0D300C1E0D
:1006A0004F2B99000A300C1E532B99008030BC0050
:1006B000AA21BC013C08112100380319632BBC0A94
:1006C000BE00B4215A2BC030BC00AA21BC013C089A
:1006D000242100380319702BBC0ABE00B421672BFB
:1006E0000130BA009630BF0097213A0B7A2BC03008
:1006F000BC00AA21BC013C08242100380319842B2A
:10070000BC0ABE00B4217B2B0830BC00FA30BF000D
:100710009721BC0B862B8030BC00AA21BC013C0871
:10072000242100380319982BBC0ABE00B4218F2B5A
:10073000C030BC00AA21BC013C08B8200038031915
:10074000A52BBC0ABE00B4219C2B0830BC00FA309B
:10075000BF009721BC0BA72B8030BC00AA21BC0195
:100760003C08B82000380319B92BBC0ABE00B421DC
:10077000B02BC030BC00AA21BC013C083921003894
:100780000319C62BBC0ABE00B421BD2B0830BC0027
:10079000FA30BF009721BC0BC82B8030BC00AA21C7
:1007A000BC013C084D2100380319DA2BBC0ABE00FD
:1007B000B421D12BC030BC00AA21BC013C08E020F0
:1007C00000380319E72BBC0ABE00B421DE2B083029
:1007D000BC00FA30BF009721BC0BE92B8030BC0075
:1007E000AA21BC013C08E02000380319FB2BBC0AFD
:1007F000BE00B421F22BC030BC00AA21BC013C08D1
:10080000602100380319082CBC0ABE00B421FF2B5C
:0A081000BA013B10B401552A630041
:00000001FF
;PIC16F877A
