:020000040000FA
:04000000BCEF05F05C
:08000800056ED8CF06F0E0CF31
:1000100007F00001E9CF0DF0EACF08F0E1CF09F0D9
:10002000E2CF0AF0D9CF0BF0DACF0CF0F3CF14F017
:10003000F4CF15F0FACF16F000C00FF001C010F0A9
:1000400002C011F003C012F004C013F09DA22CEF07
:1000500000F09EB2B5EF00F00FC000F010C001F04C
:1000600011C002F012C003F013C004F00DC0E9FF8C
:1000700008C0EAFF09C0E1FF0AC0E2FF0BC0D9FFD8
:100080000CC0DAFF14C0F3FF15C0F4FF16C0FAFF6E
:10009000055007C0E0FF06C0D8FF1000F2CF0EF0F9
:1000A000F29EF76AB60FF66E000EF7220900F550C1
:1000B0000EBEF28E120043414E2042415345442071
:1000C0004D4F4E495400F2CF0EF0F29EF76AE00F0A
:1000D000F66E000EF7220900F5500EBEF28E1200E9
:1000E0004641554C5420444941474F4E535449438F
:1000F0005300F2CF0EF0F29EF76A0C0FF66E010E6F
:10010000F7220900F5500EBEF28E1200543A00009C
:10011000F2CF0EF0F29EF76A2A0FF66E010EF7226A
:100120000900F5500EBEF28E1200563A0000F2CFD2
:100130000EF0F29EF76A480FF66E010EF7220900E4
:10014000F5500EBEF28E12004F3A0000F2CF0EF0C4
:10015000F29EF76A660FF66E010EF7220900F5505F
:100160000EBEF28E1200533A00005E2A5D2A612B09
:1001700061512A0803E2616B622B68879E922CEF23
:1001800000F077C083FF8490849284842D0E006EEB
:10019000002EFED7000000008494000CEA6A780E5E
:1001A000E96EEF500DE0030E016E006A002EFED7DF
:1001B000012EFBD7950E006E002EFED7EF2EF3D743
:1001C000000C78C083FF8480849284842D0E006E9E
:1001D000002EFED7000000008494000C6E39700BD6
:1001E000006ED89000361F0E6F1400106F6E6ECF29
:1001F00000F0003A0030070B6E5DF9E1000CC00E14
:1002000070140409706E3F0E7014706EF80E711445
:100210000209716EC70E71142809716E719C718E7E
:10022000F80E72140509726E729CB3EF01F07FC074
:1002300086F07EC085F0845352E085C0E9FF86C019
:10024000EAFF80C0EFFF8551D8B48607850785C0D7
:10025000E9FF86C0EAFF81C0EFFF8551D8B4860769
:10026000850785C0E9FF86C0EAFF8251030BEF6E68
:1002700085C0E9FF86C0EAFF82C000F00036003684
:100280000036F80E00160050E00BEF10EF6E85C040
:10029000E9FF86C0EAFFEF500809EF6E8551D8B438
:1002A0008607850785C0E9FF86C0EAFF82C000F0A7
:1002B000003A0032070E00160050070BEF6E85C0A3
:1002C000E9FF86C0EAFF83C000F000360036003642
:1002D000F80E00160050F80BEF10EF6E3FD085C0FF
:1002E000E9FF86C0EAFFEF6A8551D8B48607850723
:1002F00085C0E9FF86C0EAFFEF6A8551D8B486075A
:10030000850785C0E9FF86C0EAFF80C000F0003A9B
:100310000036E00E00160050E00BEF6E8551D8B4A9
:100320008607850785C0E9FF86C0EAFF80C000F028
:100330000032003200321F0E001600501F0BEF6E0D
:1003400085C0E9FF86C0EAFF81C000F0003A0036B0
:10035000E00E00160050E00BEF10EF6E000C040EE4
:100360006E6F3CDF4CD7606A9F0E6014606E6084D5
:1003700060CF50FF739A73980F0E7F6F1B0E7E6FC6
:10038000836B826B816B806B010E846F50DF0F0E6D
:100390007F6F030E7E6F836B826B816B806B010EB0
:1003A000846F45DF0F0E7F6F070E7E6F836B826B4E
:1003B000816B806B010E846F3ADF0F0E7F6F1F0E13
:1003C0007E6F836B826B816B806B010E846F2FDF7E
:1003D0000F0E7F6F0B0E7E6F836B826B816B806B5A
:1003E000010E846F24DF0F0E7F6F7E6F836B826B35
:1003F000816B806B010E846F1ADF0F0E7F6F130EFF
:100400007E6F836B826B816B806B010E846F0FDF5D
:100410000F0E7F6F170E7E6F836B826B816B806B0D
:10042000010E846F04DF9350FB0B0809936E6E6B13
:10043000D5DE9AEF06F0016A026A006A036A7C510F
:1004400002E17B5118E0100E7D6FD89079377A3732
:10045000003603367C51035C02E17B51005C07E30C
:100460007B51005ED8A003067C51035ED880013624
:1004700002367D2FEAD70000000C726B726B72514E
:10048000030830E3036A7251730FE96E000E032014
:10049000EA6E71C07AF070C079F07C6B0A0E7B6FE7
:1004A000CADF00C0EFFF036A7251520FE96E000EFF
:1004B0000320EA6E71C07AF070C079F07C6B0A0E8E
:1004C0007B6FB9DF00C0EFFF71C07AF070C079F0C8
:1004D0007C6B0A0E7B6FAFDF02C071F001C070F061
:1004E000722BCDD7C20E776F4CDE76513009776F05
:1004F000786F67DE75513009776F786F62DE7451FF
:100500003009776F786F5DDE73513009776F786FE0
:1005100058DE020E776F960E786F40DE772FFBD78E
:10052000D7EF06F00F0E7C6F660E7B6F0F0140B7A2
:1005300008D0F10E6F1408096F6E00017D6B1BD09F
:100540000F0130B709D0F10E6F1406096F6E010E5E
:1005500000017D6F10D00F0120B709D0F10E6F148C
:1005600004096F6E020E00017D6F05D00F01000EB1
:10057000016E3BD000017751030B006EFC0E60143E
:100580000010606E0F0E7F6F640E7E6F73C083F07D
:1005900072C082F071C081F070C080F078C084F0C9
:1005A00046DE76C065FF659C79B1658C7A6B7651C5
:1005B0007A5D14E274C0E9FF75C0EAFFEFCF80F006
:1005C0007CC0EAFF7BC0E9FF80C0EFFF7B2BD8B483
:1005D0007C2B742BD8B4752B7A2BE9D76086F10E5F
:1005E0006F146F6E010E016E0F010001000C706B35
:1005F000706B705103081FE3036A70514E0FE96E70
:10060000000E0320EA6E6FC07AF06EC079F07C6B4A
:100610000A0E7B6F10DF00C0EFFF6FC07AF06EC074
:1006200079F07C6B0A0E7B6F06DF02C06FF001C0B1
:100630006EF0702BDED7CA0E776FA3DD51503009F4
:10064000716F786FBEDD50503009716F786FB9DD12
:100650004F503009716F786FB4DD4E503009716FB3
:10066000786FAFDD020E716F960E786F97DD712F88
:10067000FBD727EF07F08E0E006E6FC001F06EC043
:1006800002F0036A015209E102C001F0026A080E99
:10069000005E015202E1006A08D0D89001BE04D089
:1006A000023601360006F9D7019E0000000C6E519B
:1006B000D8B471D0006E7251D8B46DD0002604E366
:1006C000810E002668E204D07F0E005E64E363E0E2
:1006D0006FC076F07351761B6F8F738F71517503F6
:1006E000F4CF78F070517403F4CF03F0F3CF77F0C8
:1006F0007503F3507827F4507723000E03227151CD
:100700007403F3507827F4507723000E026A032213
:1007100002226F517503F3507727F4500322000E25
:1007200002226F517403F3500326F4500222000E8C
:10073000016A012271517303F3507727F4500322A9
:10074000000E0222012270517303F3500326F4506D
:100750000222000E01226F517303F3500226F4505F
:100760000122002A01BE05D0773703360236013652
:100770000006000E77AF0AD0032A022201220150A0
:1007800005E1025003E1035001E1002A76BF018E2A
:1007900076AF019E04D0006A016A026A036A000013
:1007A000000C8E0E006E7251005E73C002F074C0B9
:1007B00001F0028E005209E0D890025202E101528B
:1007C00004E002320132002EF7D773AF05D0011ECC
:1007D000021E012AD8B4022A0000000C706B70516E
:1007E000030830E3036A7051710FE96E000E0320B5
:1007F000EA6E6FC07AF06EC079F07C6B0A0E7B6F88
:100800001ADE00C0EFFF036A7051630FE96E000E3D
:100810000320EA6E6FC07AF06EC079F07C6B0A0E2E
:100820007B6F09DE00C0EFFF6FC07AF06EC079F019
:100830007C6B0A0E7B6FFFDD02C06FF001C06EF0B3
:10084000702BCDD7800E776F9CDC756B75517EDC7D
:10085000000904E0752B786FB4DCF8D774513009C7
:10086000756F786FAEDC73513009756F786FA9DCE6
:1008700072513009756F786FA4DC71513009756F52
:10088000786F9FDC95EF07F0800ED8B2771B7C6BFA
:100890007D6B73C07BF077517B1B7251D8B4DCD079
:1008A0007A6F006E7651D8B4E0D07A5FD8B481D038
:1008B0003DE377C080F0808F78C07FF079C07EF014
:1008C0007D6BD89080337F337E337D337A2FF8D79A
:1008D0007BAF03D07C81DDD07C917A917C89EA6A00
:1008E000750EE96EE9D07C997BBF0AD07AA113D04E
:1008F00080337F337E337D33002AD8B4C5D00BD00C
:1009000080BF0CD0D8907D377E377F378037000688
:10091000D8B4BAD0F5D77C8D6BD07C9D73C07BF0FA
:1009200073AF02D0808FA9D0809FA7D076C07AF015
:1009300076C000F072517A5F73C080F0808F74C00F
:100940007FF075C07EF07D6BD89080337F337E332F
:100950007D337A2FF8D77BAF03D07C839AD07C93FA
:100960007A917C8BEA6A790EE96EA6D07C9B7BBF7C
:100970000AD07AA113D080337F337E337D33002AAF
:10098000D8B482D00BD080BF0CD0D8907D377E37C2
:100990007F3780370006D8B477D0F5D77C8F28D042
:1009A0007C9F77C07BF077AF02D0808F66D0809F2E
:1009B00064D077C080F0808F78C07FF079C07EF0FF
:1009C0007BAF04D0809F7C8564D07C957D6B7A91D1
:1009D000EA6A750EE96E70D07BBF1CD073C07BF0E5
:1009E0007AA106D080337F337E337D33002A4CE0FA
:1009F0007DAF0BD07E2B09E17F2B07E1802B05E13A
:100A000080337F337E33002A3FE07CBD86D77CBFB6
:100A1000C7D71CD0800E801B80AF04D03AD077C0DF
:100A20007BF00AD073C07BF0805306E17F5304E172
:100A30007E5302E1006A21D080BF08D0D8907D3774
:100A40007E377F378037002EF7D71ED07BAF02D09E
:100A5000808F13D0809F11D076C000F077C080F0D7
:100A600078C07FF079C07EF008D072C000F073C00B
:100A700080F074C07FF075C07EF080C001F07FC050
:100A800002F07EC003F034D0006A016A026A036A91
:100A90002FD07D6B7E1F7F1F801F7D1F7D2B05E16B
:100AA0007E2B03E17F2B01E1802B7CB115D77CB33A
:100AB00056D77CB58AD7B3D7EF507E2705E37F2B77
:100AC00003E1802BD8B47A81ED52EF507F2703E306
:100AD000802BD8B47A81ED52EF50EFBE01D0800A5E
:100AE0008027D8B07A817CB9FED67CBB3FD774D73B
:100AF00000001AEF08F08A0E776FC1EC00F0706BFF
:100B0000705101081FE3036A70514A0FE96E000E2D
:100B10000320EA6E6FC07AF06EC079F07C6B0A0E2B
:100B20007B6F89DC00C0EFFF6FC07AF06EC079F098
:100B30007C6B0A0E7B6F7FDC02C06FF001C06EF031
:100B4000702BDED74D503009716F786FE1EC00F0FB
:100B50004C503009716F786FE1EC00F04B50300968
:100B6000716F786FE1EC00F04A503009716F786F67
:100B7000E1EC00F03CEF08F0F86AD09E0D8EFE0E1E
:100B8000006E060E016E020EE96E000EEA6EEF6A4E
:100B9000E92AD8B4EA2A002EFAD7012EF8D7EA6A51
:100BA000E96A110EAF6E220EAC6E900EAB6EC18074
:100BB000C182C184C196070EB46E186A336A346A62
:100BC000356A366A376A386A396A3A6A3B6A3C6A11
:100BD0003D6A3E6A3F6A406A416A426A436A446AC1
:100BE000456A466A476A486A496A4A6A4B6A4C6A71
:100BF0004D6A4E6A4F6A506A516A526A536A546A21
:100C0000556A566A576A586A596A5A6A5B6A5C6AD0
:100C10005D6A5E6A5F6A606B616B626B636B646B7B
:100C2000656B666B676B6891689368956897689960
:100C3000688B010E696F806A030E926E816A010EE5
:100C4000936E826A946E836A956A846A966AD1907A
:100C5000C190C192C184C196C19CC28CC28EC18E0A
:100C6000C2809698C69A949A94889496000EC66EFE
:100C7000C76E870ECD6ECF6ACE6A9D80B150480B8D
:100C8000B16E070EB46E9650080E006E002EFED7A1
:100C900000000000B450A19CD26AD36A080E050976
:100CA000CA6EC00ECB6E800ED56ED66AD76ACE6A7B
:100CB000CF6ACC6A380E776FC1EC00F0060E776F02
:100CC000C1EC00F00C0E776FC1EC00F0010E776FF5
:100CD000C1EC00F0640E786FCEEC00F0800E776F00
:100CE000C1EC00F06E6B6E514EEC00F0000905E0B7
:100CF0006E2B786FE1EC00F0F6D7C00E776FC1EC89
:100D000000F06E6B6E5163EC00F0000905E06E2B95
:100D1000786FE1EC00F0F6D7040E6E6FFA0E786F84
:100D2000CEEC00F06E2FFAD7010E776FC1EC00F019
:100D3000AFEF01F0640E786FCEEC00F08192080EF8
:100D4000006E002EFED7000000008182080E006EAB
:100D5000002EFED7000000008192080E006E002ECB
:100D6000FED7000000009D829D8AC00EF212828490
:100D70000A0E786FCEEC00F0000E016EC250C70B69
:100D80000110C26E010E786FCEEC00F0C284C2B4C6
:100D9000FED7C3CF33F0C4CF34F0D89034306F6F68
:100DA00033306E6F6FC071F0706F3DEF02F0C00EA8
:100DB000776FC1EC00F06E6B6E5179EC00F00009BA
:100DC00005E06E2B786FE1EC00F0F6D752C03DF0F5
:100DD00053C03EF054C03FF055C040F03DC06AF0F3
:100DE0003EC06BF03FC06CF040C06DF0000E68BBC1
:100DF000010E786F000E68B9010E796F736B726B1C
:100E0000716B010E706F756B6A0E746F040E766FE6
:100E100069C077F092EC02F00A0E786FCEEC00F029
:100E2000080E016EC250C70B0110C26E010E786F22
:100E3000CEEC00F0C284C2B4FED7C3CF37F0C4CF2B
:100E400038F038C06FF037C06EF0F7EF02F0C80E20
:100E5000776FC1EC00F06E6B6E5188EC00F000090A
:100E600005E06E2B786FE1EC00F0F6D74EC046F04F
:100E70004FC047F050C048F051C049F046C06AF03A
:100E800047C06BF048C06CF049C06DF0000E68BB05
:100E9000010E786F000E68B9010E796F736B726B7B
:100EA000716B020E706F756B6A0E746F040E766F45
:100EB00069C077F092EC02F00A0E786FCEEC00F089
:100EC00068A75DD06897CE50CFCF03F0356E03C0D2
:100ED00036F036C06FF035C06EF03BEC03F003C067
:100EE00071F002C070F001C06FF000C06EF0C30E70
:100EF000756FF50E746F480E736F800E726F57EC3E
:100F000003F003C075F002C074F001C073F000C0BC
:100F100072F047DC02C03CF001C03BF0CF6ACE6A01
:100F20003CC06FF03BC06EF059D463C041F064C068
:100F300042F065C043F066C044F041C06AF042C070
:100F40006BF043C06CF044C06DF0000E68BB010E46
:100F5000786F000E68B9010E796F736B726B716BED
:100F6000030E706F756B6A0E746F040E766F69C036
:100F700077F092EC02F00A0E786FCEEC00F05D5044
:100F80000208D8B09BD05D6ACC6A576A566A8192D3
:100F9000080E006E002EFED7000000008182080EB1
:100FA000006E002EFED7000000008192080E006E39
:100FB000002EFED70000000081A0FED7D76AD66AB7
:100FC00081B0FED7D650D7CF03F0566E03C057F08E
:100FD00057C06FF056C06EF03BEC03F003C071F0E9
:100FE00002C070F001C06FF000C06EF0420E756F6D
:100FF000600E746F650E736F790E726F57EC03F0AD
:1010000000C06EF001C06FF002C070F003C071F05C
:10101000D89203C075F002C074F001C073F000C034
:1010200072F06D0E796FE70E786F0B0E776F7F0E93
:10103000766F2AD403C075F002C074F001C073F05B
:1010400000C072F0D1EC03F002C059F001C058F0BA
:10105000880E776FC1EC00F06E6B6E5197EC00F06C
:10106000000905E06E2B786FE1EC00F0F6D759C06F
:101070006FF058C06EF03FD54AC06AF04BC06BF0BD
:101080004CC06CF04DC06DF0000E68BB010E786F67
:10109000000E68B9010E796F736B726B716B040E81
:1010A000706F756B6A0E746F040E766F69C077F09F
:1010B00092EC02F00A0E786FCEEC00F059D60300E5
:020000040030CA
:0E00000000220F0E000081000FC00FE00F4025
:00000001FF
;PIC18F458
