:1000000000308A00402A0000FF00030E8301A10097
:100010000A08A0008A010408A2007708A300780853
:10002000A4007908A5007A08A6007B08A70083131E
:1000300083128B1E1D280B193028220884002308E8
:10004000F7002408F8002508F9002608FA00270818
:10005000FB0020088A00210E8300FF0E7F0E09009E
:100060008A110A12B4280A108A100A118207493428
:100070004E34443455344334543449344F344E347C
:1000800020344D344F3454344F34523400340A1039
:100090008A100A1182074634413455344C345434A2
:1000A000203444344534543445344334543449348E
:1000B0004F344E3400340A108A100A118207433438
:1000C0003A3400340A108A100A118207413400348D
:1000D0000A108A100A11820756343A3400340A1082
:1000E0008A100A1182074D344F3454344F3452343D
:1000F00020344F344E3400340A108A100A1182071B
:100100004D344F3454344F34523420344F34463409
:10011000463400340A108A100A1182074F345634CC
:100120004534523420344C344F344134443449340F
:100130004E344734203420342034203400340A1024
:100140008A100A11820750344C345A342034433414
:100150004834453443344B3420344C344F344134E8
:100160004434203420340034A90AAA0A29082A3C3D
:100170000318BC28A901C4150B118A110A121D28E5
:100180004F30840000080319D2280330F800F7012B
:10019000F70BC828F80BC7289530F700F70BCE28C7
:1001A000800BC52800344C088800091089100915F7
:1001B0000130CF00C020091100344E088800091416
:1001C000891009150130CF00C02009110034F80151
:1001D000F901F701FA015108031DF128500803192C
:1001E0000B291030D2000310CE0DCF0DF70DFA0DF4
:1001F00051087A02031DFE2850087702031C0729C4
:100200005008F702031CFA035108FA020314F80D10
:10021000F90DD20BF32800000034CC014C08033C4C
:10022000031C2D2947304C0784004608CF004508A1
:10023000CE00D1010A30D000E720770880004608C0
:10024000CF004508CE00D1010A30D000E720790860
:10025000C6007808C500CC0A0E294A083038CD00FF
:10026000CE00DD2049083038CD00CE00DD20480822
:100270003038CD00CE00DD2047083038CD00CE002C
:10028000DD206430CF00C02000348E30F7004608F7
:10029000F8004508F900FA01F808031D5929790802
:1002A000F800F9010830F702F808031D5929F70191
:1002B00061290310F81B6029F90DF80DF70359297E
:1002C000F81300008A110A126B2B45080319D5296F
:1002D000CD0049080319D529CD07031876297F30A9
:1002E000CD02031CD5290319D5297A298130CD07E0
:1002F0000318D5294D08F700F801F901FA0146085D
:10030000D100D1174708D0004808CF001830CD00E1
:10031000CE014F1CA3294C08FA07031C9529F90AA2
:10032000031D9529F80A0319CE174B08F907031C7A
:100330009C29F80A0319CE174A08C700C7174708AF
:10034000F8070318CE17CE0DF80CF90CFA0CD10CE7
:10035000D00CCF0C0310CD0B88290130F707031800
:10036000D529F81BBA29D10DFA0DF90DF80DF703AF
:100370000319D529D11FCB29FA0A031DCB29F90A64
:10038000031DCB29F80A031DCB29F80CF90CFA0C34
:10039000F70A0319D5294608CE004A08CE06CE1F13
:1003A000D329F817D929F813D929F701F801F90148
:1003B000FA0100008A110A127C2B8E30F7004508E2
:1003C000F7024608F9004708F800F917F70803197B
:1003D000F4290310F908031DF029F8080319F4297A
:1003E000F90CF80CF70BE929C61FFB29F809F909E4
:1003F000F80A0319F90A00008A110A12852BC801AC
:10040000C901CA01CB01C7014708033C031C232AC9
:100410004830470784004608CF004508CE00D10188
:100420000A30D000E720770880004608CF00450852
:10043000CE00D1010A30D000E7207908C600780844
:10044000C500C70A042AC830CC00D3204B08303876
:10045000CC00CE00DD204A083038CC00CE00DD20B4
:1004600049083038CC00CE00DD2048083038CC00B8
:10047000CE00DD206430CF00C0208A110A128E2BFE
:1004800084011F30830511308316990022309800B3
:1004900090308312980083161F149F141F159F110C
:1004A00007309C008312A801A901AA01AB01AC018D
:1004B000AD01AE01AF01B001B101B201B301B401B0
:1004C000B501B601B701B801B901BA01BB01BC0160
:1004D000BD016430BE00F430BF00E830C000DC3045
:1004E000C100D030C2000530C3004410C410441114
:1004F000C41103308316850001308600870088010F
:100500008901831285018601870188018901FF30F5
:10051000831692000F30831297007D309200950170
:1005200091018101073090008F018E01C8308B004E
:1005300083168C0183128C0107308316810083128D
:100540009E0183169E0182309F0038308312CC00BA
:10055000D3200630CC00D3200C30CC00D320013087
:10056000CC00D3206430CF00C0208030CC00D3201A
:10057000C5014508332000380319C22AC50ACE0038
:10058000DD20B92AC030CC00D320C5014508472062
:1005900000380319CF2AC50ACE00DD20C62A08304C
:1005A000C500FA30CF00C020C50BD12A0130CC00E5
:1005B000D3200230CF00C020C0308B040B168B1626
:1005C0000A30CF00C0208030CC00D320C5014508C0
:1005D0005B2000380319F02AC50ACE00DD20E72A87
:1005E0008730CC00D320C5014508622000380319AC
:1005F000FD2AC50ACE00DD20F42A1E08BB008316A2
:100600001E088312BA000A30CF00C0200310BB0CB2
:10061000BA0C3B08C6003A08C5000D211E08BD00F3
:1006200083161E088312BC000A30CF00C02087301A
:10063000CC00D320C5014508682000380319242BBD
:10064000C50ACE00DD201B2B3D08C6003C08C500B6
:100650000D2106182F2B6430CF00C020AB0A2B0BC6
:10066000412B0530C300C030CC00D320C501450864
:100670006F2000380319402BC50ACE00DD20372B30
:100680005D2B2B08023C031D522B0330C300C50118
:1006900045086F2000380319512BC50ACE00DD2014
:1006A000482B5D2BC301C50145087C200038031988
:1006B0005D2BC50ACE00DD20542B4418932BC41D9E
:1006C000932BC4110F08AF000E08AE002F08C60010
:1006D0002E08C50045297A08C8007908C70078089F
:1006E000C6007708C500C330CC00F530CB004830D9
:1006F000CA008030C90065297A08C8007908C70097
:100700007808C6007708C500DD297908B1007808A7
:10071000B0003108C6003008C500FF2910108F0155
:100720008E01101481013B08003C0318A42BFF3AF2
:10073000031D9E2B3A08C23C0318A42B2A08023C36
:100740000318A42BAA014414441CC12B950180302A
:10075000CC00D320C50145088A2000380319B42BEA
:10076000C50ACE00DD20AB2BC030CC00D320C501A4
:1007700045089F2000380319C12BC50ACE00DD2093
:06078000B82BE32A630020
:00000001FF
;PIC16F877A
