:1000000000308A00AF2A0000FF00030E8301A10028
:100010000A08A0008A010408A2007708A300780853
:10002000A4007908A5007A08A6007B08A70083131E
:1000300083128C308400801E1F288C1A36288B1E59
:1000400023280B193928220884002308F7002408E4
:10005000F8002508F9002608FA002708FB00200808
:100060008A00210E8300FF0E7F0E09008A110A12FA
:10007000A1288A110A12AA280A108A100A118207D6
:1000800053344F344C344134523420345434523489
:10009000413443344B3449344E34473400340A102D
:1000A0008A100A1182074C3431343A3400340A1071
:1000B0008A100A1182074C3432343A3400340A1060
:1000C0008A100A1182074C3433343A3400340A104F
:1000D0008A100A1182074C3434343A3400340A103E
:1000E0008A100A118207423441345434543445345E
:1000F00052345934313420343A3400340A108A10DE
:100100000A11820742344134543454344534523451
:100110005934323420343A3400340A108A100A1127
:1001200082072E3400348C1E93281808A8001A0861
:10013000F800A81C9D281812181600008A110A122F
:10014000A22893287808B7000130B8008C128A11D1
:100150000A122328B60A36082A3C0318B128B60129
:1001600039140B118A110A1223285C30840000080C
:100170000319C7280330F800F701F70BBD28F80B67
:10018000BC289530F700F70BC328800BBA28003441
:10019000530888008613891009150130DC00B5204A
:1001A000091100345B088800861789100915013091
:1001B000DC00B52009110034F801F901F701FA015A
:1001C0005E08031DE6285D08031900291030DF00D2
:1001D0000310DB0DDC0DF70DFA0D5E087A02031D2E
:1001E000F3285D087702031CFC285D08F702031C56
:1001F000FA035E08FA020314F80DF90DDF0BE82884
:1002000000000034D501D5015508033C031C3029FA
:100210005630550784005408DC005308DB00DE012B
:100220000A30DD00DC20770880003B305507840071
:100230005408DC005308DB00DE010A30DD00DC205E
:10024000770880005408DC005308DB00DE010A3028
:10025000DD00DC207908D4007808D300D50A042911
:1002600059083038DA00DB00D22058083038DA007C
:10027000DB00D220DA015A088D2000380319442906
:10028000DA0ADB00D2203B2957083038DA00DB00DD
:10029000D22056083038DA00DB00D2208A110A1248
:1002A000522CD5015508033C031C7E2956305507B6
:1002B00084005408DC005308DB00DE010A30DD0056
:1002C000DC20770880003F30550784005408DC00AC
:1002D0005308DB00DE010A30DD00DC2077088000F7
:1002E0005408DC005308DB00DE010A30DD00DC20AE
:1002F0007908D4007808D300D50A52295908303833
:10030000DA00DB00D22058083038DA00DB00D220D7
:10031000DA015A088D20003803199229DA0ADB0025
:10032000D220892957083038DA00DB00D22056085D
:100330003038DA00DB00D2208A110A12672CD5018E
:100340005508033C031CCC2956305507840054083B
:10035000DC005308DB00DE010A30DD00DC2077081A
:1003600080004330550784005408DC005308DB004C
:10037000DE010A30DD00DC20770880005408DC0054
:100380005308DB00DE010A30DD00DC207908D400F0
:100390007808D300D50AA02959083038DA00DB00E4
:1003A000D22058083038DA00DB00D2205708303825
:1003B000DA00DB00D22056083038DA00DB00D22029
:1003C0008A110A127C2CD5015508033C031C102A03
:1003D0005630550784005408DC005308DB00DE016A
:1003E0000A30DD00DC2077088000473055078400A4
:1003F0005408DC005308DB00DE010A30DD00DC209D
:10040000770880005408DC005308DB00DE010A3066
:10041000DD00DC207908D4007808D300D50AE4296F
:1004200059083038DA00DB00D22058083038DA00BA
:10043000DB00D22057083038DA00DB00D220560823
:100440003038DA00DB00D2208A110A12912CD50153
:100450005508033C031C542A5630550784005408A1
:10046000DC005308DB00DE010A30DD00DC20770809
:1004700080004B30550784005408DC005308DB0033
:10048000DE010A30DD00DC20770880005408DC0043
:100490005308DB00DE010A30DD00DC207908D400DF
:1004A0007808D300D50A282A59083038DA00DB004A
:1004B000D22058083038DA00DB00D2205708303814
:1004C000DA00DB00D22056083038DA00DB00D22018
:1004D0008A110A12AB2CD5015508033C031C982A3B
:1004E0005630550784005408DC005308DB00DE0159
:1004F0000A30DD00DC20770880004F30550784008B
:100500005408DC005308DB00DE010A30DD00DC208B
:10051000770880005408DC005308DB00DE010A3055
:10052000DD00DC207908D4007808D300D50A6C2AD5
:1005300059083038DA00DB00D22058083038DA00A9
:10054000DB00D22057083038DA00DB00D220560812
:100550003038DA00DB00D2208A110A12C02C840164
:100560001F30830511308316990022309800903097
:100570008312980083161F149F141F159F110730B4
:100580009C008312A801A901AA01AB01AC01AD0135
:10059000AE01AF01B001B101B201B301B401B501C7
:1005A000B601B701B8013910B9103911B9113912B2
:1005B000BA01BB01BC01BD01BE01BF01C001C10147
:1005C000C201C301C401C501C601C701C801C901F7
:1005D000CA01CB01CC01CD01CE01CF01D001D101A7
:1005E000D2018801890183168801013089008312B4
:1005F0008601831686018312870180308316870067
:10060000C03083128B008B0483168C163830831213
:10061000D300C8200530DC00B5200630D300C82048
:100620000530DC00B5200C30D300C8200530DC00DC
:10063000B5200130D300C8200530DC00B520803063
:10064000D300C820D30153083C20003803192C2BB9
:10065000D30ADB00D220232B810183160108C03985
:100660000738810083128B16C0308B0483161F134A
:1006700083121F179F1783169F1783121F14831649
:100680001F149F101F119F1508308312D300FA30DA
:10069000DC00B520D30B472B0130D300C82002303B
:1006A000DC00B520380B6B2B3708463C031D5C2B58
:1006B00007148710B8016B2B3708523C031D642BBD
:1006C00007108714B8016B2B3708533C031D6B2BA5
:1006D00007108710B8019630DC00B5200030F80014
:1006E0001F08C73978049F005B30F700F70B762BA3
:1006F000000000001F151F197B2B83161E08831294
:10070000A9001E08AA000330F700F70B852B000094
:100710009630DC00B5200830F8001F08C73978048F
:100720009F005B30F700F70B932B000000001F15B4
:100730001F19982B83161E088312AB001E08AC00ED
:100740000330F700F70BA22B00009630DC00B52039
:100750001030F8001F08C73978049F005B30F7009D
:10076000F70BB02B000000001F151F19B52B8316C7
:100770001E088312AD001E08AE000330F700F70B11
:10078000BF2B00009630DC00B5201830F8001F08A1
:10079000C73978049F005B30F700F70BCD2B0000C2
:1007A00000001F151F19D22B83161E088312AF00DD
:1007B0001E08B0002430F700F70BDC2B0000963049
:1007C000DC00B5202030F8001F08C73978049F00EE
:1007D0005B30F700F70BEA2B000000001F151F1914
:1007E000EF2B83161E088312B1001E08B2000310FF
:1007F000B10DB20D2430F700F70BFC2B0000963042
:10080000DC00B5202830F8001F08C73978049F00A5
:100810005B30F700F70B0A2C000000001F151F19B2
:100820000F2C83161E088312B3001E08B400031099
:10083000B30DB40D2430F700F70B1C2C0000B508E5
:10084000031D262C3608063C03182E2C3508063CC2
:10085000031D342C3608063C031C342C0130D30015
:10086000C8200230DC00B520391C3C2C3910B50AF8
:1008700035080B3C031CB5013508063C0318952CC4
:100880008030D300C820D30153084F20003803190B
:100890004D2CD30ADB00D220442C2A08D40029088E
:1008A000D30002293230DC00B5208830D300C820C4
:1008B000D3015308572000380319622CD30ADB00F8
:1008C000D220592C2C08D4002B08D30051293230C7
:1008D000DC00B520C030D300C820D30153085F200E
:1008E00000380319772CD30ADB00D2206E2C2E0897
:1008F000D4002D08D3009F293230DC00B520C83049
:10090000D300C820D30153086720003803198C2C6A
:10091000D30ADB00D220832C3008D4002F08D30068
:10092000E3293230DC00B520C02C3508053C031C1F
:10093000C02C8030D300C820D30153086F2000386A
:100940000319A62CD30ADB00D2209D2C3208D40038
:100950003108D300272A3230DC00B520C030D30064
:10096000C820D30153087E2000380319BB2CD30ABA
:10097000DB00D220B22C3408D4003308D3006B2A19
:100980002C082A02031C0A2D031DCA2C29082B023D
:1009900003180A2D2E082A02031C0A2D031DD42C2D
:1009A00029082D0203180A2D30082A02031C0A2DDB
:1009B000031DDE2C29082F0203180A2DB9180A2D51
:1009C000391DED2C861406100230D300FA30DC00FD
:1009D000B520D30BE62C8610062DB91DFA2C061473
:1009E00086100430D300FA30DC00B520D30BF32C92
:1009F0000610062D391E062D061486100230D3006F
:100A0000FA30DC00B520D30B002D0610B9143911D3
:100A1000B91139122A082C02031C542D031D142D60
:100A20002B0829020318542D2E082C02031C542DC8
:100A3000031D1E2D2B082D020318542D30082C02E7
:100A4000031C542D031D282D2B082F020318542D91
:100A50003919542DB91D372D861406100230D300D4
:100A6000FA30DC00B520D30B302D8610502D391E06
:100A7000442D061486100430D300FA30DC00B52073
:100A8000D30B3D2D0610502DB91C502D0614861089
:100A90000230D300FA30DC00B520D30B4A2D06100B
:100AA000B9103915B91139122A082E02031C9E2DCE
:100AB000031D5E2D2D08290203189E2D2C082E02E1
:100AC000031C9E2D031D682D2D082B0203189E2D3F
:100AD00030082E02031C9E2D031D722D2D082F029F
:100AE00003189E2DB9199E2D391E812D86140610CE
:100AF0000230D300FA30DC00B520D30B7A2D8610FB
:100B00009A2DB91C8E2D061486100430D300FA30AD
:100B1000DC00B520D30B872D06109A2D391D9A2D98
:100B2000061486100230D300FA30DC00B520D30B57
:100B3000942D0610B9103911B91539122A0830024E
:100B4000031CE82D031DA82D2F0829020318E82DEA
:100B50002C083002031CE82D031DB22D2F082B0298
:100B60000318E82D2E083002031CE82D031DBC2DB0
:100B70002F082D020318E82D391AE82DB91CCB2DAA
:100B8000861406100230D300FA30DC00B520D30BF7
:100B9000C42D8610E42D391DD82D0614861004307E
:100BA000D300FA30DC00B520D30BD12D0610E42D94
:100BB000B91DE42D061486100230D300FA30DC0093
:100BC000B520D30BDE2D0610B9103911B911391625
:100BD00032303107D3003208D4000318D40A340865
:100BE0005402031CFB2D031DF92D53083302031877
:100BF000FB2D0616861232303307D3003408D4009A
:100C00000318D40A32085402031C0E2E031D0C2EA6
:100C10005308310203180E2E061286160230D30036
:100C2000FA30DC00B520D30B102E2A300C1E162E05
:100C3000990042300C1E1A2E990031300C1E1E2EC7
:100C400099003E083038D30053080C1E252E990019
:100C50003D083038D30053080C1E2C2E99002E303E
:100C60000C1E302E99003C083038D30053080C1E5F
:100C7000372E99003B083038D30053080C1E3E2E07
:100C8000990042300C1E422E990032300C1E462E26
:100C9000990042083038D30053080C1E4D2E99009D
:100CA00041083038D30053080C1E542E99002E30C2
:100CB0000C1E582E990040083038D30053080C1EE3
:100CC0005F2E99003F083038D30053080C1E662E63
:100CD00099004C300C1E6A2E990031300C1E6E2E7D
:100CE000990046083038D30053080C1E752E990021
:100CF00045083038D30053080C1E7C2E9900440858
:100D00003038D30053080C1E832E99004308303826
:100D1000D30053080C1E8A2E99004C300C1E8E2EC8
:100D2000990032300C1E922E99004A083038D300B8
:100D300053080C1E992E990049083038D3005308E7
:100D40000C1EA02E990048083038D30053080C1E02
:100D5000A72E990047083038D30053080C1EAE2E3A
:100D600099004C300C1EB22E990033300C1EB62E5A
:100D700099004E083038D30053080C1EBD2E990040
:100D80004D083038D30053080C1EC42E99004C086F
:100D90003038D30053080C1ECB2E99004B08303846
:100DA000D30053080C1ED22E99004C300C1ED62EA8
:100DB000990034300C1EDA2E990052083038D300D6
:100DC00053080C1EE12E990051083038D300530807
:100DD0000C1EE82E990050083038D30053080C1E22
:100DE000EF2E99004F083038D30053080C1EF62E12
:0C0DF00099006430DC00B520522B630039
:02400E00723FFF
:00000001FF
;PIC16F877A
