:1000000000308A00202A0000FF00030E8301A100B7
:100010000A08A0008A010408A2007708A300780853
:10002000A4007908A5007A08A6007B08A70083131E
:1000300083128B1D1D280B1834288B1E21280B19A9
:100040003728220884002308F7002408F800250830
:10005000F9002608FA002708FB0020088A00210E74
:100060008300FF0E7F0E09008A110A12E4288A110C
:100070000A1278290A108A100A11820758342D347E
:100080004134583449345334203441342D344334CA
:100090004C344F3443344B3457344934533445345F
:1000A00000340A108A100A11820758342D34413462
:1000B000583449345334203443344C344F3443346B
:1000C0004B34573449345334453400340A108A10C1
:1000D0000A11820759342D34413458344934533489
:1000E000203443344C344F3443344B345734493444
:1000F0005334453400340A108A100A1182075934E7
:100100002D344134583449345334203441342D345F
:1001100043344C344F3443344B34573449345334E0
:10012000453400340A108A100A11820753344F34C0
:100130004C344134523420345434523441344334F6
:100140004B3449344E34473400340A108A100A11B3
:10015000820753344F344C34413452343A340034EF
:100160000A108A100A11820742344134543454343C
:100170004534523459343A34003441308400000854
:100180000319CF280330F800F701F70BC528F80B47
:10019000C4289530F700F70BCB28800BC228003419
:1001A0003F0888000910891009150130C100BD20E1
:1001B000091100344008880009148910091501301C
:1001C000C100BD2009110034061E0729861A07291F
:1001D000AD08031D07298030BF00D020BF013F08B4
:1001E0003A2000380319F828BF0AC000DA20EF28A7
:1001F00006140830BF00FA30C100BD20BF0BFB2839
:1002000006100130AD00AE01BF00D0200829061055
:10021000861E2B29061A2B29AE08031D2B29803098
:10022000BF00D020BF013F085120003803191C290E
:10023000BF0AC000DA20132986140830BF00FA3044
:10024000C100BD20BF0B1F2986100130AE00AD01DB
:10025000BF00D0202C298610061F4F29861B4F294E
:10026000AF08031D4F298030BF00D020BF013F08D9
:100270006620003803194029BF0AC000DA20372958
:1002800006150830BF00FA30C100BD20BF0B43295E
:1002900006110130AF00B001BF00D0205029061177
:1002A000861F7329061B7329B008031D732980302C
:1002B000BF00D020BF013F087B200038031964290C
:1002C000BF0AC000DA205B2986150830BF00FA306B
:1002D000C100BD20BF0B672986110130B000AF01FE
:1002E000BF00D020742986110B108A110A12212810
:1002F000A90A29082B3C031D8D29A901AA0A2A084D
:100300003C3C031D8D29AA01AB0A2B083C3C031D74
:100310008D29AB01AA01AC0A35140B118A110A12FE
:1003200021283D08F8013C02031899293C08F700F0
:10033000A529F7010830BE00BC0DF70D3D08770276
:100340000318F700F80DBE0B9C290034BA01BA015E
:100350003A08013C031CBF2938303A0784003708AB
:10036000BC000A30BD009121770880003708BC002E
:100370000A30BD0091217808B700BA0AA829A8015F
:100380008B1BA8178B13C830BF00D020A81B8B175E
:1003900039083038BB00A8018B1BA8178B133B080A
:1003A000C000DA20A81B8B1738083038BB00A80122
:1003B0008B1BA8178B133B08C000DA20A81B8B17D8
:1003C0008A110A12E02AB901B9013908013C031C5B
:1003D000FC293730390784003608BC000A30BD00DC
:1003E0009121770880003608BC000A30BD009121B9
:1003F0007808B600B90AE529A8018B1BA8178B134A
:100400008830BF00D020A81B8B1738083038BA00BE
:10041000A8018B1BA8178B133A08C000DA20A81B71
:100420008B1737083038BA00A8018B1BA8178B131D
:100430003A08C000DA20A81B8B178A110A12172B62
:1004400084011F30830583161F149F141F159F11ED
:1004500007309C008312A901AA01AB01AC01B101D4
:10046000B201B301B401351088018901850187010A
:1004700086018316880189013F3085008701F030AD
:10048000860083129E0183169E0182309F00831294
:100490008101073083168100883083128B00A80108
:1004A0008B1BA8178B133830BF00D020A81B8B17CD
:1004B000A8018B1BA8178B130630BF00D020A81BE8
:1004C0008B17A8018B1BA8178B130C30BF00D020F3
:1004D000A81B8B170230B600A8018B1BA8178B1323
:1004E0009630C100BD20A81B8B17B60B6C2AA80143
:1004F0008B1BA8178B138030BF00D020A81B8B1735
:10050000B6013608922000380319902AB60AA801CD
:100510008B1BA8178B13C000DA20A81B8B17812A0E
:100520000430B600A8018B1BA8178B13FA30C1004A
:10053000BD20A81B8B17B60B922AA8018B1BA817EE
:100540008B130130BF00D020A81B8B17A8018B1B79
:10055000A8178B130A30C100BD20A81B8B17813050
:100560009F001F151F19B22A1E08FA0083161E08C5
:10057000F8001E18BF2A83120712C12A831683129D
:100580000716A8018B1BA8178B138030BF00D02043
:10059000A81B8B17B6013608A52000380319DA2AE4
:1005A000B60AA8018B1BA8178B13C000DA20A81B62
:1005B0008B17CB2A0030071A0130B600B700A629E6
:1005C000A8018B1BA8178B136430C100BD20A81B8A
:1005D0008B1789309F001F151F19EC2A1E08FA007F
:1005E00083161E08F8001E18F92A83128712FB2AA8
:1005F000831683128716A8018B1BA8178B13C03094
:10060000BF00D020A81B8B17B6013608B0200038D9
:100610000319142BB60AA8018B1BA8178B13C00053
:10062000DA20A81B8B17052B3308B600E32902300C
:10063000B600A8018B1BA8178B139630C100BD20F4
:10064000A81B8B17B60B192B0030071A0130323E4E
:10065000B7000030871A013037020319392B031C09
:10066000392B0714071507160717871087118712EC
:1006700087130030871A0130323EB7000030071A66
:100680000130370203194E2B031C4E2B871487159C
:10069000871687170710071107120713A62A63008A
:00000001FF
;PIC16F877A
