:1000000000308A00762A0000FF00030E8301A10061
:100010000A08A0008A010408A2007708A300780853
:10002000A4007908A5007A08A6007B08A70083131E
:1000300083128B1E1D280B193028220884002308E8
:10004000F7002408F8002508F9002608FA00270818
:10005000FB0020088A00210E8300FF0E7F0E09009E
:100060008A110A1294280A108A100A11820747344A
:100070005234543400340A108A100A11820753345F
:100080004F344C344134523420345434523441349B
:1000900043344B3449344E34473400340A108A1008
:1000A0000A1182074C3431343A3400340A108A1071
:1000B0000A11820732343A3400340A108A100A11C5
:1000C0008207203433343A3400340A108A100A117B
:1000D0008207203434343A3400345030840000082D
:1000E00003197F280330F800F701F70B7528F80B88
:1000F00074289530F700F70B7B28800B72280034AA
:100100004E0888000910891009150130D0006D20B3
:10011000091100344F0888000914891009150130AD
:10012000D0006D20091100348030CE008020CE0137
:100130004E08332000380319A128CE0ACF008A20A8
:100140009828BF0A3F082B3C031DA828BF01401474
:100150000B118A110A121D28F801F901F701FA01A1
:100160004C08031DB6284B080319D0281030CD00C9
:100170000310C90DCA0DF70DFA0D4C087A02031DC4
:10018000C3284B087702031CCC284B08F702031C3A
:10019000FA034C08FA020314F80DF90DCD0BB82838
:1001A00000000034C3014308033C031CF228443020
:1001B000430784004208CA004108C900CC010A3044
:1001C000CB00AC20770880004208CA004108C90073
:1001D000CC010A30CB00AC207908C2007808C100FD
:1001E000C30AD328A8018B1BA8178B138030CE001D
:1001F0008020A81B8B17C80148084E20003803191F
:100200000B29C80AA8018B1BA8178B13CF008A20C3
:10021000A81B8B17FC2846083038C800A8018B1B88
:10022000A8178B134808CF008A20A81B8B174508F6
:100230003038C800A8018B1BA8178B134808CF00C3
:100240008A20A81B8B1744083038C800A8018B1BD4
:10025000A8178B134808CF008A20A81B8B17A8016A
:100260008B1BA8178B13C830D0006D20A81B8B17D1
:100270008A110A123F2BC3014308033C031C5B296C
:100280004430430784004208CA004108C900CC0139
:100290000A30CB00AC20770880004208CA00410831
:1002A000C900CC010A30CB00AC207908C200780824
:1002B000C100C30A3C29A8018B1BA8178B13C030AF
:1002C000CE008020A81B8B17C80148085620003894
:1002D00003197429C80AA8018B1BA8178B13CF0018
:1002E0008A20A81B8B17652946083038C800A8014A
:1002F0008B1BA8178B134808CF008A20A81B8B17CD
:1003000045083038C800A8018B1BA8178B13480874
:10031000CF008A20A81B8B1744083038C800A801DA
:100320008B1BA8178B134808CF008A20A81B8B179C
:10033000A8018B1BA8178B13C830D0006D20A81BF9
:100340008B178A110A12612BC3014308033C031C5B
:10035000C4294430430784004208CA004108C90048
:10036000CC010A30CB00AC20770880004208CA00DC
:100370004108C900CC010A30CB00AC207908C2008A
:100380007808C100C30AA529A8018B1BA8178B13E5
:100390008630CE008020A81B8B17C80148085D203E
:1003A00000380319DD29C80AA8018B1BA8178B1375
:1003B000CF008A20A81B8B17CE2946083038C800EA
:1003C000A8018B1BA8178B134808CF008A20A81BF5
:1003D0008B1745083038C800A8018B1BA8178B1352
:1003E0004808CF008A20A81B8B1744083038C80063
:1003F000A8018B1BA8178B134808CF008A20A81BC5
:100400008B17A8018B1BA8178B13C830D0006D2049
:10041000A81B8B178A110A12832BC3014308033CC4
:10042000031C2D2A4430430784004208CA004108B7
:10043000C900CC010A30CB00AC207708800042080C
:10044000CA004108C900CC010A30CB00AC207908B1
:10045000C2007808C100C30A0E2AA8018B1BA81786
:100460008B13C530CE008020A81B8B17C80148080D
:10047000652000380319462AC80AA8018B1BA81753
:100480008B13CF008A20A81B8B17372A46083038D9
:10049000C800A8018B1BA8178B134808CF008A201F
:1004A000A81B8B1745083038C800A8018B1BA8175C
:1004B0008B134808CF008A20A81B8B1744083038BC
:1004C000C800A8018B1BA8178B134808CF008A20EF
:1004D000A81B8B17A8018B1BA8178B13C830D00043
:1004E0006D20A81B8B178A110A12A52B84011F30BF
:1004F000830583161F149F141F159F1107309C003E
:100500008312A901AA01AB01AC01AD01AE01AF019B
:10051000B001B101B201B301B401B501B6010130BE
:10052000B700B801B900BA01BB00BC01BD00BE01F3
:10053000BF014010C0104011C0114012C012401342
:10054000C0133F3083168500831285018601831610
:10055000860188018312880183168901831289012B
:100560008316870183128701C0308B000730831602
:100570008100831281019E0183169E0182309F00BB
:100580008312A8018B1BA8178B133830CE00802054
:10059000A81B8B17A8018B1BA8178B130630CE0046
:1005A0008020A81B8B17A8018B1BA8178B130C305E
:1005B000CE008020A81B8B17A8018B1BA8178B13BC
:1005C0000130CE008020A81B8B17A8018B1BA81719
:1005D0008B138030CE008020A81B8B17C1014108EF
:1005E0003B2000380319FE2AC10AA8018B1BA8175B
:1005F0008B13CF008A20A81B8B17EF2A0830C1006D
:10060000A8018B1BA8178B13FA30D0006D20A81BF4
:100610008B17C10B002BA8018B1BA8178B13013064
:10062000CE008020A81B8B17A8018B1BA8178B134B
:100630000230D0006D20A81B8B17A8018B1BA817B8
:100640008B136430D0006D20A81B8B1781309F0066
:100650001F151F19292B1E08AA0083161E088312B6
:10066000A900A8018B1BA8178B130A30D0006D209E
:10067000A81B8B172A08C2002908C100D228A8018C
:100680008B1BA8178B136430D0006D20A81B8B1711
:1006900089309F001F151F194B2B1E08AC008316B5
:1006A0001E088312AB00A8018B1BA8178B130A30FE
:1006B000D0006D20A81B8B172C08C2002B08C1008E
:1006C0003B29A8018B1BA8178B136430D0006D2029
:1006D000A81B8B1791309F001F151F196D2B1E082B
:1006E000AE0083161E088312AD00A8018B1BA8174D
:1006F0008B130A30D0006D20A81B8B172E08C20068
:100700002D08C100A429A8018B1BA8178B136430E6
:10071000D0006D20A81B8B1799309F001F151F1943
:100720008F2B1E08B00083161E088312AF00A8018D
:100730008B1BA8178B130A30D0006D20A81B8B17BA
:100740003008C2002F08C1000D2A2C082A02031C01
:10075000C62B031DAF2B29082B020318C62B2E080E
:100760002A02031CC62B031DB92B29082D020318CE
:10077000C62B30082A02031CC62B031DC32B2908D5
:100780002F020318C62BC018C62BC014C01CE12BA7
:10079000370BE12BB808031DE12B4017C0100614DE
:1007A000B801B70186100530C100A8018B1BA8173E
:1007B0008B13FA30D0006D20A81B8B17C10BD52BE3
:1007C00006102A082C02031C022C031DEB2B2B08FD
:1007D00029020318022C2E082C02031C022C031DD4
:1007E000F52B2B082D020318022C30082C02031CB9
:1007F000022C031DFF2B2B082F020318022C40197B
:10080000022C4015401D1D2C390B1D2CBA08031D50
:100810001D2C401340118610BA01B90106140A308C
:10082000C100A8018B1BA8178B13FA30D0006D20D4
:10083000A81B8B17C10B112C06102A082E02031CB3
:100840003E2C031D272C2D08290203183E2C2C08B2
:100850002E02031C3E2C031D312C2D082B020318E5
:100860003E2C30082E02031C3E2C031D3B2C2D0871
:100870002F0203183E2CC0193E2CC015C01D592C48
:100880003B0B592CBC08031D592CC017C0118614F2
:10089000BC01BB0106100530C100A8018B1BA817C5
:1008A0008B13FA30D0006D20A81B8B17C10B4D2C79
:1008B00086102A083002031C7A2C031D632C2F0893
:1008C000290203187A2C2C083002031C7A2C031DF1
:1008D0006D2C2F082B0203187A2C2E083002031CD3
:1008E0007A2C031D772C2F082D0203187A2C401A1E
:1008F0007A2C4016401E952C3D0B952CBE08031DEE
:10090000952CC01340128614BE01BD0106100A309A
:10091000C100A8018B1BA8178B13FA30D0006D20E3
:0E092000A81B8B17C10B892C86101D2B6300A2
:02400E00723FFF
:00000001FF
;PIC16F877A
